{
  "abi": [
    {
      "inputs": [
        {
          "internalType": "uint8[]",
          "name": "_depths",
          "type": "uint8[]"
        },
        {
          "internalType": "address[]",
          "name": "_verifieraddresses",
          "type": "address[]"
        }
      ],
      "stateMutability": "payable",
      "type": "constructor"
    },
    {
      "inputs": [],
      "name": "NotAdmin",
      "type": "error"
    },
    {
      "inputs": [],
      "name": "NotSamelength",
      "type": "error"
    },
    {
      "inputs": [],
      "name": "Semaphore__GroupAlreadyExists",
      "type": "error"
    },
    {
      "inputs": [],
      "name": "Semaphore__GroupDoesNotExist",
      "type": "error"
    },
    {
      "inputs": [],
      "name": "Semaphore__GroupIdIsNotLessThanSnarkScalarField",
      "type": "error"
    },
    {
      "inputs": [],
      "name": "Semaphore__YouAreUsingTheSameNillifierTwice",
      "type": "error"
    },
    {
      "inputs": [],
      "name": "VotingAlreadyStarted",
      "type": "error"
    },
    {
      "anonymous": false,
      "inputs": [
        {
          "indexed": true,
          "internalType": "uint256",
          "name": "groupId",
          "type": "uint256"
        },
        {
          "indexed": false,
          "internalType": "uint8",
          "name": "depth",
          "type": "uint8"
        },
        {
          "indexed": false,
          "internalType": "uint256",
          "name": "zeroValue",
          "type": "uint256"
        }
      ],
      "name": "GroupCreated",
      "type": "event"
    },
    {
      "anonymous": false,
      "inputs": [
        {
          "indexed": true,
          "internalType": "uint256",
          "name": "groupId",
          "type": "uint256"
        },
        {
          "indexed": false,
          "internalType": "uint256",
          "name": "identityCommitment",
          "type": "uint256"
        },
        {
          "indexed": false,
          "internalType": "uint256",
          "name": "root",
          "type": "uint256"
        }
      ],
      "name": "MemberAdded",
      "type": "event"
    },
    {
      "anonymous": false,
      "inputs": [
        {
          "indexed": true,
          "internalType": "uint256",
          "name": "groupId",
          "type": "uint256"
        },
        {
          "indexed": false,
          "internalType": "uint256",
          "name": "identityCommitment",
          "type": "uint256"
        },
        {
          "indexed": false,
          "internalType": "uint256",
          "name": "root",
          "type": "uint256"
        }
      ],
      "name": "MemberRemoved",
      "type": "event"
    },
    {
      "anonymous": false,
      "inputs": [
        {
          "indexed": true,
          "internalType": "uint256",
          "name": "id",
          "type": "uint256"
        },
        {
          "indexed": true,
          "internalType": "address",
          "name": "coordinator",
          "type": "address"
        }
      ],
      "name": "NewProposal",
      "type": "event"
    },
    {
      "anonymous": false,
      "inputs": [
        {
          "indexed": false,
          "internalType": "uint256",
          "name": "nullifierHash",
          "type": "uint256"
        }
      ],
      "name": "NullifierHashAdded",
      "type": "event"
    },
    {
      "inputs": [
        {
          "internalType": "uint256",
          "name": "_pollId",
          "type": "uint256"
        },
        {
          "internalType": "uint256",
          "name": "_identitycommitment",
          "type": "uint256"
        }
      ],
      "name": "Addvoter",
      "outputs": [],
      "stateMutability": "nonpayable",
      "type": "function"
    },
    {
      "inputs": [
        {
          "internalType": "bytes32",
          "name": "_eventName",
          "type": "bytes32"
        },
        {
          "internalType": "string",
          "name": "_description",
          "type": "string"
        },
        {
          "internalType": "bytes32[]",
          "name": "_proposals",
          "type": "bytes32[]"
        },
        {
          "internalType": "address",
          "name": "_coordinator",
          "type": "address"
        },
        {
          "internalType": "uint8",
          "name": "_depth",
          "type": "uint8"
        },
        {
          "internalType": "uint256",
          "name": "_zerovalue",
          "type": "uint256"
        }
      ],
      "name": "NewVoteInstance",
      "outputs": [],
      "stateMutability": "nonpayable",
      "type": "function"
    },
    {
      "inputs": [
        {
          "internalType": "uint256",
          "name": "_pollId",
          "type": "uint256"
        },
        {
          "internalType": "uint256",
          "name": "_identityCommitment",
          "type": "uint256"
        },
        {
          "internalType": "uint256[]",
          "name": "_proofSiblings",
          "type": "uint256[]"
        },
        {
          "internalType": "uint8[]",
          "name": "_proofPathIndices",
          "type": "uint8[]"
        }
      ],
      "name": "RemoveVoter",
      "outputs": [],
      "stateMutability": "nonpayable",
      "type": "function"
    },
    {
      "inputs": [
        {
          "internalType": "uint256",
          "name": "_pollId",
          "type": "uint256"
        }
      ],
      "name": "StartPoll",
      "outputs": [],
      "stateMutability": "nonpayable",
      "type": "function"
    },
    {
      "inputs": [
        {
          "internalType": "uint256",
          "name": "",
          "type": "uint256"
        },
        {
          "internalType": "bytes32",
          "name": "",
          "type": "bytes32"
        }
      ],
      "name": "VotesperProposal",
      "outputs": [
        {
          "internalType": "uint256",
          "name": "",
          "type": "uint256"
        }
      ],
      "stateMutability": "view",
      "type": "function"
    },
    {
      "inputs": [
        {
          "internalType": "bytes32",
          "name": "_vote",
          "type": "bytes32"
        },
        {
          "internalType": "uint256",
          "name": "_nullifierHash",
          "type": "uint256"
        },
        {
          "internalType": "uint256",
          "name": "_pollId",
          "type": "uint256"
        },
        {
          "internalType": "uint256[8]",
          "name": "_proof",
          "type": "uint256[8]"
        }
      ],
      "name": "castVote",
      "outputs": [],
      "stateMutability": "nonpayable",
      "type": "function"
    },
    {
      "inputs": [
        {
          "internalType": "uint256",
          "name": "_pollId",
          "type": "uint256"
        }
      ],
      "name": "endPoll",
      "outputs": [],
      "stateMutability": "nonpayable",
      "type": "function"
    },
    {
      "inputs": [
        {
          "internalType": "uint256",
          "name": "groupId",
          "type": "uint256"
        }
      ],
      "name": "getDepth",
      "outputs": [
        {
          "internalType": "uint8",
          "name": "",
          "type": "uint8"
        }
      ],
      "stateMutability": "view",
      "type": "function"
    },
    {
      "inputs": [
        {
          "internalType": "uint256",
          "name": "groupId",
          "type": "uint256"
        }
      ],
      "name": "getNumberOfLeaves",
      "outputs": [
        {
          "internalType": "uint256",
          "name": "",
          "type": "uint256"
        }
      ],
      "stateMutability": "view",
      "type": "function"
    },
    {
      "inputs": [
        {
          "internalType": "uint256",
          "name": "groupId",
          "type": "uint256"
        }
      ],
      "name": "getRoot",
      "outputs": [
        {
          "internalType": "uint256",
          "name": "",
          "type": "uint256"
        }
      ],
      "stateMutability": "view",
      "type": "function"
    },
    {
      "inputs": [
        {
          "internalType": "uint256",
          "name": "_pollId",
          "type": "uint256"
        }
      ],
      "name": "getlatestVotes",
      "outputs": [
        {
          "components": [
            {
              "internalType": "bytes32",
              "name": "proposals",
              "type": "bytes32"
            },
            {
              "internalType": "uint256",
              "name": "votes",
              "type": "uint256"
            }
          ],
          "internalType": "struct ZkVote.Results[]",
          "name": "",
          "type": "tuple[]"
        }
      ],
      "stateMutability": "view",
      "type": "function"
    },
    {
      "inputs": [
        {
          "internalType": "uint256",
          "name": "",
          "type": "uint256"
        }
      ],
      "name": "polls",
      "outputs": [
        {
          "internalType": "address",
          "name": "coordinator",
          "type": "address"
        },
        {
          "internalType": "enum ZkVote.PollState",
          "name": "pollstate",
          "type": "uint8"
        },
        {
          "internalType": "bytes32",
          "name": "pollname",
          "type": "bytes32"
        },
        {
          "internalType": "string",
          "name": "description",
          "type": "string"
        }
      ],
      "stateMutability": "view",
      "type": "function"
    }
  ],
  "bytecode": {
    "object": "0x608060405260405162001719380380620017198339810160408190526200002691620001ef565b805182511462000049576040516368594ec360e11b815260040160405180910390fd5b815160005b818160ff161015620000ec57828160ff1681518110620000725762000072620002c7565b602002602001015160026000868460ff1681518110620000965762000096620002c7565b602002602001015160ff1660ff16815260200190815260200160002060006101000a8154816001600160a01b0302191690836001600160a01b031602179055508080620000e390620002dd565b9150506200004e565b505050506200030b565b634e487b7160e01b600052604160045260246000fd5b604051601f8201601f191681016001600160401b0381118282101715620001375762000137620000f6565b604052919050565b60006001600160401b038211156200015b576200015b620000f6565b5060051b60200190565b600082601f8301126200017757600080fd5b81516020620001906200018a836200013f565b6200010c565b82815260059290921b84018101918181019086841115620001b057600080fd5b8286015b84811015620001e45780516001600160a01b0381168114620001d65760008081fd5b8352918301918301620001b4565b509695505050505050565b600080604083850312156200020357600080fd5b82516001600160401b03808211156200021b57600080fd5b818501915085601f8301126200023057600080fd5b81516020620002436200018a836200013f565b82815260059290921b840181019181810190898411156200026357600080fd5b948201945b838610156200029457855160ff81168114620002845760008081fd5b8252948201949082019062000268565b91880151919650909350505080821115620002ae57600080fd5b50620002bd8582860162000165565b9150509250929050565b634e487b7160e01b600052603260045260246000fd5b600060ff821660ff81036200030257634e487b7160e01b600052601160045260246000fd5b60010192915050565b6113fe806200031b6000396000f3fe608060405234801561001057600080fd5b50600436106100b45760003560e01c806375e618c91161007157806375e618c9146101435780638d5d77ae146101755780639b24b3b0146101ae578063ac2f0074146101d2578063b9c78c2b146101f5578063f43b87781461021857600080fd5b80631ae187a8146100b95780633143a178146100ce57806337d6e3ff146100e15780633c464bd3146100f45780633eecf5051461011d578063633f439d14610130575b600080fd5b6100cc6100c7366004610df3565b61022b565b005b6100cc6100dc366004610e61565b610273565b6100cc6100ef366004610fd8565b61030c565b6101076101023660046110c2565b610458565b60405161011491906110db565b60405180910390f35b6100cc61012b3660046110c2565b61056b565b6100cc61013e36600461112a565b6105c1565b6101636101513660046110c2565b60009081526001602052604090205490565b60405160ff9091168152602001610114565b6101a0610183366004610df3565b600360209081526000928352604080842090915290825290205481565b604051908152602001610114565b6101a06101bc3660046110c2565b6000908152600160208190526040909120015490565b6101e56101e03660046110c2565b61069c565b6040516101149493929190611187565b6101a06102033660046110c2565b60009081526001602052604090206002015490565b6100cc6102263660046110c2565b61075c565b60008281526004602052604090205482906001600160a01b0316331461026457604051637bfa4b9f60e01b815260040160405180910390fd5b61026e8383610805565b505050565b60008681526004602052604090205486906001600160a01b031633146102ac57604051637bfa4b9f60e01b815260040160405180910390fd5b60008088815260046020526040902054600160a01b900460ff1660028111156102d7576102d7611171565b146102f5576040516301da8d1f60e51b815260040160405180910390fd5b610303878787878787610906565b50505050505050565b600061031787610a12565b9050610324818484610a49565b6103556040805160a08101909152600080825260208201908152600060208201526060604082018190529081015290565b6001600160a01b0385811682526000602080840182815260408086018d9052606086018c9052608086018b9052868452600490925291208351815493166001600160a01b0319841681178255915184939192909183916001600160a81b031990911617600160a01b8360028111156103cf576103cf611171565b021790555060408201516001820155606082015180516103f9916002840191602090910190610d20565b5060808201518051610415916003840191602090910190610da4565b50506040516001600160a01b038716915083907f4a1fe915f1472308c702e9bb92fd3d7d9de39fc6398bff038bb57e4ccf63430e90600090a35050505050505050565b6000818152600460205260408120600301546060918167ffffffffffffffff81111561048657610486610ee4565b6040519080825280602002602001820160405280156104cb57816020015b60408051808201909152600080825260208201528152602001906001900390816104a45790505b50905060005b828110156105635760008581526004602052604081206003018054839081106104fc576104fc611219565b60009182526020808320909101546040805180820182528281528a855260038452818520838652845293205491830191909152845190925084908490811061054657610546611219565b6020026020010181905250508061055c9061122f565b90506104d1565b509392505050565b60008181526004602052604081208054909190600160a01b900460ff16600281111561059957610599611171565b146105bd576040516301da8d1f60e51b815260040160405180910390fd5b02179055505b5050565b6001600083815260046020526040902054600160a01b900460ff1660028111156105ed576105ed611171565b1461060b576040516301da8d1f60e51b815260040160405180910390fd5b6000828152600160208181526040808420805493015460ff841685526002909252909220549091906001600160a01b031661064a878388888886610b77565b610669866000908152602081905260409020805460ff19166001179055565b60008581526003602090815260408083208a8452909152812080549161068e8361122f565b919050555050505050505050565b6004602052600090815260409020805460018201546002830180546001600160a01b03841694600160a01b90940460ff169391906106d990611256565b80601f016020809104026020016040519081016040528092919081815260200182805461070590611256565b80156107525780601f1061072757610100808354040283529160200191610752565b820191906000526020600020905b81548152906001019060200180831161073557829003601f168201915b5050505050905084565b60008181526004602052604090205481906001600160a01b0316331461079557604051637bfa4b9f60e01b815260040160405180910390fd5b6001600083815260046020526040902054600160a01b900460ff1660028111156107c1576107c1611171565b146107df576040516301da8d1f60e51b815260040160405180910390fd5b600082815260046020526040902080546002919060ff60a01b1916600160a01b836105b7565b60008281526001602052604090205460ff166000036108375760405163029f057960e01b815260040160405180910390fd5b600082815260016020526040908190209051630b4381fd60e11b815260048101919091526024810182905273fce83ef151de5e90fec9c72f5acc526b023a8c809063168703fa9060440160006040518083038186803b15801561089957600080fd5b505af41580156108ad573d6000803e3d6000fd5b505050600083815260016020818152604092839020909101548251858152918201819052925084917f03fd27265b7dd1f55558bedc22a58fa3b10afb1be776e614bd5a7ba7b949940691015b60405180910390a2505050565b60008681526001602052604090205460ff166000036109385760405163029f057960e01b815260040160405180910390fd5b600086815260016020526040908190209051630629596f60e01b815273fce83ef151de5e90fec9c72f5acc526b023a8c8091630629596f91610987919089908990899089908990600401611290565b60006040518083038186803b15801561099f57600080fd5b505af41580156109b3573d6000803e3d6000fd5b505050600087815260016020819052604082200154909150604080518881526020810183905291925088917fe270325ded177064d7bda473e6519ef40a291058c41286f71a6e4872f1e9ab5c910160405180910390a250505050505050565b6000600882604051602001610a2991815260200190565b60408051601f198184030181529190528051602090910120901c92915050565b7f30644e72e131a029b85045b68181585d2833e84879b9709143e1f593f00000018310610a895760405163530e3c6560e11b815260040160405180910390fd5b60008381526001602052604090205460ff1615610ab957604051638121725b60e01b815260040160405180910390fd5b6000838152600160205260409081902090516304257eed60e21b8152600481019190915260ff831660248201526044810182905273fce83ef151de5e90fec9c72f5acc526b023a8c8090631095fbb49060640160006040518083038186803b158015610b2457600080fd5b505af4158015610b38573d6000803e3d6000fd5b50506040805160ff86168152602081018590528693507fc3082aa494e9088c2c9f0fb62a0b6bd46e6699acb94cfba35be29b95a93f68c89250016108f9565b60008481526020819052604090205460ff1615610ba757604051632523419d60e21b815260040160405180910390fd5b6000610bb287610a12565b9050816001600160a01b0316635fe8c13b604051806040016040528086600060088110610be157610be1611219565b6020020135815260200186600160088110610bfe57610bfe611219565b6020020135905260408051608081018252878201359181019182529081906060820189600360200201358152508152602001604051806040016040528089600460088110610c4e57610c4e611219565b6020020135815260200189600560088110610c6b57610c6b611219565b60200201359052905260408051808201909152808860066020020135815260200188600760088110610c9f57610c9f611219565b602002013581525060405180608001604052808c81526020018b81526020018781526020018a8152506040518563ffffffff1660e01b8152600401610ce79493929190611344565b60006040518083038186803b158015610cff57600080fd5b505afa158015610d13573d6000803e3d6000fd5b5050505050505050505050565b828054610d2c90611256565b90600052602060002090601f016020900481019282610d4e5760008555610d94565b82601f10610d6757805160ff1916838001178555610d94565b82800160010185558215610d94579182015b82811115610d94578251825591602001919060010190610d79565b50610da0929150610dde565b5090565b828054828255906000526020600020908101928215610d945791602002820182811115610d94578251825591602001919060010190610d79565b5b80821115610da05760008155600101610ddf565b60008060408385031215610e0657600080fd5b50508035926020909101359150565b60008083601f840112610e2757600080fd5b50813567ffffffffffffffff811115610e3f57600080fd5b6020830191508360208260051b8501011115610e5a57600080fd5b9250929050565b60008060008060008060808789031215610e7a57600080fd5b8635955060208701359450604087013567ffffffffffffffff80821115610ea057600080fd5b610eac8a838b01610e15565b90965094506060890135915080821115610ec557600080fd5b50610ed289828a01610e15565b979a9699509497509295939492505050565b634e487b7160e01b600052604160045260246000fd5b604051601f8201601f1916810167ffffffffffffffff81118282101715610f2357610f23610ee4565b604052919050565b600082601f830112610f3c57600080fd5b8135602067ffffffffffffffff821115610f5857610f58610ee4565b8160051b610f67828201610efa565b9283528481018201928281019087851115610f8157600080fd5b83870192505b84831015610fa057823582529183019190830190610f87565b979650505050505050565b80356001600160a01b0381168114610fc257600080fd5b919050565b803560ff81168114610fc257600080fd5b60008060008060008060c08789031215610ff157600080fd5b8635955060208088013567ffffffffffffffff8082111561101157600080fd5b818a0191508a601f83011261102557600080fd5b81358181111561103757611037610ee4565b611049601f8201601f19168501610efa565b8181528c8583860101111561105d57600080fd5b81858501868301376000918101909401529196506040890135918083111561108457600080fd5b505061109289828a01610f2b565b9450506110a160608801610fab565b92506110af60808801610fc7565b915060a087013590509295509295509295565b6000602082840312156110d457600080fd5b5035919050565b602080825282518282018190526000919060409081850190868401855b8281101561111d578151805185528601518685015292840192908501906001016110f8565b5091979650505050505050565b60008060008061016080868803121561114257600080fd5b85359450602086013593506040860135925086818701111561116357600080fd5b509295919450926060019150565b634e487b7160e01b600052602160045260246000fd5b6001600160a01b038516815260006020600386106111b557634e487b7160e01b600052602160045260246000fd5b858184015284604084015260806060840152835180608085015260005b818110156111ee5785810183015185820160a0015282016111d2565b8181111561120057600060a083870101525b50601f01601f19169290920160a0019695505050505050565b634e487b7160e01b600052603260045260246000fd5b60006001820161124f57634e487b7160e01b600052601160045260246000fd5b5060010190565b600181811c9082168061126a57607f821691505b60208210810361128a57634e487b7160e01b600052602260045260246000fd5b50919050565b8681526000602087818401526080604084015285608084015260018060fb1b038611156112bc57600080fd5b8560051b808860a0860137830183810360a090810160608601528101859052859060009060c0015b8682101561130c5760ff6112f784610fc7565b168152918301916001919091019083016112e4565b9b9a5050505050505050505050565b8060005b600281101561133e57815184526020938401939091019060010161131f565b50505050565b6101808101611353828761131b565b60408083018660005b60028110156113835761137083835161131b565b918301916020919091019060010161135c565b5050505061139460c083018561131b565b61010082018360005b60048110156113bc57815183526020928301929091019060010161139d565b5050509594505050505056fea2646970667358221220c9922af2b779ec3701a565569422bd32bd80bb7c819969ab297cd4a455a345e064736f6c634300080d0033",
    "linkReferences": {}
  },
  "methodIdentifiers": {
    "Addvoter(uint256,uint256)": "1ae187a8",
    "NewVoteInstance(bytes32,string,bytes32[],address,uint8,uint256)": "37d6e3ff",
    "RemoveVoter(uint256,uint256,uint256[],uint8[])": "3143a178",
    "StartPoll(uint256)": "3eecf505",
    "VotesperProposal(uint256,bytes32)": "8d5d77ae",
    "castVote(bytes32,uint256,uint256,uint256[8])": "633f439d",
    "endPoll(uint256)": "f43b8778",
    "getDepth(uint256)": "75e618c9",
    "getNumberOfLeaves(uint256)": "b9c78c2b",
    "getRoot(uint256)": "9b24b3b0",
    "getlatestVotes(uint256)": "3c464bd3",
    "polls(uint256)": "ac2f0074"
  },
  "id": 16
}