{
  "abi": [
    {
      "inputs": [
        {
          "internalType": "uint256[]",
          "name": "_depths",
          "type": "uint256[]"
        },
        {
          "internalType": "address[]",
          "name": "_verifieraddresses",
          "type": "address[]"
        }
      ],
      "stateMutability": "payable",
      "type": "constructor"
    },
    {
      "inputs": [],
      "name": "ALREADY_STARTED",
      "type": "error"
    },
    {
      "inputs": [],
      "name": "INVALID",
      "type": "error"
    },
    {
      "inputs": [],
      "name": "INVALID_TIMESTAMP",
      "type": "error"
    },
    {
      "inputs": [],
      "name": "NOT_ADMIN",
      "type": "error"
    },
    {
      "inputs": [],
      "name": "NOT_ENOUGH_VOTES",
      "type": "error"
    },
    {
      "inputs": [],
      "name": "NOT_SAME_LENGTH",
      "type": "error"
    },
    {
      "inputs": [],
      "name": "Semaphore__GroupAlreadyExists",
      "type": "error"
    },
    {
      "inputs": [],
      "name": "Semaphore__GroupDoesNotExist",
      "type": "error"
    },
    {
      "inputs": [],
      "name": "Semaphore__GroupIdIsNotLessThanSnarkScalarField",
      "type": "error"
    },
    {
      "inputs": [],
      "name": "VALUE_NOT_SENT",
      "type": "error"
    },
    {
      "inputs": [],
      "name": "VOTING_ENDED",
      "type": "error"
    },
    {
      "inputs": [],
      "name": "VOTING_NOT_ENDED",
      "type": "error"
    },
    {
      "anonymous": false,
      "inputs": [
        {
          "indexed": true,
          "internalType": "uint256",
          "name": "groupId",
          "type": "uint256"
        },
        {
          "indexed": false,
          "internalType": "bytes32",
          "name": "vote",
          "type": "bytes32"
        }
      ],
      "name": "CastedVote",
      "type": "event"
    },
    {
      "anonymous": false,
      "inputs": [
        {
          "indexed": true,
          "internalType": "uint256",
          "name": "groupId",
          "type": "uint256"
        },
        {
          "indexed": false,
          "internalType": "uint8",
          "name": "depth",
          "type": "uint8"
        },
        {
          "indexed": false,
          "internalType": "uint256",
          "name": "zeroValue",
          "type": "uint256"
        }
      ],
      "name": "GroupCreated",
      "type": "event"
    },
    {
      "anonymous": false,
      "inputs": [
        {
          "indexed": true,
          "internalType": "uint256",
          "name": "groupId",
          "type": "uint256"
        },
        {
          "indexed": false,
          "internalType": "uint256",
          "name": "identityCommitment",
          "type": "uint256"
        },
        {
          "indexed": false,
          "internalType": "uint256",
          "name": "root",
          "type": "uint256"
        }
      ],
      "name": "MemberAdded",
      "type": "event"
    },
    {
      "anonymous": false,
      "inputs": [
        {
          "indexed": true,
          "internalType": "uint256",
          "name": "groupId",
          "type": "uint256"
        },
        {
          "indexed": false,
          "internalType": "uint256",
          "name": "identityCommitment",
          "type": "uint256"
        },
        {
          "indexed": false,
          "internalType": "uint256",
          "name": "root",
          "type": "uint256"
        }
      ],
      "name": "MemberRemoved",
      "type": "event"
    },
    {
      "anonymous": false,
      "inputs": [
        {
          "indexed": true,
          "internalType": "uint256",
          "name": "id",
          "type": "uint256"
        },
        {
          "indexed": true,
          "internalType": "bytes32",
          "name": "eventname",
          "type": "bytes32"
        },
        {
          "indexed": false,
          "internalType": "address",
          "name": "coordinator",
          "type": "address"
        },
        {
          "indexed": false,
          "internalType": "string",
          "name": "description",
          "type": "string"
        }
      ],
      "name": "NewProposal",
      "type": "event"
    },
    {
      "anonymous": false,
      "inputs": [
        {
          "indexed": false,
          "internalType": "uint256",
          "name": "nullifierHash",
          "type": "uint256"
        }
      ],
      "name": "NullifierHashAdded",
      "type": "event"
    },
    {
      "anonymous": false,
      "inputs": [
        {
          "indexed": true,
          "internalType": "uint256",
          "name": "groupId",
          "type": "uint256"
        },
        {
          "indexed": false,
          "internalType": "uint64",
          "name": "starttime",
          "type": "uint64"
        },
        {
          "indexed": false,
          "internalType": "uint64",
          "name": "endtime",
          "type": "uint64"
        }
      ],
      "name": "VoteStarts",
      "type": "event"
    },
    {
      "inputs": [
        {
          "internalType": "uint256",
          "name": "_pollId",
          "type": "uint256"
        },
        {
          "internalType": "uint256[]",
          "name": "_identitycommitment",
          "type": "uint256[]"
        }
      ],
      "name": "Addvoter",
      "outputs": [],
      "stateMutability": "nonpayable",
      "type": "function"
    },
    {
      "inputs": [
        {
          "internalType": "bytes32",
          "name": "_eventName",
          "type": "bytes32"
        },
        {
          "internalType": "string",
          "name": "_description",
          "type": "string"
        },
        {
          "internalType": "address[]",
          "name": "_grantees",
          "type": "address[]"
        },
        {
          "internalType": "address",
          "name": "_coordinator",
          "type": "address"
        },
        {
          "internalType": "uint8",
          "name": "_depth",
          "type": "uint8"
        },
        {
          "internalType": "uint256",
          "name": "_zerovalue",
          "type": "uint256"
        }
      ],
      "name": "NewVoteInstance",
      "outputs": [],
      "stateMutability": "payable",
      "type": "function"
    },
    {
      "inputs": [
        {
          "internalType": "uint256",
          "name": "_pollId",
          "type": "uint256"
        },
        {
          "internalType": "uint256",
          "name": "_identityCommitment",
          "type": "uint256"
        },
        {
          "internalType": "uint256[]",
          "name": "_proofSiblings",
          "type": "uint256[]"
        },
        {
          "internalType": "uint8[]",
          "name": "_proofPathIndices",
          "type": "uint8[]"
        }
      ],
      "name": "RemoveVoter",
      "outputs": [],
      "stateMutability": "nonpayable",
      "type": "function"
    },
    {
      "inputs": [
        {
          "internalType": "uint256",
          "name": "_pollId",
          "type": "uint256"
        },
        {
          "internalType": "uint64",
          "name": "_endtime",
          "type": "uint64"
        }
      ],
      "name": "StartPoll",
      "outputs": [],
      "stateMutability": "nonpayable",
      "type": "function"
    },
    {
      "inputs": [
        {
          "internalType": "uint256",
          "name": "",
          "type": "uint256"
        },
        {
          "internalType": "address",
          "name": "",
          "type": "address"
        }
      ],
      "name": "VotesperProposal",
      "outputs": [
        {
          "internalType": "uint256",
          "name": "",
          "type": "uint256"
        }
      ],
      "stateMutability": "view",
      "type": "function"
    },
    {
      "inputs": [
        {
          "internalType": "address[]",
          "name": "_vote",
          "type": "address[]"
        },
        {
          "internalType": "uint256[]",
          "name": "position",
          "type": "uint256[]"
        },
        {
          "internalType": "uint256",
          "name": "_nullifierHash",
          "type": "uint256"
        },
        {
          "internalType": "uint256",
          "name": "_pollId",
          "type": "uint256"
        },
        {
          "internalType": "uint256[8]",
          "name": "_proof",
          "type": "uint256[8]"
        }
      ],
      "name": "castVote",
      "outputs": [],
      "stateMutability": "nonpayable",
      "type": "function"
    },
    {
      "inputs": [
        {
          "internalType": "uint256",
          "name": "_pollId",
          "type": "uint256"
        }
      ],
      "name": "disperse",
      "outputs": [],
      "stateMutability": "nonpayable",
      "type": "function"
    },
    {
      "inputs": [
        {
          "internalType": "uint256",
          "name": "groupId",
          "type": "uint256"
        }
      ],
      "name": "getDepth",
      "outputs": [
        {
          "internalType": "uint256",
          "name": "",
          "type": "uint256"
        }
      ],
      "stateMutability": "view",
      "type": "function"
    },
    {
      "inputs": [
        {
          "internalType": "uint256",
          "name": "groupId",
          "type": "uint256"
        }
      ],
      "name": "getNumberOfLeaves",
      "outputs": [
        {
          "internalType": "uint256",
          "name": "",
          "type": "uint256"
        }
      ],
      "stateMutability": "view",
      "type": "function"
    },
    {
      "inputs": [
        {
          "internalType": "uint256",
          "name": "groupId",
          "type": "uint256"
        }
      ],
      "name": "getRoot",
      "outputs": [
        {
          "internalType": "uint256",
          "name": "",
          "type": "uint256"
        }
      ],
      "stateMutability": "view",
      "type": "function"
    },
    {
      "inputs": [
        {
          "internalType": "uint256",
          "name": "_pollId",
          "type": "uint256"
        }
      ],
      "name": "getlatestVotes",
      "outputs": [
        {
          "components": [
            {
              "internalType": "address",
              "name": "IndividualGrantee",
              "type": "address"
            },
            {
              "internalType": "uint256",
              "name": "votes",
              "type": "uint256"
            }
          ],
          "internalType": "struct ZkVote.Results[]",
          "name": "",
          "type": "tuple[]"
        }
      ],
      "stateMutability": "view",
      "type": "function"
    },
    {
      "inputs": [
        {
          "internalType": "uint256",
          "name": "",
          "type": "uint256"
        }
      ],
      "name": "nullifierHashes",
      "outputs": [
        {
          "internalType": "bool",
          "name": "",
          "type": "bool"
        }
      ],
      "stateMutability": "view",
      "type": "function"
    },
    {
      "inputs": [
        {
          "internalType": "uint256",
          "name": "",
          "type": "uint256"
        }
      ],
      "name": "polls",
      "outputs": [
        {
          "internalType": "address",
          "name": "coordinator",
          "type": "address"
        },
        {
          "internalType": "enum ZkVote.PollState",
          "name": "pollstate",
          "type": "uint8"
        },
        {
          "internalType": "uint64",
          "name": "endtime",
          "type": "uint64"
        },
        {
          "internalType": "bytes32",
          "name": "pollname",
          "type": "bytes32"
        },
        {
          "internalType": "string",
          "name": "description",
          "type": "string"
        },
        {
          "internalType": "uint256",
          "name": "fund",
          "type": "uint256"
        }
      ],
      "stateMutability": "view",
      "type": "function"
    },
    {
      "inputs": [
        {
          "internalType": "uint256",
          "name": "",
          "type": "uint256"
        }
      ],
      "name": "verifiers",
      "outputs": [
        {
          "internalType": "contract IVerifier",
          "name": "",
          "type": "address"
        }
      ],
      "stateMutability": "view",
      "type": "function"
    }
  ],
  "bytecode": {
    "object": "0x608060405260405162001e9938038062001e998339810160408190526200002691620001d6565b80518251146200004957604051637700949960e11b815260040160405180910390fd5b815160005b81811015620000d3578281815181106200006c576200006c6200029d565b6020026020010151600260008684815181106200008d576200008d6200029d565b6020026020010151815260200190815260200160002060006101000a8154816001600160a01b0302191690836001600160a01b031602179055508060010190506200004e565b50505050620002b3565b634e487b7160e01b600052604160045260246000fd5b604051601f8201601f191681016001600160401b03811182821017156200011e576200011e620000dd565b604052919050565b60006001600160401b03821115620001425762000142620000dd565b5060051b60200190565b600082601f8301126200015e57600080fd5b8151602062000177620001718362000126565b620000f3565b82815260059290921b840181019181810190868411156200019757600080fd5b8286015b84811015620001cb5780516001600160a01b0381168114620001bd5760008081fd5b83529183019183016200019b565b509695505050505050565b60008060408385031215620001ea57600080fd5b82516001600160401b03808211156200020257600080fd5b818501915085601f8301126200021757600080fd5b815160206200022a620001718362000126565b82815260059290921b840181019181810190898411156200024a57600080fd5b948201945b838610156200026a578551825294820194908201906200024f565b918801519196509093505050808211156200028457600080fd5b5062000293858286016200014c565b9150509250929050565b634e487b7160e01b600052603260045260246000fd5b611bd680620002c36000396000f3fe6080604052600436106100dd5760003560e01c80639b24b3b01161007f578063b9c78c2b11610059578063b9c78c2b146102b5578063bd1b5e7c146102e5578063c6ffbcde1461031d578063c92482871461033d57600080fd5b80639b24b3b014610204578063ac1eff6814610235578063ac2f00741461028357600080fd5b8063420aca5f116100bb578063420aca5f146101765780635744050f146101965780637263578c146101b657806375e618c9146101c957600080fd5b80631f79a1e9146100e25780633143a178146101275780633c464bd314610149575b600080fd5b3480156100ee57600080fd5b506101126100fd366004611391565b60006020819052908152604090205460ff1681565b60405190151581526020015b60405180910390f35b34801561013357600080fd5b506101476101423660046113f5565b61035d565b005b34801561015557600080fd5b50610169610164366004611391565b6103f6565b60405161011e9190611477565b34801561018257600080fd5b50610147610191366004611391565b610514565b3480156101a257600080fd5b506101476101b13660046114cf565b610717565b6101476101c43660046115ae565b61096c565b3480156101d557600080fd5b506101f66101e4366004611391565b60009081526001602052604090205490565b60405190815260200161011e565b34801561021057600080fd5b506101f661021f366004611391565b6000908152600160208190526040909120015490565b34801561024157600080fd5b5061026b610250366004611391565b6002602052600090815260409020546001600160a01b031681565b6040516001600160a01b03909116815260200161011e565b34801561028f57600080fd5b506102a361029e366004611391565b610b1a565b60405161011e9695949392919061171a565b3480156102c157600080fd5b506101f66102d0366004611391565b60009081526001602052604090206002015490565b3480156102f157600080fd5b506101f6610300366004611788565b600360209081526000928352604080842090915290825290205481565b34801561032957600080fd5b506101476103383660046117b4565b610bf1565b34801561034957600080fd5b506101476103583660046117ff565b610cb9565b60008681526004602052604090205486906001600160a01b0316331461039657604051636209c08b60e01b815260040160405180910390fd5b60008088815260046020526040902054600160a01b900460ff1660018111156103c1576103c16116be565b146103df57604051637c61cfe160e11b815260040160405180910390fd5b6103ed878787878787610dbc565b50505050505050565b600081815260046020526040812060030154606091816001600160401b038111156104235761042361156b565b60405190808252806020026020018201604052801561046857816020015b60408051808201909152600080825260208201528152602001906001900390816104415790505b50905060005b8281101561050c5760008581526004602052604081206003018054839081106104995761049961183b565b60009182526020808320909101546040805180820182526001600160a01b039092168083528a8552600384528185208186528452932054918101919091528451919250908490849081106104ef576104ef61183b565b6020026020010181905250508061050590611867565b905061046e565b509392505050565b600081815260046020526040812060038101549054600160a81b90046001600160401b031642101561055957604051633b64027560e01b815260040160405180910390fd5b60008381526004602081905260408220015490826001600160401b038111156105845761058461156b565b6040519080825280602002602001820160405280156105ad578160200160208202803683370190505b50905060006105bb866103f6565b905060005b8486101561063a578186815181106105da576105da61183b565b6020026020010151602001518387815181106105f8576105f861183b565b6020026020010181815250508186815181106106165761061661183b565b6020026020010151602001518161062d9190611880565b90508560010195506105c0565b60005b8581101561070d5760008084838151811061065a5761065a61183b565b6020026020010151600001516001600160a01b0316848785815181106106825761068261183b565b6020026020010151896106959190611899565b61069f91906118b0565b604051600081818185875af1925050503d80600081146106db576040519150601f19603f3d011682016040523d82523d6000602084013e6106e0565b606091505b5091509150816107035760405163356fe56160e21b815260040160405180910390fd5b505060010161063d565b5050505050505050565b60008281526004602052604090205442600160a81b9091046001600160401b03161015610757576040516370bc763160e01b815260040160405180910390fd5b85841461077757604051637700949960e11b815260040160405180910390fd5b600082815260016020818152604080842080549301548385526002909252832054919290916001600160a01b031690610818908b908b90816107bb576107bb61183b565b90506020020160208101906107d091906118d2565b6040516020016107f8919060609190911b6bffffffffffffffffffffffff1916815260140190565b604051602081830303815290604052805190602001208388888886610ec5565b610837866000908152602081905260409020805460ff19166001179055565b600087815b8181101561093b578a8a828181106108565761085661183b565b905060200201358b8b8381811061086f5761086f61183b565b905060200201356108809190611899565b6000898152600360205260408120908f8f858181106108a1576108a161183b565b90506020020160208101906108b691906118d2565b6001600160a01b03166001600160a01b0316815260200190815260200160002060008282546108e59190611880565b909155508b90508a828181106108fd576108fd61183b565b905060200201358b8b838181106109165761091661183b565b905060200201356109279190611899565b6109319084611880565b925060010161083c565b606483111561095d57604051638fdde2cb60e01b815260040160405180910390fd5b50505050505050505050505050565b6000610977886110c0565b90506109848184846110f7565b6040805160e08101825260006020808301829052828401829052606060a0840181905260c08401929092526001600160a01b03881683529082018b9052608082018a9052825188820280820183019094528881529192899189918291850190849080828437600092018290525060a086019490945250503460c084015250828152600460209081526040909120825181546001600160a01b031981166001600160a01b039092169182178355928401518493909183916001600160a81b03191617600160a01b836001811115610a5c57610a5c6116be565b0217905550604082015181546001600160401b03909116600160a81b0267ffffffffffffffff60a81b199091161781556060820151600182015560808201516002820190610aaa908261197d565b5060a08201518051610ac6916003840191602090910190611317565b5060c0820151816004015590505088827f40b5355208340c3f3f4d7d5a625416bce4b69d9f97cc17f530daf7d5d4ced8ac878b604051610b07929190611a3c565b60405180910390a3505050505050505050565b6004602052600090815260409020805460018201546002830180546001600160a01b03841694600160a01b850460ff1694600160a81b90046001600160401b031693929091610b68906118f4565b80601f0160208091040260200160405190810160405280929190818152602001828054610b94906118f4565b8015610be15780601f10610bb657610100808354040283529160200191610be1565b820191906000526020600020905b815481529060010190602001808311610bc457829003601f168201915b5050505050908060040154905086565b60008381526004602052604090205483906001600160a01b03163314610c2a57604051636209c08b60e01b815260040160405180910390fd5b60008085815260046020526040902054600160a01b900460ff166001811115610c5557610c556116be565b14610c7357604051637c61cfe160e11b815260040160405180910390fd5b60005b82811015610cb257610ca085858584818110610c9457610c9461183b565b90506020020135611222565b80610caa81611867565b915050610c76565b5050505050565b60008281526004602052604081208054909190600160a01b900460ff166001811115610ce757610ce76116be565b14610d0557604051637c61cfe160e11b815260040160405180910390fd5b6000838152600460205260409020805460ff60a01b1916600160a01b179055426001600160401b0383161015610d4e5760405163118818d160e01b815260040160405180910390fd5b805467ffffffffffffffff60a81b1916600160a81b6001600160401b0384811691820292909217835560408051429093168352602083019190915284917fbf33d75a411657e8190a3e1cb2d7ca4705a4f7f84697d327f815fafb4c4fae9591015b60405180910390a2505050565b600086815260016020526040902054600003610deb5760405163029f057960e01b815260040160405180910390fd5b600086815260016020526040908190209051630629596f60e01b815273d6729903227dff493bf23bf889dc73b853655abe91630629596f91610e3a919089908990899089908990600401611a68565b60006040518083038186803b158015610e5257600080fd5b505af4158015610e66573d6000803e3d6000fd5b505050600087815260016020819052604082200154909150604080518881526020810183905291925088917fe270325ded177064d7bda473e6519ef40a291058c41286f71a6e4872f1e9ab5c910160405180910390a250505050505050565b60008481526020819052604090205460ff1615610f475760405162461bcd60e51b815260206004820152603660248201527f53656d6170686f7265436f72653a20796f752063616e6e6f7420757365207468604482015275652073616d65206e756c6c696669657220747769636560501b606482015260840160405180910390fd5b6000610f52876110c0565b9050816001600160a01b0316635fe8c13b604051806040016040528086600060088110610f8157610f8161183b565b6020020135815260200186600160088110610f9e57610f9e61183b565b6020020135905260408051608081018252878201359181019182529081906060820189600360200201358152508152602001604051806040016040528089600460088110610fee57610fee61183b565b602002013581526020018960056008811061100b5761100b61183b565b6020020135905290526040805180820190915280886006602002013581526020018860076008811061103f5761103f61183b565b602002013581525060405180608001604052808c81526020018b81526020018781526020018a8152506040518563ffffffff1660e01b81526004016110879493929190611b1c565b60006040518083038186803b15801561109f57600080fd5b505afa1580156110b3573d6000803e3d6000fd5b5050505050505050505050565b60006008826040516020016110d791815260200190565b60408051601f198184030181529190528051602090910120901c92915050565b7f30644e72e131a029b85045b68181585d2833e84879b9709143e1f593f000000183106111375760405163530e3c6560e11b815260040160405180910390fd5b6000838152600160205260409020541561116457604051638121725b60e01b815260040160405180910390fd5b6000838152600160205260409081902090516304257eed60e21b8152600481019190915260ff831660248201526044810182905273d6729903227dff493bf23bf889dc73b853655abe90631095fbb49060640160006040518083038186803b1580156111cf57600080fd5b505af41580156111e3573d6000803e3d6000fd5b50506040805160ff86168152602081018590528693507fc3082aa494e9088c2c9f0fb62a0b6bd46e6699acb94cfba35be29b95a93f68c8925001610daf565b6000828152600160205260409020546000036112515760405163029f057960e01b815260040160405180910390fd5b600082815260016020526040908190209051630b4381fd60e11b815260048101919091526024810182905273d6729903227dff493bf23bf889dc73b853655abe9063168703fa9060440160006040518083038186803b1580156112b357600080fd5b505af41580156112c7573d6000803e3d6000fd5b505050600083815260016020818152604092839020909101548251858152918201819052925084917f03fd27265b7dd1f55558bedc22a58fa3b10afb1be776e614bd5a7ba7b94994069101610daf565b82805482825590600052602060002090810192821561136c579160200282015b8281111561136c57825182546001600160a01b0319166001600160a01b03909116178255602090920191600190910190611337565b5061137892915061137c565b5090565b5b80821115611378576000815560010161137d565b6000602082840312156113a357600080fd5b5035919050565b60008083601f8401126113bc57600080fd5b5081356001600160401b038111156113d357600080fd5b6020830191508360208260051b85010111156113ee57600080fd5b9250929050565b6000806000806000806080878903121561140e57600080fd5b863595506020870135945060408701356001600160401b038082111561143357600080fd5b61143f8a838b016113aa565b9096509450606089013591508082111561145857600080fd5b5061146589828a016113aa565b979a9699509497509295939492505050565b602080825282518282018190526000919060409081850190868401855b828110156114c257815180516001600160a01b03168552860151868501529284019290850190600101611494565b5091979650505050505050565b600080600080600080600061018080898b0312156114ec57600080fd5b88356001600160401b038082111561150357600080fd5b61150f8c838d016113aa565b909a50985060208b013591508082111561152857600080fd5b506115358b828c016113aa565b90975095505060408901359350606089013592508089018a101561155857600080fd5b5060808801905092959891949750929550565b634e487b7160e01b600052604160045260246000fd5b80356001600160a01b038116811461159857600080fd5b919050565b803560ff8116811461159857600080fd5b600080600080600080600060c0888a0312156115c957600080fd5b8735965060208801356001600160401b03808211156115e757600080fd5b818a0191508a601f8301126115fb57600080fd5b81358181111561160d5761160d61156b565b604051601f8201601f19908116603f011681019083821181831017156116355761163561156b565b816040528281528d602084870101111561164e57600080fd5b82602086016020830137600060208483010152809a5050505060408a013591508082111561167b57600080fd5b506116888a828b016113aa565b909650945061169b905060608901611581565b92506116a96080890161159d565b915060a0880135905092959891949750929550565b634e487b7160e01b600052602160045260246000fd5b6000815180845260005b818110156116fa576020818501810151868301820152016116de565b506000602082860101526020601f19601f83011685010191505092915050565b6001600160a01b038716815260006002871061174657634e487b7160e01b600052602160045260246000fd5b8660208301526001600160401b038616604083015284606083015260c0608083015261177560c08301856116d4565b90508260a0830152979650505050505050565b6000806040838503121561179b57600080fd5b823591506117ab60208401611581565b90509250929050565b6000806000604084860312156117c957600080fd5b8335925060208401356001600160401b038111156117e657600080fd5b6117f2868287016113aa565b9497909650939450505050565b6000806040838503121561181257600080fd5b8235915060208301356001600160401b038116811461183057600080fd5b809150509250929050565b634e487b7160e01b600052603260045260246000fd5b634e487b7160e01b600052601160045260246000fd5b60006001820161187957611879611851565b5060010190565b8082018082111561189357611893611851565b92915050565b808202811582820484141761189357611893611851565b6000826118cd57634e487b7160e01b600052601260045260246000fd5b500490565b6000602082840312156118e457600080fd5b6118ed82611581565b9392505050565b600181811c9082168061190857607f821691505b60208210810361192857634e487b7160e01b600052602260045260246000fd5b50919050565b601f82111561197857600081815260208120601f850160051c810160208610156119555750805b601f850160051c820191505b8181101561197457828155600101611961565b5050505b505050565b81516001600160401b038111156119965761199661156b565b6119aa816119a484546118f4565b8461192e565b602080601f8311600181146119df57600084156119c75750858301515b600019600386901b1c1916600185901b178555611974565b600085815260208120601f198616915b82811015611a0e578886015182559484019460019091019084016119ef565b5085821015611a2c5787850151600019600388901b60f8161c191681555b5050505050600190811b01905550565b6001600160a01b0383168152604060208201819052600090611a60908301846116d4565b949350505050565b8681526000602087818401526080604084015285608084015260018060fb1b03861115611a9457600080fd5b8560051b808860a0860137830183810360a090810160608601528101859052859060009060c0015b86821015611ae45760ff611acf8461159d565b16815291830191600191909101908301611abc565b9b9a5050505050505050505050565b8060005b6002811015611b16578151845260209384019390910190600101611af7565b50505050565b6101808101611b2b8287611af3565b60408083018660005b6002811015611b5b57611b48838351611af3565b9183019160209190910190600101611b34565b50505050611b6c60c0830185611af3565b61010082018360005b6004811015611b94578151835260209283019290910190600101611b75565b5050509594505050505056fea26469706673582212205e112c33c7e14a52d65bcc598ca24f9e243dcab73de8ae4d3c22a4260fceeddd64736f6c63430008110033",
    "linkReferences": {}
  },
  "methodIdentifiers": {
    "Addvoter(uint256,uint256[])": "c6ffbcde",
    "NewVoteInstance(bytes32,string,address[],address,uint8,uint256)": "7263578c",
    "RemoveVoter(uint256,uint256,uint256[],uint8[])": "3143a178",
    "StartPoll(uint256,uint64)": "c9248287",
    "VotesperProposal(uint256,address)": "bd1b5e7c",
    "castVote(address[],uint256[],uint256,uint256,uint256[8])": "5744050f",
    "disperse(uint256)": "420aca5f",
    "getDepth(uint256)": "75e618c9",
    "getNumberOfLeaves(uint256)": "b9c78c2b",
    "getRoot(uint256)": "9b24b3b0",
    "getlatestVotes(uint256)": "3c464bd3",
    "nullifierHashes(uint256)": "1f79a1e9",
    "polls(uint256)": "ac2f0074",
    "verifiers(uint256)": "ac1eff68"
  },
  "id": 1
}