{
  "abi": [
    {
      "inputs": [
        {
          "internalType": "uint256[]",
          "name": "_depths",
          "type": "uint256[]"
        },
        {
          "internalType": "address[]",
          "name": "_verifieraddresses",
          "type": "address[]"
        }
      ],
      "stateMutability": "payable",
      "type": "constructor"
    },
    {
      "inputs": [],
      "name": "NotAdmin",
      "type": "error"
    },
    {
      "inputs": [],
      "name": "NotSamelength",
      "type": "error"
    },
    {
      "inputs": [],
      "name": "Semaphore__GroupAlreadyExists",
      "type": "error"
    },
    {
      "inputs": [],
      "name": "Semaphore__GroupDoesNotExist",
      "type": "error"
    },
    {
      "inputs": [],
      "name": "Semaphore__GroupIdIsNotLessThanSnarkScalarField",
      "type": "error"
    },
    {
      "inputs": [],
      "name": "VotingAlreadyStarted",
      "type": "error"
    },
    {
      "anonymous": false,
      "inputs": [
        {
          "indexed": true,
          "internalType": "uint256",
          "name": "groupId",
          "type": "uint256"
        },
        {
          "indexed": false,
          "internalType": "bytes32",
          "name": "vote",
          "type": "bytes32"
        }
      ],
      "name": "CastedVote",
      "type": "event"
    },
    {
      "anonymous": false,
      "inputs": [
        {
          "indexed": true,
          "internalType": "uint256",
          "name": "groupId",
          "type": "uint256"
        },
        {
          "indexed": false,
          "internalType": "uint8",
          "name": "depth",
          "type": "uint8"
        },
        {
          "indexed": false,
          "internalType": "uint256",
          "name": "zeroValue",
          "type": "uint256"
        }
      ],
      "name": "GroupCreated",
      "type": "event"
    },
    {
      "anonymous": false,
      "inputs": [
        {
          "indexed": true,
          "internalType": "uint256",
          "name": "groupId",
          "type": "uint256"
        },
        {
          "indexed": false,
          "internalType": "uint256",
          "name": "identityCommitment",
          "type": "uint256"
        },
        {
          "indexed": false,
          "internalType": "uint256",
          "name": "root",
          "type": "uint256"
        }
      ],
      "name": "MemberAdded",
      "type": "event"
    },
    {
      "anonymous": false,
      "inputs": [
        {
          "indexed": true,
          "internalType": "uint256",
          "name": "groupId",
          "type": "uint256"
        },
        {
          "indexed": false,
          "internalType": "uint256",
          "name": "identityCommitment",
          "type": "uint256"
        },
        {
          "indexed": false,
          "internalType": "uint256",
          "name": "root",
          "type": "uint256"
        }
      ],
      "name": "MemberRemoved",
      "type": "event"
    },
    {
      "anonymous": false,
      "inputs": [
        {
          "indexed": true,
          "internalType": "uint256",
          "name": "id",
          "type": "uint256"
        },
        {
          "indexed": true,
          "internalType": "bytes32",
          "name": "eventname",
          "type": "bytes32"
        }
      ],
      "name": "NewProposal",
      "type": "event"
    },
    {
      "anonymous": false,
      "inputs": [
        {
          "indexed": false,
          "internalType": "uint256",
          "name": "nullifierHash",
          "type": "uint256"
        }
      ],
      "name": "NullifierHashAdded",
      "type": "event"
    },
    {
      "anonymous": false,
      "inputs": [
        {
          "indexed": true,
          "internalType": "uint256",
          "name": "groupId",
          "type": "uint256"
        },
        {
          "indexed": false,
          "internalType": "uint256",
          "name": "time",
          "type": "uint256"
        }
      ],
      "name": "VoteEnds",
      "type": "event"
    },
    {
      "anonymous": false,
      "inputs": [
        {
          "indexed": true,
          "internalType": "uint256",
          "name": "groupId",
          "type": "uint256"
        },
        {
          "indexed": false,
          "internalType": "uint256",
          "name": "time",
          "type": "uint256"
        }
      ],
      "name": "VoteStarts",
      "type": "event"
    },
    {
      "inputs": [
        {
          "internalType": "uint256",
          "name": "_pollId",
          "type": "uint256"
        },
        {
          "internalType": "uint256",
          "name": "_identitycommitment",
          "type": "uint256"
        }
      ],
      "name": "Addvoter",
      "outputs": [],
      "stateMutability": "nonpayable",
      "type": "function"
    },
    {
      "inputs": [
        {
          "internalType": "bytes32",
          "name": "_eventName",
          "type": "bytes32"
        },
        {
          "internalType": "string",
          "name": "_description",
          "type": "string"
        },
        {
          "internalType": "bytes32[]",
          "name": "_proposals",
          "type": "bytes32[]"
        },
        {
          "internalType": "address",
          "name": "_coordinator",
          "type": "address"
        },
        {
          "internalType": "uint8",
          "name": "_depth",
          "type": "uint8"
        },
        {
          "internalType": "uint256",
          "name": "_zerovalue",
          "type": "uint256"
        }
      ],
      "name": "NewVoteInstance",
      "outputs": [],
      "stateMutability": "nonpayable",
      "type": "function"
    },
    {
      "inputs": [
        {
          "internalType": "uint256",
          "name": "_pollId",
          "type": "uint256"
        },
        {
          "internalType": "uint256",
          "name": "_identityCommitment",
          "type": "uint256"
        },
        {
          "internalType": "uint256[]",
          "name": "_proofSiblings",
          "type": "uint256[]"
        },
        {
          "internalType": "uint8[]",
          "name": "_proofPathIndices",
          "type": "uint8[]"
        }
      ],
      "name": "RemoveVoter",
      "outputs": [],
      "stateMutability": "nonpayable",
      "type": "function"
    },
    {
      "inputs": [
        {
          "internalType": "uint256",
          "name": "_pollId",
          "type": "uint256"
        }
      ],
      "name": "StartPoll",
      "outputs": [],
      "stateMutability": "nonpayable",
      "type": "function"
    },
    {
      "inputs": [
        {
          "internalType": "uint256",
          "name": "",
          "type": "uint256"
        },
        {
          "internalType": "bytes32",
          "name": "",
          "type": "bytes32"
        }
      ],
      "name": "VotesperProposal",
      "outputs": [
        {
          "internalType": "uint256",
          "name": "",
          "type": "uint256"
        }
      ],
      "stateMutability": "view",
      "type": "function"
    },
    {
      "inputs": [
        {
          "internalType": "bytes32",
          "name": "_vote",
          "type": "bytes32"
        },
        {
          "internalType": "uint256",
          "name": "_nullifierHash",
          "type": "uint256"
        },
        {
          "internalType": "uint256",
          "name": "_pollId",
          "type": "uint256"
        },
        {
          "internalType": "uint256",
          "name": "_externalNullifier",
          "type": "uint256"
        },
        {
          "internalType": "uint256[8]",
          "name": "_proof",
          "type": "uint256[8]"
        }
      ],
      "name": "castVote",
      "outputs": [],
      "stateMutability": "nonpayable",
      "type": "function"
    },
    {
      "inputs": [
        {
          "internalType": "uint256",
          "name": "_pollId",
          "type": "uint256"
        }
      ],
      "name": "endPoll",
      "outputs": [],
      "stateMutability": "nonpayable",
      "type": "function"
    },
    {
      "inputs": [
        {
          "internalType": "uint256",
          "name": "groupId",
          "type": "uint256"
        }
      ],
      "name": "getDepth",
      "outputs": [
        {
          "internalType": "uint256",
          "name": "",
          "type": "uint256"
        }
      ],
      "stateMutability": "view",
      "type": "function"
    },
    {
      "inputs": [
        {
          "internalType": "uint256",
          "name": "groupId",
          "type": "uint256"
        }
      ],
      "name": "getNumberOfLeaves",
      "outputs": [
        {
          "internalType": "uint256",
          "name": "",
          "type": "uint256"
        }
      ],
      "stateMutability": "view",
      "type": "function"
    },
    {
      "inputs": [
        {
          "internalType": "uint256",
          "name": "groupId",
          "type": "uint256"
        }
      ],
      "name": "getRoot",
      "outputs": [
        {
          "internalType": "uint256",
          "name": "",
          "type": "uint256"
        }
      ],
      "stateMutability": "view",
      "type": "function"
    },
    {
      "inputs": [
        {
          "internalType": "uint256",
          "name": "_pollId",
          "type": "uint256"
        }
      ],
      "name": "getlatestVotes",
      "outputs": [
        {
          "components": [
            {
              "internalType": "bytes32",
              "name": "proposals",
              "type": "bytes32"
            },
            {
              "internalType": "uint256",
              "name": "votes",
              "type": "uint256"
            }
          ],
          "internalType": "struct ZkVote.Results[]",
          "name": "",
          "type": "tuple[]"
        }
      ],
      "stateMutability": "view",
      "type": "function"
    },
    {
      "inputs": [
        {
          "internalType": "uint256",
          "name": "_id",
          "type": "uint256"
        }
      ],
      "name": "getproposals",
      "outputs": [
        {
          "internalType": "bytes32[]",
          "name": "",
          "type": "bytes32[]"
        }
      ],
      "stateMutability": "view",
      "type": "function"
    },
    {
      "inputs": [
        {
          "internalType": "uint256",
          "name": "",
          "type": "uint256"
        }
      ],
      "name": "polls",
      "outputs": [
        {
          "internalType": "address",
          "name": "coordinator",
          "type": "address"
        },
        {
          "internalType": "enum ZkVote.PollState",
          "name": "pollstate",
          "type": "uint8"
        },
        {
          "internalType": "bytes32",
          "name": "pollname",
          "type": "bytes32"
        },
        {
          "internalType": "string",
          "name": "description",
          "type": "string"
        }
      ],
      "stateMutability": "view",
      "type": "function"
    },
    {
      "inputs": [
        {
          "internalType": "uint256",
          "name": "",
          "type": "uint256"
        }
      ],
      "name": "verifiers",
      "outputs": [
        {
          "internalType": "contract IVerifier",
          "name": "",
          "type": "address"
        }
      ],
      "stateMutability": "view",
      "type": "function"
    }
  ],
  "bytecode": {
    "object": "0x6080604052604051620018e6380380620018e68339810160408190526200002691620001e0565b805182511462000049576040516368594ec360e11b815260040160405180910390fd5b815160005b81811015620000dd578281815181106200006c576200006c620002a7565b6020026020010151600260008684815181106200008d576200008d620002a7565b6020026020010151815260200190815260200160002060006101000a8154816001600160a01b0302191690836001600160a01b031602179055508080620000d490620002bd565b9150506200004e565b50505050620002e5565b634e487b7160e01b600052604160045260246000fd5b604051601f8201601f191681016001600160401b0381118282101715620001285762000128620000e7565b604052919050565b60006001600160401b038211156200014c576200014c620000e7565b5060051b60200190565b600082601f8301126200016857600080fd5b81516020620001816200017b8362000130565b620000fd565b82815260059290921b84018101918181019086841115620001a157600080fd5b8286015b84811015620001d55780516001600160a01b0381168114620001c75760008081fd5b8352918301918301620001a5565b509695505050505050565b60008060408385031215620001f457600080fd5b82516001600160401b03808211156200020c57600080fd5b818501915085601f8301126200022157600080fd5b81516020620002346200017b8362000130565b82815260059290921b840181019181810190898411156200025457600080fd5b948201945b83861015620002745785518252948201949082019062000259565b918801519196509093505050808211156200028e57600080fd5b506200029d8582860162000156565b9150509250929050565b634e487b7160e01b600052603260045260246000fd5b600060018201620002de57634e487b7160e01b600052601160045260246000fd5b5060010190565b6115f180620002f56000396000f3fe608060405234801561001057600080fd5b50600436106100ea5760003560e01c80638d5d77ae1161008c578063ac1eff6811610066578063ac1eff6814610219578063ac2f00741461025a578063b9c78c2b1461027d578063f43b8778146102a057600080fd5b80638d5d77ae146101b75780639783568e146101e25780639b24b3b0146101f557600080fd5b806337d6e3ff116100c857806337d6e3ff146101405780633c464bd3146101535780633eecf5051461017357806375e618c91461018657600080fd5b806312789fe1146100ef5780631ae187a8146101185780633143a1781461012d575b600080fd5b6101026100fd366004610f96565b6102b3565b60405161010f9190610faf565b60405180910390f35b61012b610126366004610ff3565b610318565b005b61012b61013b366004611061565b610360565b61012b61014e3660046111d8565b6103f9565b610166610161366004610f96565b61053c565b60405161010f91906112c2565b61012b610181366004610f96565b61064f565b6101a9610194366004610f96565b60009081526001602052604090205460ff1690565b60405190815260200161010f565b6101a96101c5366004610ff3565b600360209081526000928352604080842090915290825290205481565b61012b6101f0366004611311565b6106e6565b6101a9610203366004610f96565b6000908152600160208190526040909120015490565b610242610227366004610f96565b6002602052600090815260409020546001600160a01b031681565b6040516001600160a01b03909116815260200161010f565b61026d610268366004610f96565b6107c1565b60405161010f949392919061137a565b6101a961028b366004610f96565b60009081526001602052604090206002015490565b61012b6102ae366004610f96565b610881565b60008181526004602090815260409182902060030180548351818402810184019094528084526060939283018282801561030c57602002820191906000526020600020905b8154815260200190600101908083116102f8575b50505050509050919050565b60008281526004602052604090205482906001600160a01b0316331461035157604051637bfa4b9f60e01b815260040160405180910390fd5b61035b8383610956565b505050565b60008681526004602052604090205486906001600160a01b0316331461039957604051637bfa4b9f60e01b815260040160405180910390fd5b60008088815260046020526040902054600160a01b900460ff1660028111156103c4576103c4611364565b146103e2576040516301da8d1f60e51b815260040160405180910390fd5b6103f0878787878787610a57565b50505050505050565b600061040487610b63565b9050610411818484610b9a565b6104426040805160a08101909152600080825260208201908152600060208201526060604082018190529081015290565b6001600160a01b0385811682526000602080840182815260408086018d9052606086018c9052608086018b9052868452600490925291208351815493166001600160a01b0319841681178255915184939192909183916001600160a81b031990911617600160a01b8360028111156104bc576104bc611364565b021790555060408201516001820155606082015180516104e6916002840191602090910190610ec3565b5060808201518051610502916003840191602090910190610f47565b505060405189915083907ff0b2ac8f7edb7f69b99729b985a70c27bafd0f86fedc1bb17c3da61706355fbd90600090a35050505050505050565b6000818152600460205260408120600301546060918167ffffffffffffffff81111561056a5761056a6110e4565b6040519080825280602002602001820160405280156105af57816020015b60408051808201909152600080825260208201528152602001906001900390816105885790505b50905060005b828110156106475760008581526004602052604081206003018054839081106105e0576105e061140c565b60009182526020808320909101546040805180820182528281528a855260038452818520838652845293205491830191909152845190925084908490811061062a5761062a61140c565b6020026020010181905250508061064090611422565b90506105b5565b509392505050565b60008181526004602052604081208054909190600160a01b900460ff16600281111561067d5761067d611364565b1461069b576040516301da8d1f60e51b815260040160405180910390fd5b805460ff60a01b1916600160a01b17815560405142815282907ff2f86ca4cc0873f65a3d53bebcffc02debf8614e74f094b0fb5f6bf10c1efd16906020015b60405180910390a25050565b6001600084815260046020526040902054600160a01b900460ff16600281111561071257610712611364565b14610730576040516301da8d1f60e51b815260040160405180910390fd5b6000838152600160208181526040808420805493015460ff9093168085526002909252909220546001600160a01b031661076e888389888886610cc8565b61078d876000908152602081905260409020805460ff19166001179055565b60008681526003602090815260408083208b845290915281208054916107b283611422565b91905055505050505050505050565b6004602052600090815260409020805460018201546002830180546001600160a01b03841694600160a01b90940460ff169391906107fe90611449565b80601f016020809104026020016040519081016040528092919081815260200182805461082a90611449565b80156108775780601f1061084c57610100808354040283529160200191610877565b820191906000526020600020905b81548152906001019060200180831161085a57829003601f168201915b5050505050905084565b60008181526004602052604090205481906001600160a01b031633146108ba57604051637bfa4b9f60e01b815260040160405180910390fd5b6001600083815260046020526040902054600160a01b900460ff1660028111156108e6576108e6611364565b14610904576040516301da8d1f60e51b815260040160405180910390fd5b600082815260046020908152604091829020805460ff60a01b1916600160a11b179055905142815283917ff170ccceabf4d2ab2281a1f7df1d8db542e71a1a7fb94b022f12d9b15aa4c2fb91016106da565b60008281526001602052604090205460ff166000036109885760405163029f057960e01b815260040160405180910390fd5b600082815260016020526040908190209051630b4381fd60e11b815260048101919091526024810182905273__$db272e07bc267e83ddb1fc2285da69497d$__9063168703fa9060440160006040518083038186803b1580156109ea57600080fd5b505af41580156109fe573d6000803e3d6000fd5b505050600083815260016020818152604092839020909101548251858152918201819052925084917f03fd27265b7dd1f55558bedc22a58fa3b10afb1be776e614bd5a7ba7b949940691015b60405180910390a2505050565b60008681526001602052604090205460ff16600003610a895760405163029f057960e01b815260040160405180910390fd5b600086815260016020526040908190209051630629596f60e01b815273__$db272e07bc267e83ddb1fc2285da69497d$__91630629596f91610ad8919089908990899089908990600401611483565b60006040518083038186803b158015610af057600080fd5b505af4158015610b04573d6000803e3d6000fd5b505050600087815260016020819052604082200154909150604080518881526020810183905291925088917fe270325ded177064d7bda473e6519ef40a291058c41286f71a6e4872f1e9ab5c910160405180910390a250505050505050565b6000600882604051602001610b7a91815260200190565b60408051601f198184030181529190528051602090910120901c92915050565b7f30644e72e131a029b85045b68181585d2833e84879b9709143e1f593f00000018310610bda5760405163530e3c6560e11b815260040160405180910390fd5b60008381526001602052604090205460ff1615610c0a57604051638121725b60e01b815260040160405180910390fd5b60008381526001602052604090819020905163b4bdd11760e01b8152600481019190915260ff831660248201526044810182905273__$db272e07bc267e83ddb1fc2285da69497d$__9063b4bdd1179060640160006040518083038186803b158015610c7557600080fd5b505af4158015610c89573d6000803e3d6000fd5b50506040805160ff86168152602081018590528693507fc3082aa494e9088c2c9f0fb62a0b6bd46e6699acb94cfba35be29b95a93f68c8925001610a4a565b60008481526020819052604090205460ff1615610d4a5760405162461bcd60e51b815260206004820152603660248201527f53656d6170686f7265436f72653a20796f752063616e6e6f7420757365207468604482015275652073616d65206e756c6c696669657220747769636560501b606482015260840160405180910390fd5b6000610d5587610b63565b9050816001600160a01b0316635fe8c13b604051806040016040528086600060088110610d8457610d8461140c565b6020020135815260200186600160088110610da157610da161140c565b6020020135905260408051608081018252878201359181019182529081906060820189600360200201358152508152602001604051806040016040528089600460088110610df157610df161140c565b6020020135815260200189600560088110610e0e57610e0e61140c565b60200201359052905260408051808201909152808860066020020135815260200188600760088110610e4257610e4261140c565b602002013581525060405180608001604052808c81526020018b81526020018781526020018a8152506040518563ffffffff1660e01b8152600401610e8a9493929190611537565b60006040518083038186803b158015610ea257600080fd5b505afa158015610eb6573d6000803e3d6000fd5b5050505050505050505050565b828054610ecf90611449565b90600052602060002090601f016020900481019282610ef15760008555610f37565b82601f10610f0a57805160ff1916838001178555610f37565b82800160010185558215610f37579182015b82811115610f37578251825591602001919060010190610f1c565b50610f43929150610f81565b5090565b828054828255906000526020600020908101928215610f375791602002820182811115610f37578251825591602001919060010190610f1c565b5b80821115610f435760008155600101610f82565b600060208284031215610fa857600080fd5b5035919050565b6020808252825182820181905260009190848201906040850190845b81811015610fe757835183529284019291840191600101610fcb565b50909695505050505050565b6000806040838503121561100657600080fd5b50508035926020909101359150565b60008083601f84011261102757600080fd5b50813567ffffffffffffffff81111561103f57600080fd5b6020830191508360208260051b850101111561105a57600080fd5b9250929050565b6000806000806000806080878903121561107a57600080fd5b8635955060208701359450604087013567ffffffffffffffff808211156110a057600080fd5b6110ac8a838b01611015565b909650945060608901359150808211156110c557600080fd5b506110d289828a01611015565b979a9699509497509295939492505050565b634e487b7160e01b600052604160045260246000fd5b604051601f8201601f1916810167ffffffffffffffff81118282101715611123576111236110e4565b604052919050565b600082601f83011261113c57600080fd5b8135602067ffffffffffffffff821115611158576111586110e4565b8160051b6111678282016110fa565b928352848101820192828101908785111561118157600080fd5b83870192505b848310156111a057823582529183019190830190611187565b979650505050505050565b80356001600160a01b03811681146111c257600080fd5b919050565b803560ff811681146111c257600080fd5b60008060008060008060c087890312156111f157600080fd5b8635955060208088013567ffffffffffffffff8082111561121157600080fd5b818a0191508a601f83011261122557600080fd5b813581811115611237576112376110e4565b611249601f8201601f191685016110fa565b8181528c8583860101111561125d57600080fd5b81858501868301376000918101909401529196506040890135918083111561128457600080fd5b505061129289828a0161112b565b9450506112a1606088016111ab565b92506112af608088016111c7565b915060a087013590509295509295509295565b602080825282518282018190526000919060409081850190868401855b82811015611304578151805185528601518685015292840192908501906001016112df565b5091979650505050505050565b600080600080600061018080878903121561132b57600080fd5b8635955060208701359450604087013593506060870135925087818801111561135357600080fd5b506080860190509295509295909350565b634e487b7160e01b600052602160045260246000fd5b6001600160a01b038516815260006020600386106113a857634e487b7160e01b600052602160045260246000fd5b858184015284604084015260806060840152835180608085015260005b818110156113e15785810183015185820160a0015282016113c5565b818111156113f357600060a083870101525b50601f01601f19169290920160a0019695505050505050565b634e487b7160e01b600052603260045260246000fd5b60006001820161144257634e487b7160e01b600052601160045260246000fd5b5060010190565b600181811c9082168061145d57607f821691505b60208210810361147d57634e487b7160e01b600052602260045260246000fd5b50919050565b8681526000602087818401526080604084015285608084015260018060fb1b038611156114af57600080fd5b8560051b808860a0860137830183810360a090810160608601528101859052859060009060c0015b868210156114ff5760ff6114ea846111c7565b168152918301916001919091019083016114d7565b9b9a5050505050505050505050565b8060005b6002811015611531578151845260209384019390910190600101611512565b50505050565b6101808101611546828761150e565b60408083018660005b60028110156115765761156383835161150e565b918301916020919091019060010161154f565b5050505061158760c083018561150e565b61010082018360005b60048110156115af578151835260209283019290910190600101611590565b5050509594505050505056fea2646970667358221220c4f28712697b7171e36a1b90f75573fc5fedc982ba7bc57dd093469c70a4c9c264736f6c634300080d0033",
    "linkReferences": {
      "src/IncrementalBinaryTree.sol": {
        "IncrementalBinaryTree": [
          {
            "start": 3242,
            "length": 20
          },
          {
            "start": 3484,
            "length": 20
          },
          {
            "start": 3893,
            "length": 20
          }
        ]
      }
    }
  },
  "methodIdentifiers": {
    "Addvoter(uint256,uint256)": "1ae187a8",
    "NewVoteInstance(bytes32,string,bytes32[],address,uint8,uint256)": "37d6e3ff",
    "RemoveVoter(uint256,uint256,uint256[],uint8[])": "3143a178",
    "StartPoll(uint256)": "3eecf505",
    "VotesperProposal(uint256,bytes32)": "8d5d77ae",
    "castVote(bytes32,uint256,uint256,uint256,uint256[8])": "9783568e",
    "endPoll(uint256)": "f43b8778",
    "getDepth(uint256)": "75e618c9",
    "getNumberOfLeaves(uint256)": "b9c78c2b",
    "getRoot(uint256)": "9b24b3b0",
    "getlatestVotes(uint256)": "3c464bd3",
    "getproposals(uint256)": "12789fe1",
    "polls(uint256)": "ac2f0074",
    "verifiers(uint256)": "ac1eff68"
  },
  "id": 7
}