{
  "abi": [
    {
      "inputs": [
        {
          "internalType": "uint256[]",
          "name": "_depths",
          "type": "uint256[]"
        },
        {
          "internalType": "address[]",
          "name": "_verifieraddresses",
          "type": "address[]"
        }
      ],
      "stateMutability": "payable",
      "type": "constructor"
    },
    {
      "inputs": [],
      "name": "ALREADY_STARTED",
      "type": "error"
    },
    {
      "inputs": [],
      "name": "INVALID",
      "type": "error"
    },
    {
      "inputs": [],
      "name": "INVALID_TIMESTAMP",
      "type": "error"
    },
    {
      "inputs": [],
      "name": "NOT_ADMIN",
      "type": "error"
    },
    {
      "inputs": [],
      "name": "NOT_ENOUGH_VOTES",
      "type": "error"
    },
    {
      "inputs": [],
      "name": "NOT_SAME_LENGTH",
      "type": "error"
    },
    {
      "inputs": [],
      "name": "Semaphore__GroupAlreadyExists",
      "type": "error"
    },
    {
      "inputs": [],
      "name": "Semaphore__GroupDoesNotExist",
      "type": "error"
    },
    {
      "inputs": [],
      "name": "Semaphore__GroupIdIsNotLessThanSnarkScalarField",
      "type": "error"
    },
    {
      "inputs": [],
      "name": "VOTING_ENDED",
      "type": "error"
    },
    {
      "anonymous": false,
      "inputs": [
        {
          "indexed": true,
          "internalType": "uint256",
          "name": "groupId",
          "type": "uint256"
        },
        {
          "indexed": false,
          "internalType": "bytes32",
          "name": "vote",
          "type": "bytes32"
        }
      ],
      "name": "CastedVote",
      "type": "event"
    },
    {
      "anonymous": false,
      "inputs": [
        {
          "indexed": true,
          "internalType": "uint256",
          "name": "groupId",
          "type": "uint256"
        },
        {
          "indexed": false,
          "internalType": "uint8",
          "name": "depth",
          "type": "uint8"
        },
        {
          "indexed": false,
          "internalType": "uint256",
          "name": "zeroValue",
          "type": "uint256"
        }
      ],
      "name": "GroupCreated",
      "type": "event"
    },
    {
      "anonymous": false,
      "inputs": [
        {
          "indexed": true,
          "internalType": "uint256",
          "name": "groupId",
          "type": "uint256"
        },
        {
          "indexed": false,
          "internalType": "uint256",
          "name": "identityCommitment",
          "type": "uint256"
        },
        {
          "indexed": false,
          "internalType": "uint256",
          "name": "root",
          "type": "uint256"
        }
      ],
      "name": "MemberAdded",
      "type": "event"
    },
    {
      "anonymous": false,
      "inputs": [
        {
          "indexed": true,
          "internalType": "uint256",
          "name": "groupId",
          "type": "uint256"
        },
        {
          "indexed": false,
          "internalType": "uint256",
          "name": "identityCommitment",
          "type": "uint256"
        },
        {
          "indexed": false,
          "internalType": "uint256",
          "name": "root",
          "type": "uint256"
        }
      ],
      "name": "MemberRemoved",
      "type": "event"
    },
    {
      "anonymous": false,
      "inputs": [
        {
          "indexed": true,
          "internalType": "uint256",
          "name": "id",
          "type": "uint256"
        },
        {
          "indexed": true,
          "internalType": "bytes32",
          "name": "eventname",
          "type": "bytes32"
        },
        {
          "indexed": false,
          "internalType": "address",
          "name": "coordinator",
          "type": "address"
        },
        {
          "indexed": false,
          "internalType": "string",
          "name": "description",
          "type": "string"
        }
      ],
      "name": "NewProposal",
      "type": "event"
    },
    {
      "anonymous": false,
      "inputs": [
        {
          "indexed": false,
          "internalType": "uint256",
          "name": "nullifierHash",
          "type": "uint256"
        }
      ],
      "name": "NullifierHashAdded",
      "type": "event"
    },
    {
      "anonymous": false,
      "inputs": [
        {
          "indexed": true,
          "internalType": "uint256",
          "name": "groupId",
          "type": "uint256"
        },
        {
          "indexed": false,
          "internalType": "uint64",
          "name": "starttime",
          "type": "uint64"
        },
        {
          "indexed": false,
          "internalType": "uint64",
          "name": "endtime",
          "type": "uint64"
        }
      ],
      "name": "VoteStarts",
      "type": "event"
    },
    {
      "inputs": [
        {
          "internalType": "uint256",
          "name": "_pollId",
          "type": "uint256"
        },
        {
          "internalType": "uint256",
          "name": "_identitycommitment",
          "type": "uint256"
        }
      ],
      "name": "Addvoter",
      "outputs": [],
      "stateMutability": "nonpayable",
      "type": "function"
    },
    {
      "inputs": [
        {
          "internalType": "bytes32",
          "name": "_eventName",
          "type": "bytes32"
        },
        {
          "internalType": "string",
          "name": "_description",
          "type": "string"
        },
        {
          "internalType": "bytes32[]",
          "name": "_proposals",
          "type": "bytes32[]"
        },
        {
          "internalType": "address",
          "name": "_coordinator",
          "type": "address"
        },
        {
          "internalType": "uint8",
          "name": "_depth",
          "type": "uint8"
        },
        {
          "internalType": "uint256",
          "name": "_zerovalue",
          "type": "uint256"
        }
      ],
      "name": "NewVoteInstance",
      "outputs": [],
      "stateMutability": "nonpayable",
      "type": "function"
    },
    {
      "inputs": [
        {
          "internalType": "uint256",
          "name": "_pollId",
          "type": "uint256"
        },
        {
          "internalType": "uint256",
          "name": "_identityCommitment",
          "type": "uint256"
        },
        {
          "internalType": "uint256[]",
          "name": "_proofSiblings",
          "type": "uint256[]"
        },
        {
          "internalType": "uint8[]",
          "name": "_proofPathIndices",
          "type": "uint8[]"
        }
      ],
      "name": "RemoveVoter",
      "outputs": [],
      "stateMutability": "nonpayable",
      "type": "function"
    },
    {
      "inputs": [
        {
          "internalType": "uint256",
          "name": "_pollId",
          "type": "uint256"
        },
        {
          "internalType": "uint64",
          "name": "_endtime",
          "type": "uint64"
        }
      ],
      "name": "StartPoll",
      "outputs": [],
      "stateMutability": "nonpayable",
      "type": "function"
    },
    {
      "inputs": [
        {
          "internalType": "uint256",
          "name": "",
          "type": "uint256"
        },
        {
          "internalType": "bytes32",
          "name": "",
          "type": "bytes32"
        }
      ],
      "name": "VotesperProposal",
      "outputs": [
        {
          "internalType": "uint256",
          "name": "",
          "type": "uint256"
        }
      ],
      "stateMutability": "view",
      "type": "function"
    },
    {
      "inputs": [
        {
          "internalType": "bytes32[]",
          "name": "_vote",
          "type": "bytes32[]"
        },
        {
          "internalType": "uint256[]",
          "name": "position",
          "type": "uint256[]"
        },
        {
          "internalType": "uint256",
          "name": "_nullifierHash",
          "type": "uint256"
        },
        {
          "internalType": "uint256",
          "name": "_pollId",
          "type": "uint256"
        },
        {
          "internalType": "uint256[8]",
          "name": "_proof",
          "type": "uint256[8]"
        }
      ],
      "name": "castVote",
      "outputs": [],
      "stateMutability": "nonpayable",
      "type": "function"
    },
    {
      "inputs": [
        {
          "internalType": "uint256",
          "name": "groupId",
          "type": "uint256"
        }
      ],
      "name": "getDepth",
      "outputs": [
        {
          "internalType": "uint256",
          "name": "",
          "type": "uint256"
        }
      ],
      "stateMutability": "view",
      "type": "function"
    },
    {
      "inputs": [
        {
          "internalType": "uint256",
          "name": "groupId",
          "type": "uint256"
        }
      ],
      "name": "getNumberOfLeaves",
      "outputs": [
        {
          "internalType": "uint256",
          "name": "",
          "type": "uint256"
        }
      ],
      "stateMutability": "view",
      "type": "function"
    },
    {
      "inputs": [
        {
          "internalType": "uint256",
          "name": "groupId",
          "type": "uint256"
        }
      ],
      "name": "getRoot",
      "outputs": [
        {
          "internalType": "uint256",
          "name": "",
          "type": "uint256"
        }
      ],
      "stateMutability": "view",
      "type": "function"
    },
    {
      "inputs": [
        {
          "internalType": "uint256",
          "name": "_pollId",
          "type": "uint256"
        }
      ],
      "name": "getlatestVotes",
      "outputs": [
        {
          "components": [
            {
              "internalType": "bytes32",
              "name": "proposals",
              "type": "bytes32"
            },
            {
              "internalType": "uint256",
              "name": "votes",
              "type": "uint256"
            }
          ],
          "internalType": "struct ZkVote.Results[]",
          "name": "",
          "type": "tuple[]"
        }
      ],
      "stateMutability": "view",
      "type": "function"
    },
    {
      "inputs": [
        {
          "internalType": "uint256",
          "name": "_id",
          "type": "uint256"
        }
      ],
      "name": "getproposals",
      "outputs": [
        {
          "internalType": "bytes32[]",
          "name": "",
          "type": "bytes32[]"
        }
      ],
      "stateMutability": "view",
      "type": "function"
    },
    {
      "inputs": [
        {
          "internalType": "uint256",
          "name": "",
          "type": "uint256"
        }
      ],
      "name": "nullifierHashes",
      "outputs": [
        {
          "internalType": "bool",
          "name": "",
          "type": "bool"
        }
      ],
      "stateMutability": "view",
      "type": "function"
    },
    {
      "inputs": [
        {
          "internalType": "uint256",
          "name": "",
          "type": "uint256"
        }
      ],
      "name": "polls",
      "outputs": [
        {
          "internalType": "address",
          "name": "coordinator",
          "type": "address"
        },
        {
          "internalType": "enum ZkVote.PollState",
          "name": "pollstate",
          "type": "uint8"
        },
        {
          "internalType": "uint64",
          "name": "endtime",
          "type": "uint64"
        },
        {
          "internalType": "bytes32",
          "name": "pollname",
          "type": "bytes32"
        },
        {
          "internalType": "string",
          "name": "description",
          "type": "string"
        }
      ],
      "stateMutability": "view",
      "type": "function"
    },
    {
      "inputs": [
        {
          "internalType": "uint256",
          "name": "",
          "type": "uint256"
        }
      ],
      "name": "verifiers",
      "outputs": [
        {
          "internalType": "contract IVerifier",
          "name": "",
          "type": "address"
        }
      ],
      "stateMutability": "view",
      "type": "function"
    }
  ],
  "bytecode": {
    "object": "0x608060405260405162001b6338038062001b638339810160408190526200002691620001d6565b80518251146200004957604051637700949960e11b815260040160405180910390fd5b815160005b81811015620000d3578281815181106200006c576200006c6200029d565b6020026020010151600260008684815181106200008d576200008d6200029d565b6020026020010151815260200190815260200160002060006101000a8154816001600160a01b0302191690836001600160a01b031602179055508060010190506200004e565b50505050620002b3565b634e487b7160e01b600052604160045260246000fd5b604051601f8201601f191681016001600160401b03811182821017156200011e576200011e620000dd565b604052919050565b60006001600160401b03821115620001425762000142620000dd565b5060051b60200190565b600082601f8301126200015e57600080fd5b8151602062000177620001718362000126565b620000f3565b82815260059290921b840181019181810190868411156200019757600080fd5b8286015b84811015620001cb5780516001600160a01b0381168114620001bd5760008081fd5b83529183019183016200019b565b509695505050505050565b60008060408385031215620001ea57600080fd5b82516001600160401b03808211156200020257600080fd5b818501915085601f8301126200021757600080fd5b815160206200022a620001718362000126565b82815260059290921b840181019181810190898411156200024a57600080fd5b948201945b838610156200026a578551825294820194908201906200024f565b918801519196509093505050808211156200028457600080fd5b5062000293858286016200014c565b9150509250929050565b634e487b7160e01b600052603260045260246000fd5b6118a080620002c36000396000f3fe608060405234801561001057600080fd5b50600436106100ea5760003560e01c80638d5d77ae1161008c578063ac2f007411610066578063ac2f007414610267578063b9c78c2b1461028b578063c9248287146102ae578063e9f73a0c146102c157600080fd5b80638d5d77ae146101d75780639b24b3b014610202578063ac1eff681461022657600080fd5b80633143a178116100c85780633143a1781461016057806337d6e3ff146101735780633c464bd31461018657806375e618c9146101a657600080fd5b806312789fe1146100ef5780631ae187a8146101185780631f79a1e91461012d575b600080fd5b6101026100fd366004611037565b6102d4565b60405161010f9190611050565b60405180910390f35b61012b610126366004611094565b610339565b005b61015061013b366004611037565b60006020819052908152604090205460ff1681565b604051901515815260200161010f565b61012b61016e366004611101565b6103c7565b61012b610181366004611275565b61045d565b610199610194366004611037565b6105da565b60405161010f919061135e565b6101c96101b4366004611037565b60009081526001602052604090205460ff1690565b60405190815260200161010f565b6101c96101e5366004611094565b600360209081526000928352604080842090915290825290205481565b6101c9610210366004611037565b6000908152600160208190526040909120015490565b61024f610234366004611037565b6002602052600090815260409020546001600160a01b031681565b6040516001600160a01b03909116815260200161010f565b61027a610275366004611037565b6106ec565b60405161010f959493929190611410565b6101c9610299366004611037565b60009081526001602052604090206002015490565b61012b6102bc36600461146b565b6107bd565b61012b6102cf3660046114a7565b61089e565b60008181526004602090815260409182902060030180548351818402810184019094528084526060939283018282801561032d57602002820191906000526020600020905b815481526020019060010190808311610319575b50505050509050919050565b60008281526004602052604090205482906001600160a01b0316331461037257604051636209c08b60e01b815260040160405180910390fd5b60008084815260046020526040902054600160a01b900460ff16801561039a5761039a6113ad565b146103b857604051637c61cfe160e11b815260040160405180910390fd5b6103c28383610a73565b505050565b60008681526004602052604090205486906001600160a01b0316331461040057604051636209c08b60e01b815260040160405180910390fd5b60008088815260046020526040902054600160a01b900460ff168015610428576104286113ad565b1461044657604051637c61cfe160e11b815260040160405180910390fd5b610454878787878787610b6b565b50505050505050565b600061046887610c77565b9050610475818484610cae565b6104ae6040805160c081019091526000808252602082019081526000602082018190526040820152606080820181905260809091015290565b6001600160a01b03858116825260006020808401828152606085018c9052608085018b905260a085018a9052858352600490915260409091208351815493166001600160a01b0319841681178255915184939192909183916001600160a81b031990911617600160a01b838015610527576105276113ad565b0217905550604082015181546001600160401b03909116600160a81b0267ffffffffffffffff60a81b19909116178155606082015160018201556080820151600282019061057590826115cb565b5060a08201518051610591916003840191602090910190610fd7565b5090505087827f40b5355208340c3f3f4d7d5a625416bce4b69d9f97cc17f530daf7d5d4ced8ac878a6040516105c892919061168a565b60405180910390a35050505050505050565b600081815260046020526040812060030154606091816001600160401b0381111561060757610607611183565b60405190808252806020026020018201604052801561064c57816020015b60408051808201909152600080825260208201528152602001906001900390816106255790505b50905060005b828110156106e457600085815260046020526040812060030180548390811061067d5761067d6116b6565b60009182526020808320909101546040805180820182528281528a85526003845281852083865284529320549183019190915284519092508490849081106106c7576106c76116b6565b602002602001018190525050806106dd906116e2565b9050610652565b509392505050565b6004602052600090815260409020805460018201546002830180546001600160a01b03841694600160a01b850460ff1694600160a81b90046001600160401b03169392909161073a90611543565b80601f016020809104026020016040519081016040528092919081815260200182805461076690611543565b80156107b35780601f10610788576101008083540402835291602001916107b3565b820191906000526020600020905b81548152906001019060200180831161079657829003601f168201915b5050505050905085565b60008281526004602052604081208054909190600160a01b900460ff1680156107e8576107e86113ad565b1461080657604051637c61cfe160e11b815260040160405180910390fd5b42826001600160401b031610156108305760405163118818d160e01b815260040160405180910390fd5b805467ffffffffffffffff60a81b1916600160a81b6001600160401b0384811691820292909217835560408051429093168352602083019190915284917fbf33d75a411657e8190a3e1cb2d7ca4705a4f7f84697d327f815fafb4c4fae9591015b60405180910390a2505050565b60008281526004602052604090205442600160a81b9091046001600160401b031610156108de576040516370bc763160e01b815260040160405180910390fd5b8584146108fe57604051637700949960e11b815260040160405180910390fd5b6000828152600160208181526040808420805493015460ff909316808552600290925283205490926001600160a01b0390911690610958908b908b9081610947576109476116b6565b905060200201358388888886610ddc565b610977866000908152602081905260409020805460ff19166001179055565b600087815b81811061099c57604051637fcce2a960e01b815260040160405180910390fd5b8a8a828181106109ae576109ae6116b6565b905060200201358b8b838181106109c7576109c76116b6565b905060200201356109d891906116fb565b6000898152600360205260408120908f8f858181106109f9576109f96116b6565b9050602002013581526020019081526020016000206000828254610a1d919061171a565b909155508b90508a82818110610a3557610a356116b6565b905060200201358b8b83818110610a4e57610a4e6116b6565b90506020020135610a5f91906116fb565b610a69908461171a565b925060010161097c565b60008281526001602052604090205460ff16600003610aa55760405163029f057960e01b815260040160405180910390fd5b600082815260016020526040908190209051630b4381fd60e11b815260048101919091526024810182905273c3a32b932ab88918764fcc2684ab29e88b59bf7c9063168703fa9060440160006040518083038186803b158015610b0757600080fd5b505af4158015610b1b573d6000803e3d6000fd5b505050600083815260016020818152604092839020909101548251858152918201819052925084917f03fd27265b7dd1f55558bedc22a58fa3b10afb1be776e614bd5a7ba7b94994069101610891565b60008681526001602052604090205460ff16600003610b9d5760405163029f057960e01b815260040160405180910390fd5b600086815260016020526040908190209051630629596f60e01b815273c3a32b932ab88918764fcc2684ab29e88b59bf7c91630629596f91610bec919089908990899089908990600401611732565b60006040518083038186803b158015610c0457600080fd5b505af4158015610c18573d6000803e3d6000fd5b505050600087815260016020819052604082200154909150604080518881526020810183905291925088917fe270325ded177064d7bda473e6519ef40a291058c41286f71a6e4872f1e9ab5c910160405180910390a250505050505050565b6000600882604051602001610c8e91815260200190565b60408051601f198184030181529190528051602090910120901c92915050565b7f30644e72e131a029b85045b68181585d2833e84879b9709143e1f593f00000018310610cee5760405163530e3c6560e11b815260040160405180910390fd5b60008381526001602052604090205460ff1615610d1e57604051638121725b60e01b815260040160405180910390fd5b60008381526001602052604090819020905163b4bdd11760e01b8152600481019190915260ff831660248201526044810182905273c3a32b932ab88918764fcc2684ab29e88b59bf7c9063b4bdd1179060640160006040518083038186803b158015610d8957600080fd5b505af4158015610d9d573d6000803e3d6000fd5b50506040805160ff86168152602081018590528693507fc3082aa494e9088c2c9f0fb62a0b6bd46e6699acb94cfba35be29b95a93f68c8925001610891565b60008481526020819052604090205460ff1615610e5e5760405162461bcd60e51b815260206004820152603660248201527f53656d6170686f7265436f72653a20796f752063616e6e6f7420757365207468604482015275652073616d65206e756c6c696669657220747769636560501b606482015260840160405180910390fd5b6000610e6987610c77565b9050816001600160a01b0316635fe8c13b604051806040016040528086600060088110610e9857610e986116b6565b6020020135815260200186600160088110610eb557610eb56116b6565b6020020135905260408051608081018252878201359181019182529081906060820189600360200201358152508152602001604051806040016040528089600460088110610f0557610f056116b6565b6020020135815260200189600560088110610f2257610f226116b6565b60200201359052905260408051808201909152808860066020020135815260200188600760088110610f5657610f566116b6565b602002013581525060405180608001604052808c81526020018b81526020018781526020018a8152506040518563ffffffff1660e01b8152600401610f9e94939291906117e6565b60006040518083038186803b158015610fb657600080fd5b505afa158015610fca573d6000803e3d6000fd5b5050505050505050505050565b828054828255906000526020600020908101928215611012579160200282015b82811115611012578251825591602001919060010190610ff7565b5061101e929150611022565b5090565b5b8082111561101e5760008155600101611023565b60006020828403121561104957600080fd5b5035919050565b6020808252825182820181905260009190848201906040850190845b818110156110885783518352928401929184019160010161106c565b50909695505050505050565b600080604083850312156110a757600080fd5b50508035926020909101359150565b60008083601f8401126110c857600080fd5b5081356001600160401b038111156110df57600080fd5b6020830191508360208260051b85010111156110fa57600080fd5b9250929050565b6000806000806000806080878903121561111a57600080fd5b863595506020870135945060408701356001600160401b038082111561113f57600080fd5b61114b8a838b016110b6565b9096509450606089013591508082111561116457600080fd5b5061117189828a016110b6565b979a9699509497509295939492505050565b634e487b7160e01b600052604160045260246000fd5b604051601f8201601f191681016001600160401b03811182821017156111c1576111c1611183565b604052919050565b600082601f8301126111da57600080fd5b813560206001600160401b038211156111f5576111f5611183565b8160051b611204828201611199565b928352848101820192828101908785111561121e57600080fd5b83870192505b8483101561123d57823582529183019190830190611224565b979650505050505050565b80356001600160a01b038116811461125f57600080fd5b919050565b803560ff8116811461125f57600080fd5b60008060008060008060c0878903121561128e57600080fd5b863595506020808801356001600160401b03808211156112ad57600080fd5b818a0191508a601f8301126112c157600080fd5b8135818111156112d3576112d3611183565b6112e5601f8201601f19168501611199565b8181528c858386010111156112f957600080fd5b81858501868301376000918101909401529196506040890135918083111561132057600080fd5b505061132e89828a016111c9565b94505061133d60608801611248565b925061134b60808801611264565b915060a087013590509295509295509295565b602080825282518282018190526000919060409081850190868401855b828110156113a05781518051855286015186850152928401929085019060010161137b565b5091979650505050505050565b634e487b7160e01b600052602160045260246000fd5b6000815180845260005b818110156113e9576020818501810151868301820152016113cd565b818111156113fb576000602083870101525b50601f01601f19169290920160200192915050565b6001600160a01b038616815260006001861061143c57634e487b7160e01b600052602160045260246000fd5b8560208301526001600160401b038516604083015283606083015260a0608083015261123d60a08301846113c3565b6000806040838503121561147e57600080fd5b8235915060208301356001600160401b038116811461149c57600080fd5b809150509250929050565b600080600080600080600061018080898b0312156114c457600080fd5b88356001600160401b03808211156114db57600080fd5b6114e78c838d016110b6565b909a50985060208b013591508082111561150057600080fd5b5061150d8b828c016110b6565b90975095505060408901359350606089013592508089018a101561153057600080fd5b5060808801905092959891949750929550565b600181811c9082168061155757607f821691505b60208210810361157757634e487b7160e01b600052602260045260246000fd5b50919050565b601f8211156103c257600081815260208120601f850160051c810160208610156115a45750805b601f850160051c820191505b818110156115c3578281556001016115b0565b505050505050565b81516001600160401b038111156115e4576115e4611183565b6115f8816115f28454611543565b8461157d565b602080601f83116001811461162d57600084156116155750858301515b600019600386901b1c1916600185901b1785556115c3565b600085815260208120601f198616915b8281101561165c5788860151825594840194600190910190840161163d565b508582101561167a5787850151600019600388901b60f8161c191681555b5050505050600190811b01905550565b6001600160a01b03831681526040602082018190526000906116ae908301846113c3565b949350505050565b634e487b7160e01b600052603260045260246000fd5b634e487b7160e01b600052601160045260246000fd5b6000600182016116f4576116f46116cc565b5060010190565b6000816000190483118215151615611715576117156116cc565b500290565b6000821982111561172d5761172d6116cc565b500190565b8681526000602087818401526080604084015285608084015260018060fb1b0386111561175e57600080fd5b8560051b808860a0860137830183810360a090810160608601528101859052859060009060c0015b868210156117ae5760ff61179984611264565b16815291830191600191909101908301611786565b9b9a5050505050505050505050565b8060005b60028110156117e05781518452602093840193909101906001016117c1565b50505050565b61018081016117f582876117bd565b60408083018660005b6002811015611825576118128383516117bd565b91830191602091909101906001016117fe565b5050505061183660c08301856117bd565b61010082018360005b600481101561185e57815183526020928301929091019060010161183f565b5050509594505050505056fea2646970667358221220525dd24d732fb94ac8160208ac2f8830842a6b356c7188cb6155bbadae9bef9b64736f6c634300080f0033",
    "linkReferences": {}
  },
  "methodIdentifiers": {
    "Addvoter(uint256,uint256)": "1ae187a8",
    "NewVoteInstance(bytes32,string,bytes32[],address,uint8,uint256)": "37d6e3ff",
    "RemoveVoter(uint256,uint256,uint256[],uint8[])": "3143a178",
    "StartPoll(uint256,uint64)": "c9248287",
    "VotesperProposal(uint256,bytes32)": "8d5d77ae",
    "castVote(bytes32[],uint256[],uint256,uint256,uint256[8])": "e9f73a0c",
    "getDepth(uint256)": "75e618c9",
    "getNumberOfLeaves(uint256)": "b9c78c2b",
    "getRoot(uint256)": "9b24b3b0",
    "getlatestVotes(uint256)": "3c464bd3",
    "getproposals(uint256)": "12789fe1",
    "nullifierHashes(uint256)": "1f79a1e9",
    "polls(uint256)": "ac2f0074",
    "verifiers(uint256)": "ac1eff68"
  },
  "id": 5
}