{
  "abi": [
    {
      "inputs": [
        {
          "internalType": "uint256[]",
          "name": "_depths",
          "type": "uint256[]"
        },
        {
          "internalType": "address[]",
          "name": "_verifieraddresses",
          "type": "address[]"
        }
      ],
      "stateMutability": "payable",
      "type": "constructor"
    },
    {
      "inputs": [],
      "name": "ALREADY_STARTED",
      "type": "error"
    },
    {
      "inputs": [],
      "name": "INVALID",
      "type": "error"
    },
    {
      "inputs": [],
      "name": "INVALID_TIMESTAMP",
      "type": "error"
    },
    {
      "inputs": [],
      "name": "NOT_ADMIN",
      "type": "error"
    },
    {
      "inputs": [],
      "name": "NOT_ENOUGH_VOTES",
      "type": "error"
    },
    {
      "inputs": [],
      "name": "NOT_SAME_LENGTH",
      "type": "error"
    },
    {
      "inputs": [],
      "name": "Semaphore__GroupAlreadyExists",
      "type": "error"
    },
    {
      "inputs": [],
      "name": "Semaphore__GroupDoesNotExist",
      "type": "error"
    },
    {
      "inputs": [],
      "name": "Semaphore__GroupIdIsNotLessThanSnarkScalarField",
      "type": "error"
    },
    {
      "inputs": [],
      "name": "VALUE_NOT_SENT",
      "type": "error"
    },
    {
      "inputs": [],
      "name": "VOTING_ENDED",
      "type": "error"
    },
    {
      "inputs": [],
      "name": "VOTING_NOT_ENDED",
      "type": "error"
    },
    {
      "anonymous": false,
      "inputs": [
        {
          "indexed": true,
          "internalType": "uint256",
          "name": "groupId",
          "type": "uint256"
        },
        {
          "indexed": false,
          "internalType": "bytes32",
          "name": "vote",
          "type": "bytes32"
        }
      ],
      "name": "CastedVote",
      "type": "event"
    },
    {
      "anonymous": false,
      "inputs": [
        {
          "indexed": true,
          "internalType": "uint256",
          "name": "groupId",
          "type": "uint256"
        },
        {
          "indexed": false,
          "internalType": "uint8",
          "name": "depth",
          "type": "uint8"
        },
        {
          "indexed": false,
          "internalType": "uint256",
          "name": "zeroValue",
          "type": "uint256"
        }
      ],
      "name": "GroupCreated",
      "type": "event"
    },
    {
      "anonymous": false,
      "inputs": [
        {
          "indexed": true,
          "internalType": "uint256",
          "name": "groupId",
          "type": "uint256"
        },
        {
          "indexed": false,
          "internalType": "uint256",
          "name": "identityCommitment",
          "type": "uint256"
        },
        {
          "indexed": false,
          "internalType": "uint256",
          "name": "root",
          "type": "uint256"
        }
      ],
      "name": "MemberAdded",
      "type": "event"
    },
    {
      "anonymous": false,
      "inputs": [
        {
          "indexed": true,
          "internalType": "uint256",
          "name": "groupId",
          "type": "uint256"
        },
        {
          "indexed": false,
          "internalType": "uint256",
          "name": "identityCommitment",
          "type": "uint256"
        },
        {
          "indexed": false,
          "internalType": "uint256",
          "name": "root",
          "type": "uint256"
        }
      ],
      "name": "MemberRemoved",
      "type": "event"
    },
    {
      "anonymous": false,
      "inputs": [
        {
          "indexed": true,
          "internalType": "uint256",
          "name": "id",
          "type": "uint256"
        },
        {
          "indexed": true,
          "internalType": "bytes32",
          "name": "eventname",
          "type": "bytes32"
        },
        {
          "indexed": false,
          "internalType": "address",
          "name": "coordinator",
          "type": "address"
        },
        {
          "indexed": false,
          "internalType": "string",
          "name": "description",
          "type": "string"
        }
      ],
      "name": "NewProposal",
      "type": "event"
    },
    {
      "anonymous": false,
      "inputs": [
        {
          "indexed": false,
          "internalType": "uint256",
          "name": "nullifierHash",
          "type": "uint256"
        }
      ],
      "name": "NullifierHashAdded",
      "type": "event"
    },
    {
      "anonymous": false,
      "inputs": [
        {
          "indexed": true,
          "internalType": "uint256",
          "name": "groupId",
          "type": "uint256"
        },
        {
          "indexed": false,
          "internalType": "uint64",
          "name": "starttime",
          "type": "uint64"
        },
        {
          "indexed": false,
          "internalType": "uint64",
          "name": "endtime",
          "type": "uint64"
        }
      ],
      "name": "VoteStarts",
      "type": "event"
    },
    {
      "inputs": [
        {
          "internalType": "uint256",
          "name": "_pollId",
          "type": "uint256"
        },
        {
          "internalType": "uint256",
          "name": "_identitycommitment",
          "type": "uint256"
        }
      ],
      "name": "Addvoter",
      "outputs": [],
      "stateMutability": "nonpayable",
      "type": "function"
    },
    {
      "inputs": [
        {
          "internalType": "bytes32",
          "name": "_eventName",
          "type": "bytes32"
        },
        {
          "internalType": "string",
          "name": "_description",
          "type": "string"
        },
        {
          "internalType": "bytes32[]",
          "name": "_proposals",
          "type": "bytes32[]"
        },
        {
          "internalType": "address[]",
          "name": "_grantees",
          "type": "address[]"
        },
        {
          "internalType": "address",
          "name": "_coordinator",
          "type": "address"
        },
        {
          "internalType": "uint8",
          "name": "_depth",
          "type": "uint8"
        },
        {
          "internalType": "uint256",
          "name": "_zerovalue",
          "type": "uint256"
        }
      ],
      "name": "NewVoteInstance",
      "outputs": [],
      "stateMutability": "payable",
      "type": "function"
    },
    {
      "inputs": [
        {
          "internalType": "uint256",
          "name": "_pollId",
          "type": "uint256"
        },
        {
          "internalType": "uint256",
          "name": "_identityCommitment",
          "type": "uint256"
        },
        {
          "internalType": "uint256[]",
          "name": "_proofSiblings",
          "type": "uint256[]"
        },
        {
          "internalType": "uint8[]",
          "name": "_proofPathIndices",
          "type": "uint8[]"
        }
      ],
      "name": "RemoveVoter",
      "outputs": [],
      "stateMutability": "nonpayable",
      "type": "function"
    },
    {
      "inputs": [
        {
          "internalType": "uint256",
          "name": "_pollId",
          "type": "uint256"
        },
        {
          "internalType": "uint64",
          "name": "_endtime",
          "type": "uint64"
        }
      ],
      "name": "StartPoll",
      "outputs": [],
      "stateMutability": "nonpayable",
      "type": "function"
    },
    {
      "inputs": [
        {
          "internalType": "uint256",
          "name": "",
          "type": "uint256"
        },
        {
          "internalType": "bytes32",
          "name": "",
          "type": "bytes32"
        }
      ],
      "name": "VotesperProposal",
      "outputs": [
        {
          "internalType": "uint256",
          "name": "",
          "type": "uint256"
        }
      ],
      "stateMutability": "view",
      "type": "function"
    },
    {
      "inputs": [
        {
          "internalType": "bytes32[]",
          "name": "_vote",
          "type": "bytes32[]"
        },
        {
          "internalType": "uint256[]",
          "name": "position",
          "type": "uint256[]"
        },
        {
          "internalType": "uint256",
          "name": "_nullifierHash",
          "type": "uint256"
        },
        {
          "internalType": "uint256",
          "name": "_pollId",
          "type": "uint256"
        },
        {
          "internalType": "uint256[8]",
          "name": "_proof",
          "type": "uint256[8]"
        }
      ],
      "name": "castVote",
      "outputs": [],
      "stateMutability": "nonpayable",
      "type": "function"
    },
    {
      "inputs": [
        {
          "internalType": "uint256",
          "name": "_pollId",
          "type": "uint256"
        }
      ],
      "name": "disperse",
      "outputs": [],
      "stateMutability": "nonpayable",
      "type": "function"
    },
    {
      "inputs": [
        {
          "internalType": "uint256",
          "name": "groupId",
          "type": "uint256"
        }
      ],
      "name": "getDepth",
      "outputs": [
        {
          "internalType": "uint256",
          "name": "",
          "type": "uint256"
        }
      ],
      "stateMutability": "view",
      "type": "function"
    },
    {
      "inputs": [
        {
          "internalType": "uint256",
          "name": "_pollId",
          "type": "uint256"
        }
      ],
      "name": "getLatestVotesWithGrantees",
      "outputs": [
        {
          "components": [
            {
              "internalType": "bytes32",
              "name": "proposals",
              "type": "bytes32"
            },
            {
              "internalType": "uint256",
              "name": "votes",
              "type": "uint256"
            },
            {
              "internalType": "address",
              "name": "IndividualGrantee",
              "type": "address"
            }
          ],
          "internalType": "struct ZkVote.ResultsandAddresses[]",
          "name": "",
          "type": "tuple[]"
        }
      ],
      "stateMutability": "view",
      "type": "function"
    },
    {
      "inputs": [
        {
          "internalType": "uint256",
          "name": "groupId",
          "type": "uint256"
        }
      ],
      "name": "getNumberOfLeaves",
      "outputs": [
        {
          "internalType": "uint256",
          "name": "",
          "type": "uint256"
        }
      ],
      "stateMutability": "view",
      "type": "function"
    },
    {
      "inputs": [
        {
          "internalType": "uint256",
          "name": "groupId",
          "type": "uint256"
        }
      ],
      "name": "getRoot",
      "outputs": [
        {
          "internalType": "uint256",
          "name": "",
          "type": "uint256"
        }
      ],
      "stateMutability": "view",
      "type": "function"
    },
    {
      "inputs": [
        {
          "internalType": "uint256",
          "name": "_pollId",
          "type": "uint256"
        }
      ],
      "name": "getlatestVotes",
      "outputs": [
        {
          "components": [
            {
              "internalType": "bytes32",
              "name": "proposals",
              "type": "bytes32"
            },
            {
              "internalType": "uint256",
              "name": "votes",
              "type": "uint256"
            }
          ],
          "internalType": "struct ZkVote.Results[]",
          "name": "",
          "type": "tuple[]"
        }
      ],
      "stateMutability": "view",
      "type": "function"
    },
    {
      "inputs": [
        {
          "internalType": "uint256",
          "name": "_id",
          "type": "uint256"
        }
      ],
      "name": "getproposals",
      "outputs": [
        {
          "internalType": "bytes32[]",
          "name": "",
          "type": "bytes32[]"
        }
      ],
      "stateMutability": "view",
      "type": "function"
    },
    {
      "inputs": [
        {
          "internalType": "uint256",
          "name": "",
          "type": "uint256"
        }
      ],
      "name": "nullifierHashes",
      "outputs": [
        {
          "internalType": "bool",
          "name": "",
          "type": "bool"
        }
      ],
      "stateMutability": "view",
      "type": "function"
    },
    {
      "inputs": [
        {
          "internalType": "uint256",
          "name": "",
          "type": "uint256"
        }
      ],
      "name": "polls",
      "outputs": [
        {
          "internalType": "address",
          "name": "coordinator",
          "type": "address"
        },
        {
          "internalType": "enum ZkVote.PollState",
          "name": "pollstate",
          "type": "uint8"
        },
        {
          "internalType": "uint64",
          "name": "endtime",
          "type": "uint64"
        },
        {
          "internalType": "bytes32",
          "name": "pollname",
          "type": "bytes32"
        },
        {
          "internalType": "string",
          "name": "description",
          "type": "string"
        },
        {
          "internalType": "uint256",
          "name": "fund",
          "type": "uint256"
        }
      ],
      "stateMutability": "view",
      "type": "function"
    },
    {
      "inputs": [
        {
          "internalType": "uint256",
          "name": "",
          "type": "uint256"
        }
      ],
      "name": "verifiers",
      "outputs": [
        {
          "internalType": "contract IVerifier",
          "name": "",
          "type": "address"
        }
      ],
      "stateMutability": "view",
      "type": "function"
    }
  ],
  "bytecode": {
    "object": "0x608060405260405162002118380380620021188339810160408190526200002691620001d6565b80518251146200004957604051637700949960e11b815260040160405180910390fd5b815160005b81811015620000d3578281815181106200006c576200006c6200029d565b6020026020010151600260008684815181106200008d576200008d6200029d565b6020026020010151815260200190815260200160002060006101000a8154816001600160a01b0302191690836001600160a01b031602179055508060010190506200004e565b50505050620002b3565b634e487b7160e01b600052604160045260246000fd5b604051601f8201601f191681016001600160401b03811182821017156200011e576200011e620000dd565b604052919050565b60006001600160401b03821115620001425762000142620000dd565b5060051b60200190565b600082601f8301126200015e57600080fd5b8151602062000177620001718362000126565b620000f3565b82815260059290921b840181019181810190868411156200019757600080fd5b8286015b84811015620001cb5780516001600160a01b0381168114620001bd5760008081fd5b83529183019183016200019b565b509695505050505050565b60008060408385031215620001ea57600080fd5b82516001600160401b03808211156200020257600080fd5b818501915085601f8301126200021757600080fd5b815160206200022a620001718362000126565b82815260059290921b840181019181810190898411156200024a57600080fd5b948201945b838610156200026a578551825294820194908201906200024f565b918801519196509093505050808211156200028457600080fd5b5062000293858286016200014c565b9150509250929050565b634e487b7160e01b600052603260045260246000fd5b611e5580620002c36000396000f3fe6080604052600436106100f35760003560e01c80637a7aa8981161008a578063ac2f007411610059578063ac2f007414610332578063b9c78c2b14610364578063c924828714610394578063e9f73a0c146103b457600080fd5b80637a7aa898146102685780638d5d77ae1461027b5780639b24b3b0146102b3578063ac1eff68146102e457600080fd5b80633c464bd3116100c65780633c464bd3146101b0578063420aca5f146101dd57806375e618c9146101fd5780637a0f5e2f1461023b57600080fd5b806312789fe1146100f85780631ae187a81461012e5780631f79a1e9146101505780633143a17814610190575b600080fd5b34801561010457600080fd5b5061011861011336600461153c565b6103d4565b6040516101259190611555565b60405180910390f35b34801561013a57600080fd5b5061014e610149366004611599565b610439565b005b34801561015c57600080fd5b5061018061016b36600461153c565b60006020819052908152604090205460ff1681565b6040519015158152602001610125565b34801561019c57600080fd5b5061014e6101ab366004611606565b6104c7565b3480156101bc57600080fd5b506101d06101cb36600461153c565b61055d565b6040516101259190611688565b3480156101e957600080fd5b5061014e6101f836600461153c565b610682565b34801561020957600080fd5b5061022d61021836600461153c565b60009081526001602052604090205460ff1690565b604051908152602001610125565b34801561024757600080fd5b5061025b61025636600461153c565b610850565b60405161012591906116d7565b61014e61027636600461181e565b6109a9565b34801561028757600080fd5b5061022d610296366004611599565b600360209081526000928352604080842090915290825290205481565b3480156102bf57600080fd5b5061022d6102ce36600461153c565b6000908152600160208190526040909120015490565b3480156102f057600080fd5b5061031a6102ff36600461153c565b6002602052600090815260409020546001600160a01b031681565b6040516001600160a01b039091168152602001610125565b34801561033e57600080fd5b5061035261034d36600461153c565b610b96565b60405161012596959493929190611996565b34801561037057600080fd5b5061022d61037f36600461153c565b60009081526001602052604090206002015490565b3480156103a057600080fd5b5061014e6103af366004611a04565b610c6d565b3480156103c057600080fd5b5061014e6103cf366004611a40565b610d4e565b60008181526004602090815260409182902060030180548351818402810184019094528084526060939283018282801561042d57602002820191906000526020600020905b815481526020019060010190808311610419575b50505050509050919050565b60008281526004602052604090205482906001600160a01b0316331461047257604051636209c08b60e01b815260040160405180910390fd5b60008084815260046020526040902054600160a01b900460ff16801561049a5761049a611933565b146104b857604051637c61cfe160e11b815260040160405180910390fd5b6104c28383610f23565b505050565b60008681526004602052604090205486906001600160a01b0316331461050057604051636209c08b60e01b815260040160405180910390fd5b60008088815260046020526040902054600160a01b900460ff16801561052857610528611933565b1461054657604051637c61cfe160e11b815260040160405180910390fd5b61055487878787878761101b565b50505050505050565b6000818152600460208190526040822060038101549101546060920361067c576000816001600160401b038111156105975761059761172c565b6040519080825280602002602001820160405280156105dc57816020015b60408051808201909152600080825260208201528152602001906001900390816105b55790505b50905060005b8281101561067457600085815260046020526040812060030180548390811061060d5761060d611adc565b60009182526020808320909101546040805180820182528281528a855260038452818520838652845293205491830191909152845190925084908490811061065757610657611adc565b6020026020010181905250508061066d90611b08565b90506105e2565b509392505050565b50919050565b60008181526004602081905260408220908101549054600160a81b90046001600160401b03164210156106c857604051633b64027560e01b815260040160405180910390fd5b6000816001600160401b038111156106e2576106e261172c565b60405190808252806020026020018201604052801561070b578160200160208202803683370190505b509050600061071985610850565b905060005b81858151811061073057610730611adc565b60200260200101516020015183868151811061074e5761074e611adc565b60200260200101818152505081858151811061076c5761076c611adc565b602002602001015160200151816107839190611b21565b905084600101945061071e565b6000808483815181106107a5576107a5611adc565b6020026020010151604001516001600160a01b0316848785815181106107cd576107cd611adc565b60200260200101516107df9190611b39565b604051600081818185875af1925050503d806000811461081b576040519150601f19603f3d011682016040523d82523d6000602084013e610820565b606091505b5091509150816108435760405163356fe56160e21b815260040160405180910390fd5b8760010197505050610790565b600081815260046020526040812060030154606091816001600160401b0381111561087d5761087d61172c565b6040519080825280602002602001820160405280156108c857816020015b604080516060810182526000808252602080830182905292820152825260001990920191018161089b5790505b50905060005b828110156106745760008581526004602052604081206003018054839081106108f9576108f9611adc565b90600052602060002001549050600060046000888152602001908152602001600020600401838154811061092f5761092f611adc565b6000918252602080832090910154604080516060810182528681528b85526003845281852087865284529381902054928401929092526001600160a01b0316908201819052855190925085908590811061098b5761098b611adc565b60200260200101819052505050806109a290611b08565b90506108ce565b60006109b489611127565b90506109c181848461115e565b6040805161010081018252600060208201819052918101829052606060c0820181905260e082018390526001600160a01b038716825281018b9052608081018a905260a08101899052908615801590610a1a5750885187145b90508015610a615787878080602002602001604051908101604052809392919081815260200183836020028082843760009201919091525050505060c08301523460e08301525b6000838152600460209081526040909120835181546001600160a01b031981166001600160a01b039092169182178355928501518593909183916001600160a81b03191617600160a01b838015610aba57610aba611933565b0217905550604082015181546001600160401b03909116600160a81b0267ffffffffffffffff60a81b199091161781556060820151600182015560808201516002820190610b089082611bdd565b5060a08201518051610b24916003840191602090910190611487565b5060c08201518051610b409160048401916020909101906114d2565b5060e082015181600501559050508a837f40b5355208340c3f3f4d7d5a625416bce4b69d9f97cc17f530daf7d5d4ced8ac888d604051610b81929190611c9c565b60405180910390a35050505050505050505050565b6004602052600090815260409020805460018201546002830180546001600160a01b03841694600160a01b850460ff1694600160a81b90046001600160401b031693929091610be490611b5b565b80601f0160208091040260200160405190810160405280929190818152602001828054610c1090611b5b565b8015610c5d5780601f10610c3257610100808354040283529160200191610c5d565b820191906000526020600020905b815481529060010190602001808311610c4057829003601f168201915b5050505050908060050154905086565b60008281526004602052604081208054909190600160a01b900460ff168015610c9857610c98611933565b14610cb657604051637c61cfe160e11b815260040160405180910390fd5b42826001600160401b03161015610ce05760405163118818d160e01b815260040160405180910390fd5b805467ffffffffffffffff60a81b1916600160a81b6001600160401b0384811691820292909217835560408051429093168352602083019190915284917fbf33d75a411657e8190a3e1cb2d7ca4705a4f7f84697d327f815fafb4c4fae9591015b60405180910390a2505050565b60008281526004602052604090205442600160a81b9091046001600160401b03161015610d8e576040516370bc763160e01b815260040160405180910390fd5b858414610dae57604051637700949960e11b815260040160405180910390fd5b6000828152600160208181526040808420805493015460ff909316808552600290925283205490926001600160a01b0390911690610e08908b908b9081610df757610df7611adc565b90506020020135838888888661128c565b610e27866000908152602081905260409020805460ff19166001179055565b600087815b818110610e4c57604051637fcce2a960e01b815260040160405180910390fd5b8a8a82818110610e5e57610e5e611adc565b905060200201358b8b83818110610e7757610e77611adc565b90506020020135610e889190611cc8565b6000898152600360205260408120908f8f85818110610ea957610ea9611adc565b9050602002013581526020019081526020016000206000828254610ecd9190611b21565b909155508b90508a82818110610ee557610ee5611adc565b905060200201358b8b83818110610efe57610efe611adc565b90506020020135610f0f9190611cc8565b610f199084611b21565b9250600101610e2c565b60008281526001602052604090205460ff16600003610f555760405163029f057960e01b815260040160405180910390fd5b600082815260016020526040908190209051630b4381fd60e11b815260048101919091526024810182905273c3a32b932ab88918764fcc2684ab29e88b59bf7c9063168703fa9060440160006040518083038186803b158015610fb757600080fd5b505af4158015610fcb573d6000803e3d6000fd5b505050600083815260016020818152604092839020909101548251858152918201819052925084917f03fd27265b7dd1f55558bedc22a58fa3b10afb1be776e614bd5a7ba7b94994069101610d41565b60008681526001602052604090205460ff1660000361104d5760405163029f057960e01b815260040160405180910390fd5b600086815260016020526040908190209051630629596f60e01b815273c3a32b932ab88918764fcc2684ab29e88b59bf7c91630629596f9161109c919089908990899089908990600401611ce7565b60006040518083038186803b1580156110b457600080fd5b505af41580156110c8573d6000803e3d6000fd5b505050600087815260016020819052604082200154909150604080518881526020810183905291925088917fe270325ded177064d7bda473e6519ef40a291058c41286f71a6e4872f1e9ab5c910160405180910390a250505050505050565b600060088260405160200161113e91815260200190565b60408051601f198184030181529190528051602090910120901c92915050565b7f30644e72e131a029b85045b68181585d2833e84879b9709143e1f593f0000001831061119e5760405163530e3c6560e11b815260040160405180910390fd5b60008381526001602052604090205460ff16156111ce57604051638121725b60e01b815260040160405180910390fd5b60008381526001602052604090819020905163b4bdd11760e01b8152600481019190915260ff831660248201526044810182905273c3a32b932ab88918764fcc2684ab29e88b59bf7c9063b4bdd1179060640160006040518083038186803b15801561123957600080fd5b505af415801561124d573d6000803e3d6000fd5b50506040805160ff86168152602081018590528693507fc3082aa494e9088c2c9f0fb62a0b6bd46e6699acb94cfba35be29b95a93f68c8925001610d41565b60008481526020819052604090205460ff161561130e5760405162461bcd60e51b815260206004820152603660248201527f53656d6170686f7265436f72653a20796f752063616e6e6f7420757365207468604482015275652073616d65206e756c6c696669657220747769636560501b606482015260840160405180910390fd5b600061131987611127565b9050816001600160a01b0316635fe8c13b60405180604001604052808660006008811061134857611348611adc565b602002013581526020018660016008811061136557611365611adc565b60200201359052604080516080810182528782013591810191825290819060608201896003602002013581525081526020016040518060400160405280896004600881106113b5576113b5611adc565b60200201358152602001896005600881106113d2576113d2611adc565b6020020135905290526040805180820190915280886006602002013581526020018860076008811061140657611406611adc565b602002013581525060405180608001604052808c81526020018b81526020018781526020018a8152506040518563ffffffff1660e01b815260040161144e9493929190611d9b565b60006040518083038186803b15801561146657600080fd5b505afa15801561147a573d6000803e3d6000fd5b5050505050505050505050565b8280548282559060005260206000209081019282156114c2579160200282015b828111156114c25782518255916020019190600101906114a7565b506114ce929150611527565b5090565b8280548282559060005260206000209081019282156114c2579160200282015b828111156114c257825182546001600160a01b0319166001600160a01b039091161782556020909201916001909101906114f2565b5b808211156114ce5760008155600101611528565b60006020828403121561154e57600080fd5b5035919050565b6020808252825182820181905260009190848201906040850190845b8181101561158d57835183529284019291840191600101611571565b50909695505050505050565b600080604083850312156115ac57600080fd5b50508035926020909101359150565b60008083601f8401126115cd57600080fd5b5081356001600160401b038111156115e457600080fd5b6020830191508360208260051b85010111156115ff57600080fd5b9250929050565b6000806000806000806080878903121561161f57600080fd5b863595506020870135945060408701356001600160401b038082111561164457600080fd5b6116508a838b016115bb565b9096509450606089013591508082111561166957600080fd5b5061167689828a016115bb565b979a9699509497509295939492505050565b602080825282518282018190526000919060409081850190868401855b828110156116ca578151805185528601518685015292840192908501906001016116a5565b5091979650505050505050565b602080825282518282018190526000919060409081850190868401855b828110156116ca5781518051855286810151878601528501516001600160a01b031685850152606090930192908501906001016116f4565b634e487b7160e01b600052604160045260246000fd5b604051601f8201601f191681016001600160401b038111828210171561176a5761176a61172c565b604052919050565b600082601f83011261178357600080fd5b813560206001600160401b0382111561179e5761179e61172c565b8160051b6117ad828201611742565b92835284810182019282810190878511156117c757600080fd5b83870192505b848310156117e6578235825291830191908301906117cd565b979650505050505050565b80356001600160a01b038116811461180857600080fd5b919050565b803560ff8116811461180857600080fd5b60008060008060008060008060e0898b03121561183a57600080fd5b883597506020808a01356001600160401b038082111561185957600080fd5b818c0191508c601f83011261186d57600080fd5b81358181111561187f5761187f61172c565b611891601f8201601f19168501611742565b8181528e858386010111156118a557600080fd5b818585018683013760009181019094015291985060408b013591808311156118cc57600080fd5b6118d88d848e01611772565b985060608c01359250808311156118ee57600080fd5b50506118fc8b828c016115bb565b909650945061190f905060808a016117f1565b925061191d60a08a0161180d565b915060c089013590509295985092959890939650565b634e487b7160e01b600052602160045260246000fd5b6000815180845260005b8181101561196f57602081850181015186830182015201611953565b81811115611981576000602083870101525b50601f01601f19169290920160200192915050565b6001600160a01b03871681526000600187106119c257634e487b7160e01b600052602160045260246000fd5b8660208301526001600160401b038616604083015284606083015260c060808301526119f160c0830185611949565b90508260a0830152979650505050505050565b60008060408385031215611a1757600080fd5b8235915060208301356001600160401b0381168114611a3557600080fd5b809150509250929050565b600080600080600080600061018080898b031215611a5d57600080fd5b88356001600160401b0380821115611a7457600080fd5b611a808c838d016115bb565b909a50985060208b0135915080821115611a9957600080fd5b50611aa68b828c016115bb565b90975095505060408901359350606089013592508089018a1015611ac957600080fd5b5060808801905092959891949750929550565b634e487b7160e01b600052603260045260246000fd5b634e487b7160e01b600052601160045260246000fd5b600060018201611b1a57611b1a611af2565b5060010190565b60008219821115611b3457611b34611af2565b500190565b600082611b5657634e487b7160e01b600052601260045260246000fd5b500490565b600181811c90821680611b6f57607f821691505b60208210810361067c57634e487b7160e01b600052602260045260246000fd5b601f8211156104c257600081815260208120601f850160051c81016020861015611bb65750805b601f850160051c820191505b81811015611bd557828155600101611bc2565b505050505050565b81516001600160401b03811115611bf657611bf661172c565b611c0a81611c048454611b5b565b84611b8f565b602080601f831160018114611c3f5760008415611c275750858301515b600019600386901b1c1916600185901b178555611bd5565b600085815260208120601f198616915b82811015611c6e57888601518255948401946001909101908401611c4f565b5085821015611c8c5787850151600019600388901b60f8161c191681555b5050505050600190811b01905550565b6001600160a01b0383168152604060208201819052600090611cc090830184611949565b949350505050565b6000816000190483118215151615611ce257611ce2611af2565b500290565b8681526000602087818401526080604084015285608084015260018060fb1b03861115611d1357600080fd5b8560051b808860a0860137830183810360a090810160608601528101859052859060009060c0015b86821015611d635760ff611d4e8461180d565b16815291830191600191909101908301611d3b565b9b9a5050505050505050505050565b8060005b6002811015611d95578151845260209384019390910190600101611d76565b50505050565b6101808101611daa8287611d72565b60408083018660005b6002811015611dda57611dc7838351611d72565b9183019160209190910190600101611db3565b50505050611deb60c0830185611d72565b61010082018360005b6004811015611e13578151835260209283019290910190600101611df4565b5050509594505050505056fea264697066735822122048a27a097b2251642e96ad155c8b88ef0389ec0b3ba3aa4ab56ca0d712b3ea8564736f6c634300080f0033",
    "linkReferences": {}
  },
  "methodIdentifiers": {
    "Addvoter(uint256,uint256)": "1ae187a8",
    "NewVoteInstance(bytes32,string,bytes32[],address[],address,uint8,uint256)": "7a7aa898",
    "RemoveVoter(uint256,uint256,uint256[],uint8[])": "3143a178",
    "StartPoll(uint256,uint64)": "c9248287",
    "VotesperProposal(uint256,bytes32)": "8d5d77ae",
    "castVote(bytes32[],uint256[],uint256,uint256,uint256[8])": "e9f73a0c",
    "disperse(uint256)": "420aca5f",
    "getDepth(uint256)": "75e618c9",
    "getLatestVotesWithGrantees(uint256)": "7a0f5e2f",
    "getNumberOfLeaves(uint256)": "b9c78c2b",
    "getRoot(uint256)": "9b24b3b0",
    "getlatestVotes(uint256)": "3c464bd3",
    "getproposals(uint256)": "12789fe1",
    "nullifierHashes(uint256)": "1f79a1e9",
    "polls(uint256)": "ac2f0074",
    "verifiers(uint256)": "ac1eff68"
  },
  "id": 5
}