{
  "abi": [
    {
      "inputs": [
        {
          "internalType": "uint256[]",
          "name": "_depths",
          "type": "uint256[]"
        },
        {
          "internalType": "address[]",
          "name": "_verifieraddresses",
          "type": "address[]"
        }
      ],
      "stateMutability": "payable",
      "type": "constructor"
    },
    {
      "inputs": [],
      "name": "NotAdmin",
      "type": "error"
    },
    {
      "inputs": [],
      "name": "NotSamelength",
      "type": "error"
    },
    {
      "inputs": [],
      "name": "Semaphore__GroupAlreadyExists",
      "type": "error"
    },
    {
      "inputs": [],
      "name": "Semaphore__GroupDoesNotExist",
      "type": "error"
    },
    {
      "inputs": [],
      "name": "Semaphore__GroupIdIsNotLessThanSnarkScalarField",
      "type": "error"
    },
    {
      "inputs": [],
      "name": "VotingAlreadyStarted",
      "type": "error"
    },
    {
      "anonymous": false,
      "inputs": [
        {
          "indexed": true,
          "internalType": "uint256",
          "name": "groupId",
          "type": "uint256"
        },
        {
          "indexed": false,
          "internalType": "bytes32",
          "name": "vote",
          "type": "bytes32"
        }
      ],
      "name": "CastedVote",
      "type": "event"
    },
    {
      "anonymous": false,
      "inputs": [
        {
          "indexed": true,
          "internalType": "uint256",
          "name": "groupId",
          "type": "uint256"
        },
        {
          "indexed": false,
          "internalType": "uint8",
          "name": "depth",
          "type": "uint8"
        },
        {
          "indexed": false,
          "internalType": "uint256",
          "name": "zeroValue",
          "type": "uint256"
        }
      ],
      "name": "GroupCreated",
      "type": "event"
    },
    {
      "anonymous": false,
      "inputs": [
        {
          "indexed": true,
          "internalType": "uint256",
          "name": "groupId",
          "type": "uint256"
        },
        {
          "indexed": false,
          "internalType": "uint256",
          "name": "identityCommitment",
          "type": "uint256"
        },
        {
          "indexed": false,
          "internalType": "uint256",
          "name": "root",
          "type": "uint256"
        }
      ],
      "name": "MemberAdded",
      "type": "event"
    },
    {
      "anonymous": false,
      "inputs": [
        {
          "indexed": true,
          "internalType": "uint256",
          "name": "groupId",
          "type": "uint256"
        },
        {
          "indexed": false,
          "internalType": "uint256",
          "name": "identityCommitment",
          "type": "uint256"
        },
        {
          "indexed": false,
          "internalType": "uint256",
          "name": "root",
          "type": "uint256"
        }
      ],
      "name": "MemberRemoved",
      "type": "event"
    },
    {
      "anonymous": false,
      "inputs": [
        {
          "indexed": true,
          "internalType": "uint256",
          "name": "id",
          "type": "uint256"
        },
        {
          "indexed": true,
          "internalType": "bytes32",
          "name": "eventname",
          "type": "bytes32"
        }
      ],
      "name": "NewProposal",
      "type": "event"
    },
    {
      "anonymous": false,
      "inputs": [
        {
          "indexed": false,
          "internalType": "uint256",
          "name": "nullifierHash",
          "type": "uint256"
        }
      ],
      "name": "NullifierHashAdded",
      "type": "event"
    },
    {
      "anonymous": false,
      "inputs": [
        {
          "indexed": true,
          "internalType": "uint256",
          "name": "groupId",
          "type": "uint256"
        },
        {
          "indexed": false,
          "internalType": "uint256",
          "name": "time",
          "type": "uint256"
        }
      ],
      "name": "VoteEnds",
      "type": "event"
    },
    {
      "anonymous": false,
      "inputs": [
        {
          "indexed": true,
          "internalType": "uint256",
          "name": "groupId",
          "type": "uint256"
        },
        {
          "indexed": false,
          "internalType": "uint256",
          "name": "time",
          "type": "uint256"
        }
      ],
      "name": "VoteStarts",
      "type": "event"
    },
    {
      "inputs": [
        {
          "internalType": "uint256",
          "name": "_pollId",
          "type": "uint256"
        },
        {
          "internalType": "uint256",
          "name": "_identitycommitment",
          "type": "uint256"
        }
      ],
      "name": "Addvoter",
      "outputs": [],
      "stateMutability": "nonpayable",
      "type": "function"
    },
    {
      "inputs": [
        {
          "internalType": "bytes32",
          "name": "_eventName",
          "type": "bytes32"
        },
        {
          "internalType": "string",
          "name": "_description",
          "type": "string"
        },
        {
          "internalType": "bytes32[]",
          "name": "_proposals",
          "type": "bytes32[]"
        },
        {
          "internalType": "address",
          "name": "_coordinator",
          "type": "address"
        },
        {
          "internalType": "uint8",
          "name": "_depth",
          "type": "uint8"
        },
        {
          "internalType": "uint256",
          "name": "_zerovalue",
          "type": "uint256"
        }
      ],
      "name": "NewVoteInstance",
      "outputs": [],
      "stateMutability": "nonpayable",
      "type": "function"
    },
    {
      "inputs": [
        {
          "internalType": "uint256",
          "name": "_pollId",
          "type": "uint256"
        },
        {
          "internalType": "uint256",
          "name": "_identityCommitment",
          "type": "uint256"
        },
        {
          "internalType": "uint256[]",
          "name": "_proofSiblings",
          "type": "uint256[]"
        },
        {
          "internalType": "uint8[]",
          "name": "_proofPathIndices",
          "type": "uint8[]"
        }
      ],
      "name": "RemoveVoter",
      "outputs": [],
      "stateMutability": "nonpayable",
      "type": "function"
    },
    {
      "inputs": [
        {
          "internalType": "uint256",
          "name": "_pollId",
          "type": "uint256"
        }
      ],
      "name": "StartPoll",
      "outputs": [],
      "stateMutability": "nonpayable",
      "type": "function"
    },
    {
      "inputs": [
        {
          "internalType": "uint256",
          "name": "",
          "type": "uint256"
        },
        {
          "internalType": "bytes32",
          "name": "",
          "type": "bytes32"
        }
      ],
      "name": "VotesperProposal",
      "outputs": [
        {
          "internalType": "uint256",
          "name": "",
          "type": "uint256"
        }
      ],
      "stateMutability": "view",
      "type": "function"
    },
    {
      "inputs": [
        {
          "internalType": "bytes32[]",
          "name": "_vote",
          "type": "bytes32[]"
        },
        {
          "internalType": "uint256[]",
          "name": "position",
          "type": "uint256[]"
        },
        {
          "internalType": "uint256",
          "name": "_nullifierHash",
          "type": "uint256"
        },
        {
          "internalType": "uint256",
          "name": "_pollId",
          "type": "uint256"
        },
        {
          "internalType": "uint256",
          "name": "_externalNullifier",
          "type": "uint256"
        },
        {
          "internalType": "uint256[8]",
          "name": "_proof",
          "type": "uint256[8]"
        }
      ],
      "name": "castVote",
      "outputs": [],
      "stateMutability": "nonpayable",
      "type": "function"
    },
    {
      "inputs": [
        {
          "internalType": "uint256",
          "name": "_pollId",
          "type": "uint256"
        }
      ],
      "name": "endPoll",
      "outputs": [],
      "stateMutability": "nonpayable",
      "type": "function"
    },
    {
      "inputs": [
        {
          "internalType": "uint256",
          "name": "groupId",
          "type": "uint256"
        }
      ],
      "name": "getDepth",
      "outputs": [
        {
          "internalType": "uint256",
          "name": "",
          "type": "uint256"
        }
      ],
      "stateMutability": "view",
      "type": "function"
    },
    {
      "inputs": [
        {
          "internalType": "uint256",
          "name": "groupId",
          "type": "uint256"
        }
      ],
      "name": "getNumberOfLeaves",
      "outputs": [
        {
          "internalType": "uint256",
          "name": "",
          "type": "uint256"
        }
      ],
      "stateMutability": "view",
      "type": "function"
    },
    {
      "inputs": [
        {
          "internalType": "uint256",
          "name": "groupId",
          "type": "uint256"
        }
      ],
      "name": "getRoot",
      "outputs": [
        {
          "internalType": "uint256",
          "name": "",
          "type": "uint256"
        }
      ],
      "stateMutability": "view",
      "type": "function"
    },
    {
      "inputs": [
        {
          "internalType": "uint256",
          "name": "_pollId",
          "type": "uint256"
        }
      ],
      "name": "getlatestVotes",
      "outputs": [
        {
          "components": [
            {
              "internalType": "bytes32",
              "name": "proposals",
              "type": "bytes32"
            },
            {
              "internalType": "uint256",
              "name": "votes",
              "type": "uint256"
            }
          ],
          "internalType": "struct ZkVote.Results[]",
          "name": "",
          "type": "tuple[]"
        }
      ],
      "stateMutability": "view",
      "type": "function"
    },
    {
      "inputs": [
        {
          "internalType": "uint256",
          "name": "_id",
          "type": "uint256"
        }
      ],
      "name": "getproposals",
      "outputs": [
        {
          "internalType": "bytes32[]",
          "name": "",
          "type": "bytes32[]"
        }
      ],
      "stateMutability": "view",
      "type": "function"
    },
    {
      "inputs": [
        {
          "internalType": "uint256",
          "name": "",
          "type": "uint256"
        }
      ],
      "name": "polls",
      "outputs": [
        {
          "internalType": "address",
          "name": "coordinator",
          "type": "address"
        },
        {
          "internalType": "enum ZkVote.PollState",
          "name": "pollstate",
          "type": "uint8"
        },
        {
          "internalType": "bytes32",
          "name": "pollname",
          "type": "bytes32"
        },
        {
          "internalType": "string",
          "name": "description",
          "type": "string"
        }
      ],
      "stateMutability": "view",
      "type": "function"
    },
    {
      "inputs": [
        {
          "internalType": "uint256",
          "name": "",
          "type": "uint256"
        }
      ],
      "name": "verifiers",
      "outputs": [
        {
          "internalType": "contract IVerifier",
          "name": "",
          "type": "address"
        }
      ],
      "stateMutability": "view",
      "type": "function"
    }
  ],
  "bytecode": {
    "object": "0x608060405260405162001b5a38038062001b5a8339810160408190526200002691620001e0565b805182511462000049576040516368594ec360e11b815260040160405180910390fd5b815160005b81811015620000dd578281815181106200006c576200006c620002a7565b6020026020010151600260008684815181106200008d576200008d620002a7565b6020026020010151815260200190815260200160002060006101000a8154816001600160a01b0302191690836001600160a01b031602179055508080620000d490620002bd565b9150506200004e565b50505050620002e5565b634e487b7160e01b600052604160045260246000fd5b604051601f8201601f191681016001600160401b0381118282101715620001285762000128620000e7565b604052919050565b60006001600160401b038211156200014c576200014c620000e7565b5060051b60200190565b600082601f8301126200016857600080fd5b81516020620001816200017b8362000130565b620000fd565b82815260059290921b84018101918181019086841115620001a157600080fd5b8286015b84811015620001d55780516001600160a01b0381168114620001c75760008081fd5b8352918301918301620001a5565b509695505050505050565b60008060408385031215620001f457600080fd5b82516001600160401b03808211156200020c57600080fd5b818501915085601f8301126200022157600080fd5b81516020620002346200017b8362000130565b82815260059290921b840181019181810190898411156200025457600080fd5b948201945b83861015620002745785518252948201949082019062000259565b918801519196509093505050808211156200028e57600080fd5b506200029d8582860162000156565b9150509250929050565b634e487b7160e01b600052603260045260246000fd5b600060018201620002de57634e487b7160e01b600052601160045260246000fd5b5060010190565b61186580620002f56000396000f3fe608060405234801561001057600080fd5b50600436106100ea5760003560e01c806375e618c91161008c578063ac1eff6811610066578063ac1eff6814610219578063ac2f00741461025a578063b9c78c2b1461027d578063f43b8778146102a057600080fd5b806375e618c9146101995780638d5d77ae146101ca5780639b24b3b0146101f557600080fd5b806337d6e3ff116100c857806337d6e3ff146101405780633c464bd3146101535780633eecf50514610173578063434f89a01461018657600080fd5b806312789fe1146100ef5780631ae187a8146101185780633143a1781461012d575b600080fd5b6101026100fd36600461106a565b6102b3565b60405161010f9190611083565b60405180910390f35b61012b6101263660046110c7565b610318565b005b61012b61013b366004611135565b610360565b61012b61014e3660046112ac565b6103f9565b61016661016136600461106a565b610535565b60405161010f9190611396565b61012b61018136600461106a565b610648565b61012b6101943660046113e5565b6106df565b6101bc6101a736600461106a565b60009081526001602052604090205460ff1690565b60405190815260200161010f565b6101bc6101d83660046110c7565b600360209081526000928352604080842090915290825290205481565b6101bc61020336600461106a565b6000908152600160208190526040909120015490565b61024261022736600461106a565b6002602052600090815260409020546001600160a01b031681565b6040516001600160a01b03909116815260200161010f565b61026d61026836600461106a565b61090c565b60405161010f94939291906114a1565b6101bc61028b36600461106a565b60009081526001602052604090206002015490565b61012b6102ae36600461106a565b6109cc565b60008181526004602090815260409182902060030180548351818402810184019094528084526060939283018282801561030c57602002820191906000526020600020905b8154815260200190600101908083116102f8575b50505050509050919050565b60008281526004602052604090205482906001600160a01b0316331461035157604051637bfa4b9f60e01b815260040160405180910390fd5b61035b8383610aa1565b505050565b60008681526004602052604090205486906001600160a01b0316331461039957604051637bfa4b9f60e01b815260040160405180910390fd5b60008088815260046020526040902054600160a01b900460ff1660028111156103c4576103c461148b565b146103e2576040516301da8d1f60e51b815260040160405180910390fd5b6103f0878787878787610ba2565b50505050505050565b600061040487610cae565b9050610411818484610ce5565b6104426040805160a08101909152600080825260208201908152600060208201526060604082018190529081015290565b6001600160a01b0385811682526000602080840182815260408086018d9052606086018c9052608086018b9052868452600490925291208351815493166001600160a01b0319841681178255915184939192909183916001600160a81b031990911617600160a01b8360028111156104bc576104bc61148b565b021790555060408201516001820155606082015160028201906104df90826115bb565b50608082015180516104fb91600384019160209091019061100a565b505060405189915083907ff0b2ac8f7edb7f69b99729b985a70c27bafd0f86fedc1bb17c3da61706355fbd90600090a35050505050505050565b6000818152600460205260408120600301546060918167ffffffffffffffff811115610563576105636111b8565b6040519080825280602002602001820160405280156105a857816020015b60408051808201909152600080825260208201528152602001906001900390816105815790505b50905060005b828110156106405760008581526004602052604081206003018054839081106105d9576105d961167b565b60009182526020808320909101546040805180820182528281528a85526003845281852083865284529320549183019190915284519092508490849081106106235761062361167b565b60200260200101819052505080610639906116a7565b90506105ae565b509392505050565b60008181526004602052604081208054909190600160a01b900460ff1660028111156106765761067661148b565b14610694576040516301da8d1f60e51b815260040160405180910390fd5b805460ff60a01b1916600160a01b17815560405142815282907ff2f86ca4cc0873f65a3d53bebcffc02debf8614e74f094b0fb5f6bf10c1efd16906020015b60405180910390a25050565b6001600084815260046020526040902054600160a01b900460ff16600281111561070b5761070b61148b565b14610729576040516301da8d1f60e51b815260040160405180910390fd5b86851461076e5760405162461bcd60e51b815260206004820152600e60248201526d0aadccae2eac2d840d8cadccee8d60931b60448201526064015b60405180910390fd5b6000838152600160208181526040808420805493015460ff909316808552600290925283205490926001600160a01b03909116906107c8908c908c90816107b7576107b761167b565b905060200201358389888886610e13565b6107e7876000908152602081905260409020805460ff19166001179055565b6000805b898110156108c1578a8a828181106108055761080561167b565b905060200201358b8b8381811061081e5761081e61167b565b9050602002013561082f91906116c0565b6000898152600360205260408120908f8f858181106108505761085061167b565b905060200201358152602001908152602001600020819055508a8a8281811061087b5761087b61167b565b905060200201358b8b838181106108945761089461167b565b905060200201356108a591906116c0565b6108af90836116df565b91506108ba816116a7565b90506107eb565b5060648111156108fe5760405162461bcd60e51b8152602060048201526008602482015267115e18d95959195960c21b6044820152606401610765565b505050505050505050505050565b6004602052600090815260409020805460018201546002830180546001600160a01b03841694600160a01b90940460ff1693919061094990611533565b80601f016020809104026020016040519081016040528092919081815260200182805461097590611533565b80156109c25780601f10610997576101008083540402835291602001916109c2565b820191906000526020600020905b8154815290600101906020018083116109a557829003601f168201915b5050505050905084565b60008181526004602052604090205481906001600160a01b03163314610a0557604051637bfa4b9f60e01b815260040160405180910390fd5b6001600083815260046020526040902054600160a01b900460ff166002811115610a3157610a3161148b565b14610a4f576040516301da8d1f60e51b815260040160405180910390fd5b600082815260046020908152604091829020805460ff60a01b1916600160a11b179055905142815283917ff170ccceabf4d2ab2281a1f7df1d8db542e71a1a7fb94b022f12d9b15aa4c2fb91016106d3565b60008281526001602052604090205460ff16600003610ad35760405163029f057960e01b815260040160405180910390fd5b600082815260016020526040908190209051630b4381fd60e11b81526004810191909152602481018290527308de038d364e9a8864eea8c9586901ca12284fe19063168703fa9060440160006040518083038186803b158015610b3557600080fd5b505af4158015610b49573d6000803e3d6000fd5b505050600083815260016020818152604092839020909101548251858152918201819052925084917f03fd27265b7dd1f55558bedc22a58fa3b10afb1be776e614bd5a7ba7b949940691015b60405180910390a2505050565b60008681526001602052604090205460ff16600003610bd45760405163029f057960e01b815260040160405180910390fd5b600086815260016020526040908190209051630629596f60e01b81527308de038d364e9a8864eea8c9586901ca12284fe191630629596f91610c239190899089908990899089906004016116f7565b60006040518083038186803b158015610c3b57600080fd5b505af4158015610c4f573d6000803e3d6000fd5b505050600087815260016020819052604082200154909150604080518881526020810183905291925088917fe270325ded177064d7bda473e6519ef40a291058c41286f71a6e4872f1e9ab5c910160405180910390a250505050505050565b6000600882604051602001610cc591815260200190565b60408051601f198184030181529190528051602090910120901c92915050565b7f30644e72e131a029b85045b68181585d2833e84879b9709143e1f593f00000018310610d255760405163530e3c6560e11b815260040160405180910390fd5b60008381526001602052604090205460ff1615610d5557604051638121725b60e01b815260040160405180910390fd5b60008381526001602052604090819020905163b4bdd11760e01b8152600481019190915260ff83166024820152604481018290527308de038d364e9a8864eea8c9586901ca12284fe19063b4bdd1179060640160006040518083038186803b158015610dc057600080fd5b505af4158015610dd4573d6000803e3d6000fd5b50506040805160ff86168152602081018590528693507fc3082aa494e9088c2c9f0fb62a0b6bd46e6699acb94cfba35be29b95a93f68c8925001610b95565b60008481526020819052604090205460ff1615610e915760405162461bcd60e51b815260206004820152603660248201527f53656d6170686f7265436f72653a20796f752063616e6e6f7420757365207468604482015275652073616d65206e756c6c696669657220747769636560501b6064820152608401610765565b6000610e9c87610cae565b9050816001600160a01b0316635fe8c13b604051806040016040528086600060088110610ecb57610ecb61167b565b6020020135815260200186600160088110610ee857610ee861167b565b6020020135905260408051608081018252878201359181019182529081906060820189600360200201358152508152602001604051806040016040528089600460088110610f3857610f3861167b565b6020020135815260200189600560088110610f5557610f5561167b565b60200201359052905260408051808201909152808860066020020135815260200188600760088110610f8957610f8961167b565b602002013581525060405180608001604052808c81526020018b81526020018781526020018a8152506040518563ffffffff1660e01b8152600401610fd194939291906117ab565b60006040518083038186803b158015610fe957600080fd5b505afa158015610ffd573d6000803e3d6000fd5b5050505050505050505050565b828054828255906000526020600020908101928215611045579160200282015b8281111561104557825182559160200191906001019061102a565b50611051929150611055565b5090565b5b808211156110515760008155600101611056565b60006020828403121561107c57600080fd5b5035919050565b6020808252825182820181905260009190848201906040850190845b818110156110bb5783518352928401929184019160010161109f565b50909695505050505050565b600080604083850312156110da57600080fd5b50508035926020909101359150565b60008083601f8401126110fb57600080fd5b50813567ffffffffffffffff81111561111357600080fd5b6020830191508360208260051b850101111561112e57600080fd5b9250929050565b6000806000806000806080878903121561114e57600080fd5b8635955060208701359450604087013567ffffffffffffffff8082111561117457600080fd5b6111808a838b016110e9565b9096509450606089013591508082111561119957600080fd5b506111a689828a016110e9565b979a9699509497509295939492505050565b634e487b7160e01b600052604160045260246000fd5b604051601f8201601f1916810167ffffffffffffffff811182821017156111f7576111f76111b8565b604052919050565b600082601f83011261121057600080fd5b8135602067ffffffffffffffff82111561122c5761122c6111b8565b8160051b61123b8282016111ce565b928352848101820192828101908785111561125557600080fd5b83870192505b848310156112745782358252918301919083019061125b565b979650505050505050565b80356001600160a01b038116811461129657600080fd5b919050565b803560ff8116811461129657600080fd5b60008060008060008060c087890312156112c557600080fd5b8635955060208088013567ffffffffffffffff808211156112e557600080fd5b818a0191508a601f8301126112f957600080fd5b81358181111561130b5761130b6111b8565b61131d601f8201601f191685016111ce565b8181528c8583860101111561133157600080fd5b81858501868301376000918101909401529196506040890135918083111561135857600080fd5b505061136689828a016111ff565b9450506113756060880161127f565b92506113836080880161129b565b915060a087013590509295509295509295565b602080825282518282018190526000919060409081850190868401855b828110156113d8578151805185528601518685015292840192908501906001016113b3565b5091979650505050505050565b6000806000806000806000806101a0808a8c03121561140357600080fd5b893567ffffffffffffffff8082111561141b57600080fd5b6114278d838e016110e9565b909b50995060208c013591508082111561144057600080fd5b5061144d8c828d016110e9565b90985096505060408a0135945060608a0135935060808a01359250808a018b101561147757600080fd5b5060a0890190509295985092959890939650565b634e487b7160e01b600052602160045260246000fd5b6001600160a01b038516815260006020600386106114cf57634e487b7160e01b600052602160045260246000fd5b858184015284604084015260806060840152835180608085015260005b818110156115085785810183015185820160a0015282016114ec565b8181111561151a57600060a083870101525b50601f01601f19169290920160a0019695505050505050565b600181811c9082168061154757607f821691505b60208210810361156757634e487b7160e01b600052602260045260246000fd5b50919050565b601f82111561035b57600081815260208120601f850160051c810160208610156115945750805b601f850160051c820191505b818110156115b3578281556001016115a0565b505050505050565b815167ffffffffffffffff8111156115d5576115d56111b8565b6115e9816115e38454611533565b8461156d565b602080601f83116001811461161e57600084156116065750858301515b600019600386901b1c1916600185901b1785556115b3565b600085815260208120601f198616915b8281101561164d5788860151825594840194600190910190840161162e565b508582101561166b5787850151600019600388901b60f8161c191681555b5050505050600190811b01905550565b634e487b7160e01b600052603260045260246000fd5b634e487b7160e01b600052601160045260246000fd5b6000600182016116b9576116b9611691565b5060010190565b60008160001904831182151516156116da576116da611691565b500290565b600082198211156116f2576116f2611691565b500190565b8681526000602087818401526080604084015285608084015260018060fb1b0386111561172357600080fd5b8560051b808860a0860137830183810360a090810160608601528101859052859060009060c0015b868210156117735760ff61175e8461129b565b1681529183019160019190910190830161174b565b9b9a5050505050505050505050565b8060005b60028110156117a5578151845260209384019390910190600101611786565b50505050565b61018081016117ba8287611782565b60408083018660005b60028110156117ea576117d7838351611782565b91830191602091909101906001016117c3565b505050506117fb60c0830185611782565b61010082018360005b6004811015611823578151835260209283019290910190600101611804565b5050509594505050505056fea264697066735822122082308676deba4b0d7a24823c129d678fe205b609c6e635380eeeff08eadbaa9164736f6c634300080f0033",
    "linkReferences": {}
  },
  "methodIdentifiers": {
    "Addvoter(uint256,uint256)": "1ae187a8",
    "NewVoteInstance(bytes32,string,bytes32[],address,uint8,uint256)": "37d6e3ff",
    "RemoveVoter(uint256,uint256,uint256[],uint8[])": "3143a178",
    "StartPoll(uint256)": "3eecf505",
    "VotesperProposal(uint256,bytes32)": "8d5d77ae",
    "castVote(bytes32[],uint256[],uint256,uint256,uint256,uint256[8])": "434f89a0",
    "endPoll(uint256)": "f43b8778",
    "getDepth(uint256)": "75e618c9",
    "getNumberOfLeaves(uint256)": "b9c78c2b",
    "getRoot(uint256)": "9b24b3b0",
    "getlatestVotes(uint256)": "3c464bd3",
    "getproposals(uint256)": "12789fe1",
    "polls(uint256)": "ac2f0074",
    "verifiers(uint256)": "ac1eff68"
  },
  "id": 7
}