{
  "abi": [
    {
      "inputs": [
        {
          "internalType": "uint8[]",
          "name": "_depths",
          "type": "uint8[]"
        },
        {
          "internalType": "address[]",
          "name": "_verifieraddresses",
          "type": "address[]"
        }
      ],
      "stateMutability": "payable",
      "type": "constructor"
    },
    {
      "inputs": [],
      "name": "NotAdmin",
      "type": "error"
    },
    {
      "inputs": [],
      "name": "NotSamelength",
      "type": "error"
    },
    {
      "inputs": [],
      "name": "Semaphore__GroupAlreadyExists",
      "type": "error"
    },
    {
      "inputs": [],
      "name": "Semaphore__GroupDoesNotExist",
      "type": "error"
    },
    {
      "inputs": [],
      "name": "Semaphore__GroupIdIsNotLessThanSnarkScalarField",
      "type": "error"
    },
    {
      "inputs": [],
      "name": "Semaphore__YouAreUsingTheSameNillifierTwice",
      "type": "error"
    },
    {
      "inputs": [],
      "name": "VotingAlreadyStarted",
      "type": "error"
    },
    {
      "anonymous": false,
      "inputs": [
        {
          "indexed": true,
          "internalType": "uint256",
          "name": "groupId",
          "type": "uint256"
        },
        {
          "indexed": false,
          "internalType": "bytes32",
          "name": "vote",
          "type": "bytes32"
        }
      ],
      "name": "CastedVote",
      "type": "event"
    },
    {
      "anonymous": false,
      "inputs": [
        {
          "indexed": true,
          "internalType": "uint256",
          "name": "groupId",
          "type": "uint256"
        },
        {
          "indexed": false,
          "internalType": "uint8",
          "name": "depth",
          "type": "uint8"
        },
        {
          "indexed": false,
          "internalType": "uint256",
          "name": "zeroValue",
          "type": "uint256"
        }
      ],
      "name": "GroupCreated",
      "type": "event"
    },
    {
      "anonymous": false,
      "inputs": [
        {
          "indexed": true,
          "internalType": "uint256",
          "name": "groupId",
          "type": "uint256"
        },
        {
          "indexed": false,
          "internalType": "uint256",
          "name": "identityCommitment",
          "type": "uint256"
        },
        {
          "indexed": false,
          "internalType": "uint256",
          "name": "root",
          "type": "uint256"
        }
      ],
      "name": "MemberAdded",
      "type": "event"
    },
    {
      "anonymous": false,
      "inputs": [
        {
          "indexed": true,
          "internalType": "uint256",
          "name": "groupId",
          "type": "uint256"
        },
        {
          "indexed": false,
          "internalType": "uint256",
          "name": "identityCommitment",
          "type": "uint256"
        },
        {
          "indexed": false,
          "internalType": "uint256",
          "name": "root",
          "type": "uint256"
        }
      ],
      "name": "MemberRemoved",
      "type": "event"
    },
    {
      "anonymous": false,
      "inputs": [
        {
          "indexed": true,
          "internalType": "uint256",
          "name": "id",
          "type": "uint256"
        },
        {
          "indexed": true,
          "internalType": "address",
          "name": "coordinator",
          "type": "address"
        }
      ],
      "name": "NewProposal",
      "type": "event"
    },
    {
      "anonymous": false,
      "inputs": [
        {
          "indexed": false,
          "internalType": "uint256",
          "name": "nullifierHash",
          "type": "uint256"
        }
      ],
      "name": "NullifierHashAdded",
      "type": "event"
    },
    {
      "anonymous": false,
      "inputs": [
        {
          "indexed": true,
          "internalType": "uint256",
          "name": "groupId",
          "type": "uint256"
        },
        {
          "indexed": false,
          "internalType": "uint256",
          "name": "time",
          "type": "uint256"
        }
      ],
      "name": "VoteEnds",
      "type": "event"
    },
    {
      "anonymous": false,
      "inputs": [
        {
          "indexed": true,
          "internalType": "uint256",
          "name": "groupId",
          "type": "uint256"
        },
        {
          "indexed": false,
          "internalType": "uint256",
          "name": "time",
          "type": "uint256"
        }
      ],
      "name": "VoteStarts",
      "type": "event"
    },
    {
      "inputs": [
        {
          "internalType": "uint256",
          "name": "_pollId",
          "type": "uint256"
        },
        {
          "internalType": "uint256",
          "name": "_identitycommitment",
          "type": "uint256"
        }
      ],
      "name": "Addvoter",
      "outputs": [],
      "stateMutability": "nonpayable",
      "type": "function"
    },
    {
      "inputs": [
        {
          "internalType": "bytes32",
          "name": "_eventName",
          "type": "bytes32"
        },
        {
          "internalType": "string",
          "name": "_description",
          "type": "string"
        },
        {
          "internalType": "bytes32[]",
          "name": "_proposals",
          "type": "bytes32[]"
        },
        {
          "internalType": "address",
          "name": "_coordinator",
          "type": "address"
        },
        {
          "internalType": "uint8",
          "name": "_depth",
          "type": "uint8"
        },
        {
          "internalType": "uint256",
          "name": "_zerovalue",
          "type": "uint256"
        }
      ],
      "name": "NewVoteInstance",
      "outputs": [],
      "stateMutability": "nonpayable",
      "type": "function"
    },
    {
      "inputs": [
        {
          "internalType": "uint256",
          "name": "_pollId",
          "type": "uint256"
        },
        {
          "internalType": "uint256",
          "name": "_identityCommitment",
          "type": "uint256"
        },
        {
          "internalType": "uint256[]",
          "name": "_proofSiblings",
          "type": "uint256[]"
        },
        {
          "internalType": "uint8[]",
          "name": "_proofPathIndices",
          "type": "uint8[]"
        }
      ],
      "name": "RemoveVoter",
      "outputs": [],
      "stateMutability": "nonpayable",
      "type": "function"
    },
    {
      "inputs": [
        {
          "internalType": "uint256",
          "name": "_pollId",
          "type": "uint256"
        }
      ],
      "name": "StartPoll",
      "outputs": [],
      "stateMutability": "nonpayable",
      "type": "function"
    },
    {
      "inputs": [
        {
          "internalType": "uint256",
          "name": "",
          "type": "uint256"
        },
        {
          "internalType": "bytes32",
          "name": "",
          "type": "bytes32"
        }
      ],
      "name": "VotesperProposal",
      "outputs": [
        {
          "internalType": "uint256",
          "name": "",
          "type": "uint256"
        }
      ],
      "stateMutability": "view",
      "type": "function"
    },
    {
      "inputs": [
        {
          "internalType": "bytes32",
          "name": "_vote",
          "type": "bytes32"
        },
        {
          "internalType": "uint256",
          "name": "_nullifierHash",
          "type": "uint256"
        },
        {
          "internalType": "uint256",
          "name": "_pollId",
          "type": "uint256"
        },
        {
          "internalType": "uint256[8]",
          "name": "_proof",
          "type": "uint256[8]"
        }
      ],
      "name": "castVote",
      "outputs": [],
      "stateMutability": "nonpayable",
      "type": "function"
    },
    {
      "inputs": [
        {
          "internalType": "uint256",
          "name": "_pollId",
          "type": "uint256"
        }
      ],
      "name": "endPoll",
      "outputs": [],
      "stateMutability": "nonpayable",
      "type": "function"
    },
    {
      "inputs": [
        {
          "internalType": "uint256",
          "name": "groupId",
          "type": "uint256"
        }
      ],
      "name": "getDepth",
      "outputs": [
        {
          "internalType": "uint8",
          "name": "",
          "type": "uint8"
        }
      ],
      "stateMutability": "view",
      "type": "function"
    },
    {
      "inputs": [
        {
          "internalType": "uint256",
          "name": "groupId",
          "type": "uint256"
        }
      ],
      "name": "getNumberOfLeaves",
      "outputs": [
        {
          "internalType": "uint256",
          "name": "",
          "type": "uint256"
        }
      ],
      "stateMutability": "view",
      "type": "function"
    },
    {
      "inputs": [
        {
          "internalType": "uint256",
          "name": "groupId",
          "type": "uint256"
        }
      ],
      "name": "getRoot",
      "outputs": [
        {
          "internalType": "uint256",
          "name": "",
          "type": "uint256"
        }
      ],
      "stateMutability": "view",
      "type": "function"
    },
    {
      "inputs": [
        {
          "internalType": "uint256",
          "name": "_pollId",
          "type": "uint256"
        }
      ],
      "name": "getlatestVotes",
      "outputs": [
        {
          "components": [
            {
              "internalType": "bytes32",
              "name": "proposals",
              "type": "bytes32"
            },
            {
              "internalType": "uint256",
              "name": "votes",
              "type": "uint256"
            }
          ],
          "internalType": "struct ZkVote.Results[]",
          "name": "",
          "type": "tuple[]"
        }
      ],
      "stateMutability": "view",
      "type": "function"
    },
    {
      "inputs": [
        {
          "internalType": "uint256",
          "name": "",
          "type": "uint256"
        }
      ],
      "name": "polls",
      "outputs": [
        {
          "internalType": "address",
          "name": "coordinator",
          "type": "address"
        },
        {
          "internalType": "enum ZkVote.PollState",
          "name": "pollstate",
          "type": "uint8"
        },
        {
          "internalType": "bytes32",
          "name": "pollname",
          "type": "bytes32"
        },
        {
          "internalType": "string",
          "name": "description",
          "type": "string"
        }
      ],
      "stateMutability": "view",
      "type": "function"
    }
  ],
  "bytecode": {
    "object": "0x6080604052604051620017cf380380620017cf8339810160408190526200002691620001ef565b805182511462000049576040516368594ec360e11b815260040160405180910390fd5b815160005b818160ff161015620000ec57828160ff1681518110620000725762000072620002c7565b602002602001015160026000868460ff1681518110620000965762000096620002c7565b602002602001015160ff1660ff16815260200190815260200160002060006101000a8154816001600160a01b0302191690836001600160a01b031602179055508080620000e390620002dd565b9150506200004e565b505050506200030b565b634e487b7160e01b600052604160045260246000fd5b604051601f8201601f191681016001600160401b0381118282101715620001375762000137620000f6565b604052919050565b60006001600160401b038211156200015b576200015b620000f6565b5060051b60200190565b600082601f8301126200017757600080fd5b81516020620001906200018a836200013f565b6200010c565b82815260059290921b84018101918181019086841115620001b057600080fd5b8286015b84811015620001e45780516001600160a01b0381168114620001d65760008081fd5b8352918301918301620001b4565b509695505050505050565b600080604083850312156200020357600080fd5b82516001600160401b03808211156200021b57600080fd5b818501915085601f8301126200023057600080fd5b81516020620002436200018a836200013f565b82815260059290921b840181019181810190898411156200026357600080fd5b948201945b838610156200029457855160ff81168114620002845760008081fd5b8252948201949082019062000268565b91880151919650909350505080821115620002ae57600080fd5b50620002bd8582860162000165565b9150509250929050565b634e487b7160e01b600052603260045260246000fd5b600060ff821660ff81036200030257634e487b7160e01b600052601160045260246000fd5b60010192915050565b6114b4806200031b6000396000f3fe608060405234801561001057600080fd5b50600436106100b45760003560e01c806375e618c91161007157806375e618c9146101435780638d5d77ae146101755780639b24b3b0146101ae578063ac2f0074146101d2578063b9c78c2b146101f5578063f43b87781461021857600080fd5b80631ae187a8146100b95780633143a178146100ce57806337d6e3ff146100e15780633c464bd3146100f45780633eecf5051461011d578063633f439d14610130575b600080fd5b6100cc6100c7366004610ea9565b61022b565b005b6100cc6100dc366004610f17565b6102bc565b6100cc6100ef36600461108e565b610355565b610107610102366004611178565b6104a1565b6040516101149190611191565b60405180910390f35b6100cc61012b366004611178565b6105b4565b6100cc61013e3660046111e0565b61064b565b610163610151366004611178565b60009081526001602052604090205490565b60405160ff9091168152602001610114565b6101a0610183366004610ea9565b600360209081526000928352604080842090915290825290205481565b604051908152602001610114565b6101a06101bc366004611178565b6000908152600160208190526040909120015490565b6101e56101e0366004611178565b610726565b604051610114949392919061123d565b6101a0610203366004611178565b60009081526001602052604090206002015490565b6100cc610226366004611178565b6107e6565b60008281526004602052604090205482906001600160a01b0316331461026457604051637bfa4b9f60e01b815260040160405180910390fd5b60008084815260046020526040902054600160a01b900460ff16600281111561028f5761028f611227565b146102ad576040516301da8d1f60e51b815260040160405180910390fd5b6102b783836108bb565b505050565b60008681526004602052604090205486906001600160a01b031633146102f557604051637bfa4b9f60e01b815260040160405180910390fd5b60008088815260046020526040902054600160a01b900460ff16600281111561032057610320611227565b1461033e576040516301da8d1f60e51b815260040160405180910390fd5b61034c8787878787876109bc565b50505050505050565b600061036087610ac8565b905061036d818484610aff565b61039e6040805160a08101909152600080825260208201908152600060208201526060604082018190529081015290565b6001600160a01b0385811682526000602080840182815260408086018d9052606086018c9052608086018b9052868452600490925291208351815493166001600160a01b0319841681178255915184939192909183916001600160a81b031990911617600160a01b83600281111561041857610418611227565b02179055506040820151600182015560608201518051610442916002840191602090910190610dd6565b506080820151805161045e916003840191602090910190610e5a565b50506040516001600160a01b038716915083907f4a1fe915f1472308c702e9bb92fd3d7d9de39fc6398bff038bb57e4ccf63430e90600090a35050505050505050565b6000818152600460205260408120600301546060918167ffffffffffffffff8111156104cf576104cf610f9a565b60405190808252806020026020018201604052801561051457816020015b60408051808201909152600080825260208201528152602001906001900390816104ed5790505b50905060005b828110156105ac576000858152600460205260408120600301805483908110610545576105456112cf565b60009182526020808320909101546040805180820182528281528a855260038452818520838652845293205491830191909152845190925084908490811061058f5761058f6112cf565b602002602001018190525050806105a5906112e5565b905061051a565b509392505050565b60008181526004602052604081208054909190600160a01b900460ff1660028111156105e2576105e2611227565b14610600576040516301da8d1f60e51b815260040160405180910390fd5b805460ff60a01b1916600160a01b17815560405142815282907ff2f86ca4cc0873f65a3d53bebcffc02debf8614e74f094b0fb5f6bf10c1efd16906020015b60405180910390a25050565b6001600083815260046020526040902054600160a01b900460ff16600281111561067757610677611227565b14610695576040516301da8d1f60e51b815260040160405180910390fd5b6000828152600160208181526040808420805493015460ff841685526002909252909220549091906001600160a01b03166106d4878388888886610c2d565b6106f3866000908152602081905260409020805460ff19166001179055565b60008581526003602090815260408083208a84529091528120805491610718836112e5565b919050555050505050505050565b6004602052600090815260409020805460018201546002830180546001600160a01b03841694600160a01b90940460ff169391906107639061130c565b80601f016020809104026020016040519081016040528092919081815260200182805461078f9061130c565b80156107dc5780601f106107b1576101008083540402835291602001916107dc565b820191906000526020600020905b8154815290600101906020018083116107bf57829003601f168201915b5050505050905084565b60008181526004602052604090205481906001600160a01b0316331461081f57604051637bfa4b9f60e01b815260040160405180910390fd5b6001600083815260046020526040902054600160a01b900460ff16600281111561084b5761084b611227565b14610869576040516301da8d1f60e51b815260040160405180910390fd5b600082815260046020908152604091829020805460ff60a01b1916600160a11b179055905142815283917ff170ccceabf4d2ab2281a1f7df1d8db542e71a1a7fb94b022f12d9b15aa4c2fb910161063f565b60008281526001602052604090205460ff166000036108ed5760405163029f057960e01b815260040160405180910390fd5b600082815260016020526040908190209051630b4381fd60e11b815260048101919091526024810182905273fce83ef151de5e90fec9c72f5acc526b023a8c809063168703fa9060440160006040518083038186803b15801561094f57600080fd5b505af4158015610963573d6000803e3d6000fd5b505050600083815260016020818152604092839020909101548251858152918201819052925084917f03fd27265b7dd1f55558bedc22a58fa3b10afb1be776e614bd5a7ba7b949940691015b60405180910390a2505050565b60008681526001602052604090205460ff166000036109ee5760405163029f057960e01b815260040160405180910390fd5b600086815260016020526040908190209051630629596f60e01b815273fce83ef151de5e90fec9c72f5acc526b023a8c8091630629596f91610a3d919089908990899089908990600401611346565b60006040518083038186803b158015610a5557600080fd5b505af4158015610a69573d6000803e3d6000fd5b505050600087815260016020819052604082200154909150604080518881526020810183905291925088917fe270325ded177064d7bda473e6519ef40a291058c41286f71a6e4872f1e9ab5c910160405180910390a250505050505050565b6000600882604051602001610adf91815260200190565b60408051601f198184030181529190528051602090910120901c92915050565b7f30644e72e131a029b85045b68181585d2833e84879b9709143e1f593f00000018310610b3f5760405163530e3c6560e11b815260040160405180910390fd5b60008381526001602052604090205460ff1615610b6f57604051638121725b60e01b815260040160405180910390fd5b6000838152600160205260409081902090516304257eed60e21b8152600481019190915260ff831660248201526044810182905273fce83ef151de5e90fec9c72f5acc526b023a8c8090631095fbb49060640160006040518083038186803b158015610bda57600080fd5b505af4158015610bee573d6000803e3d6000fd5b50506040805160ff86168152602081018590528693507fc3082aa494e9088c2c9f0fb62a0b6bd46e6699acb94cfba35be29b95a93f68c89250016109af565b60008481526020819052604090205460ff1615610c5d57604051632523419d60e21b815260040160405180910390fd5b6000610c6887610ac8565b9050816001600160a01b0316635fe8c13b604051806040016040528086600060088110610c9757610c976112cf565b6020020135815260200186600160088110610cb457610cb46112cf565b6020020135905260408051608081018252878201359181019182529081906060820189600360200201358152508152602001604051806040016040528089600460088110610d0457610d046112cf565b6020020135815260200189600560088110610d2157610d216112cf565b60200201359052905260408051808201909152808860066020020135815260200188600760088110610d5557610d556112cf565b602002013581525060405180608001604052808c81526020018b81526020018781526020018a8152506040518563ffffffff1660e01b8152600401610d9d94939291906113fa565b60006040518083038186803b158015610db557600080fd5b505afa158015610dc9573d6000803e3d6000fd5b5050505050505050505050565b828054610de29061130c565b90600052602060002090601f016020900481019282610e045760008555610e4a565b82601f10610e1d57805160ff1916838001178555610e4a565b82800160010185558215610e4a579182015b82811115610e4a578251825591602001919060010190610e2f565b50610e56929150610e94565b5090565b828054828255906000526020600020908101928215610e4a5791602002820182811115610e4a578251825591602001919060010190610e2f565b5b80821115610e565760008155600101610e95565b60008060408385031215610ebc57600080fd5b50508035926020909101359150565b60008083601f840112610edd57600080fd5b50813567ffffffffffffffff811115610ef557600080fd5b6020830191508360208260051b8501011115610f1057600080fd5b9250929050565b60008060008060008060808789031215610f3057600080fd5b8635955060208701359450604087013567ffffffffffffffff80821115610f5657600080fd5b610f628a838b01610ecb565b90965094506060890135915080821115610f7b57600080fd5b50610f8889828a01610ecb565b979a9699509497509295939492505050565b634e487b7160e01b600052604160045260246000fd5b604051601f8201601f1916810167ffffffffffffffff81118282101715610fd957610fd9610f9a565b604052919050565b600082601f830112610ff257600080fd5b8135602067ffffffffffffffff82111561100e5761100e610f9a565b8160051b61101d828201610fb0565b928352848101820192828101908785111561103757600080fd5b83870192505b848310156110565782358252918301919083019061103d565b979650505050505050565b80356001600160a01b038116811461107857600080fd5b919050565b803560ff8116811461107857600080fd5b60008060008060008060c087890312156110a757600080fd5b8635955060208088013567ffffffffffffffff808211156110c757600080fd5b818a0191508a601f8301126110db57600080fd5b8135818111156110ed576110ed610f9a565b6110ff601f8201601f19168501610fb0565b8181528c8583860101111561111357600080fd5b81858501868301376000918101909401529196506040890135918083111561113a57600080fd5b505061114889828a01610fe1565b94505061115760608801611061565b92506111656080880161107d565b915060a087013590509295509295509295565b60006020828403121561118a57600080fd5b5035919050565b602080825282518282018190526000919060409081850190868401855b828110156111d3578151805185528601518685015292840192908501906001016111ae565b5091979650505050505050565b6000806000806101608086880312156111f857600080fd5b85359450602086013593506040860135925086818701111561121957600080fd5b509295919450926060019150565b634e487b7160e01b600052602160045260246000fd5b6001600160a01b0385168152600060206003861061126b57634e487b7160e01b600052602160045260246000fd5b858184015284604084015260806060840152835180608085015260005b818110156112a45785810183015185820160a001528201611288565b818111156112b657600060a083870101525b50601f01601f19169290920160a0019695505050505050565b634e487b7160e01b600052603260045260246000fd5b60006001820161130557634e487b7160e01b600052601160045260246000fd5b5060010190565b600181811c9082168061132057607f821691505b60208210810361134057634e487b7160e01b600052602260045260246000fd5b50919050565b8681526000602087818401526080604084015285608084015260018060fb1b0386111561137257600080fd5b8560051b808860a0860137830183810360a090810160608601528101859052859060009060c0015b868210156113c25760ff6113ad8461107d565b1681529183019160019190910190830161139a565b9b9a5050505050505050505050565b8060005b60028110156113f45781518452602093840193909101906001016113d5565b50505050565b610180810161140982876113d1565b60408083018660005b6002811015611439576114268383516113d1565b9183019160209190910190600101611412565b5050505061144a60c08301856113d1565b61010082018360005b6004811015611472578151835260209283019290910190600101611453565b5050509594505050505056fea26469706673582212202c8783f3211d078f781de4f6e49eb0de5b0b4c22d1aaa231e745614a4e45873464736f6c634300080d0033",
    "linkReferences": {}
  },
  "methodIdentifiers": {
    "Addvoter(uint256,uint256)": "1ae187a8",
    "NewVoteInstance(bytes32,string,bytes32[],address,uint8,uint256)": "37d6e3ff",
    "RemoveVoter(uint256,uint256,uint256[],uint8[])": "3143a178",
    "StartPoll(uint256)": "3eecf505",
    "VotesperProposal(uint256,bytes32)": "8d5d77ae",
    "castVote(bytes32,uint256,uint256,uint256[8])": "633f439d",
    "endPoll(uint256)": "f43b8778",
    "getDepth(uint256)": "75e618c9",
    "getNumberOfLeaves(uint256)": "b9c78c2b",
    "getRoot(uint256)": "9b24b3b0",
    "getlatestVotes(uint256)": "3c464bd3",
    "polls(uint256)": "ac2f0074"
  },
  "id": 15
}