{
  "abi": [
    {
      "inputs": [
        {
          "internalType": "uint256[]",
          "name": "_depths",
          "type": "uint256[]"
        },
        {
          "internalType": "address[]",
          "name": "_verifieraddresses",
          "type": "address[]"
        }
      ],
      "stateMutability": "payable",
      "type": "constructor"
    },
    {
      "inputs": [],
      "name": "NotAdmin",
      "type": "error"
    },
    {
      "inputs": [],
      "name": "NotSamelength",
      "type": "error"
    },
    {
      "inputs": [],
      "name": "Semaphore__GroupAlreadyExists",
      "type": "error"
    },
    {
      "inputs": [],
      "name": "Semaphore__GroupDoesNotExist",
      "type": "error"
    },
    {
      "inputs": [],
      "name": "Semaphore__GroupIdIsNotLessThanSnarkScalarField",
      "type": "error"
    },
    {
      "inputs": [],
      "name": "VotingAlreadyStarted",
      "type": "error"
    },
    {
      "anonymous": false,
      "inputs": [
        {
          "indexed": true,
          "internalType": "uint256",
          "name": "groupId",
          "type": "uint256"
        },
        {
          "indexed": false,
          "internalType": "bytes32",
          "name": "vote",
          "type": "bytes32"
        }
      ],
      "name": "CastedVote",
      "type": "event"
    },
    {
      "anonymous": false,
      "inputs": [
        {
          "indexed": true,
          "internalType": "uint256",
          "name": "groupId",
          "type": "uint256"
        },
        {
          "indexed": false,
          "internalType": "uint8",
          "name": "depth",
          "type": "uint8"
        },
        {
          "indexed": false,
          "internalType": "uint256",
          "name": "zeroValue",
          "type": "uint256"
        }
      ],
      "name": "GroupCreated",
      "type": "event"
    },
    {
      "anonymous": false,
      "inputs": [
        {
          "indexed": true,
          "internalType": "uint256",
          "name": "groupId",
          "type": "uint256"
        },
        {
          "indexed": false,
          "internalType": "uint256",
          "name": "identityCommitment",
          "type": "uint256"
        },
        {
          "indexed": false,
          "internalType": "uint256",
          "name": "root",
          "type": "uint256"
        }
      ],
      "name": "MemberAdded",
      "type": "event"
    },
    {
      "anonymous": false,
      "inputs": [
        {
          "indexed": true,
          "internalType": "uint256",
          "name": "groupId",
          "type": "uint256"
        },
        {
          "indexed": false,
          "internalType": "uint256",
          "name": "identityCommitment",
          "type": "uint256"
        },
        {
          "indexed": false,
          "internalType": "uint256",
          "name": "root",
          "type": "uint256"
        }
      ],
      "name": "MemberRemoved",
      "type": "event"
    },
    {
      "anonymous": false,
      "inputs": [
        {
          "indexed": true,
          "internalType": "uint256",
          "name": "id",
          "type": "uint256"
        },
        {
          "indexed": true,
          "internalType": "address",
          "name": "coordinator",
          "type": "address"
        }
      ],
      "name": "NewProposal",
      "type": "event"
    },
    {
      "anonymous": false,
      "inputs": [
        {
          "indexed": false,
          "internalType": "uint256",
          "name": "nullifierHash",
          "type": "uint256"
        }
      ],
      "name": "NullifierHashAdded",
      "type": "event"
    },
    {
      "anonymous": false,
      "inputs": [
        {
          "indexed": true,
          "internalType": "uint256",
          "name": "groupId",
          "type": "uint256"
        },
        {
          "indexed": false,
          "internalType": "uint256",
          "name": "time",
          "type": "uint256"
        }
      ],
      "name": "VoteEnds",
      "type": "event"
    },
    {
      "anonymous": false,
      "inputs": [
        {
          "indexed": true,
          "internalType": "uint256",
          "name": "groupId",
          "type": "uint256"
        },
        {
          "indexed": false,
          "internalType": "uint256",
          "name": "time",
          "type": "uint256"
        }
      ],
      "name": "VoteStarts",
      "type": "event"
    },
    {
      "inputs": [
        {
          "internalType": "uint256",
          "name": "_pollId",
          "type": "uint256"
        },
        {
          "internalType": "uint256",
          "name": "_identitycommitment",
          "type": "uint256"
        }
      ],
      "name": "Addvoter",
      "outputs": [],
      "stateMutability": "nonpayable",
      "type": "function"
    },
    {
      "inputs": [
        {
          "internalType": "bytes32",
          "name": "_eventName",
          "type": "bytes32"
        },
        {
          "internalType": "string",
          "name": "_description",
          "type": "string"
        },
        {
          "internalType": "bytes32[]",
          "name": "_proposals",
          "type": "bytes32[]"
        },
        {
          "internalType": "address",
          "name": "_coordinator",
          "type": "address"
        },
        {
          "internalType": "uint8",
          "name": "_depth",
          "type": "uint8"
        },
        {
          "internalType": "uint256",
          "name": "_zerovalue",
          "type": "uint256"
        }
      ],
      "name": "NewVoteInstance",
      "outputs": [],
      "stateMutability": "nonpayable",
      "type": "function"
    },
    {
      "inputs": [
        {
          "internalType": "uint256",
          "name": "_pollId",
          "type": "uint256"
        },
        {
          "internalType": "uint256",
          "name": "_identityCommitment",
          "type": "uint256"
        },
        {
          "internalType": "uint256[]",
          "name": "_proofSiblings",
          "type": "uint256[]"
        },
        {
          "internalType": "uint8[]",
          "name": "_proofPathIndices",
          "type": "uint8[]"
        }
      ],
      "name": "RemoveVoter",
      "outputs": [],
      "stateMutability": "nonpayable",
      "type": "function"
    },
    {
      "inputs": [
        {
          "internalType": "uint256",
          "name": "_pollId",
          "type": "uint256"
        }
      ],
      "name": "StartPoll",
      "outputs": [],
      "stateMutability": "nonpayable",
      "type": "function"
    },
    {
      "inputs": [
        {
          "internalType": "uint256",
          "name": "",
          "type": "uint256"
        },
        {
          "internalType": "bytes32",
          "name": "",
          "type": "bytes32"
        }
      ],
      "name": "VotesperProposal",
      "outputs": [
        {
          "internalType": "uint256",
          "name": "",
          "type": "uint256"
        }
      ],
      "stateMutability": "view",
      "type": "function"
    },
    {
      "inputs": [
        {
          "internalType": "bytes32",
          "name": "_vote",
          "type": "bytes32"
        },
        {
          "internalType": "uint256",
          "name": "_nullifierHash",
          "type": "uint256"
        },
        {
          "internalType": "uint256",
          "name": "_pollId",
          "type": "uint256"
        },
        {
          "internalType": "uint256",
          "name": "_externalNullifier",
          "type": "uint256"
        },
        {
          "internalType": "uint256[8]",
          "name": "_proof",
          "type": "uint256[8]"
        }
      ],
      "name": "castVote",
      "outputs": [],
      "stateMutability": "nonpayable",
      "type": "function"
    },
    {
      "inputs": [
        {
          "internalType": "uint256",
          "name": "_pollId",
          "type": "uint256"
        }
      ],
      "name": "endPoll",
      "outputs": [],
      "stateMutability": "nonpayable",
      "type": "function"
    },
    {
      "inputs": [
        {
          "internalType": "uint256",
          "name": "groupId",
          "type": "uint256"
        }
      ],
      "name": "getDepth",
      "outputs": [
        {
          "internalType": "uint256",
          "name": "",
          "type": "uint256"
        }
      ],
      "stateMutability": "view",
      "type": "function"
    },
    {
      "inputs": [
        {
          "internalType": "uint256",
          "name": "groupId",
          "type": "uint256"
        }
      ],
      "name": "getNumberOfLeaves",
      "outputs": [
        {
          "internalType": "uint256",
          "name": "",
          "type": "uint256"
        }
      ],
      "stateMutability": "view",
      "type": "function"
    },
    {
      "inputs": [
        {
          "internalType": "uint256",
          "name": "groupId",
          "type": "uint256"
        }
      ],
      "name": "getRoot",
      "outputs": [
        {
          "internalType": "uint256",
          "name": "",
          "type": "uint256"
        }
      ],
      "stateMutability": "view",
      "type": "function"
    },
    {
      "inputs": [
        {
          "internalType": "uint256",
          "name": "_pollId",
          "type": "uint256"
        }
      ],
      "name": "getlatestVotes",
      "outputs": [
        {
          "components": [
            {
              "internalType": "bytes32",
              "name": "proposals",
              "type": "bytes32"
            },
            {
              "internalType": "uint256",
              "name": "votes",
              "type": "uint256"
            }
          ],
          "internalType": "struct ZkVote.Results[]",
          "name": "",
          "type": "tuple[]"
        }
      ],
      "stateMutability": "view",
      "type": "function"
    },
    {
      "inputs": [
        {
          "internalType": "uint256",
          "name": "",
          "type": "uint256"
        }
      ],
      "name": "polls",
      "outputs": [
        {
          "internalType": "address",
          "name": "coordinator",
          "type": "address"
        },
        {
          "internalType": "enum ZkVote.PollState",
          "name": "pollstate",
          "type": "uint8"
        },
        {
          "internalType": "bytes32",
          "name": "pollname",
          "type": "bytes32"
        },
        {
          "internalType": "string",
          "name": "description",
          "type": "string"
        }
      ],
      "stateMutability": "view",
      "type": "function"
    },
    {
      "inputs": [
        {
          "internalType": "uint256",
          "name": "",
          "type": "uint256"
        }
      ],
      "name": "verifiers",
      "outputs": [
        {
          "internalType": "contract IVerifier",
          "name": "",
          "type": "address"
        }
      ],
      "stateMutability": "view",
      "type": "function"
    }
  ],
  "bytecode": {
    "object": "0x60806040526040516200180b3803806200180b8339810160408190526200002691620001e0565b805182511462000049576040516368594ec360e11b815260040160405180910390fd5b815160005b81811015620000dd578281815181106200006c576200006c620002a7565b6020026020010151600260008684815181106200008d576200008d620002a7565b6020026020010151815260200190815260200160002060006101000a8154816001600160a01b0302191690836001600160a01b031602179055508080620000d490620002bd565b9150506200004e565b50505050620002e5565b634e487b7160e01b600052604160045260246000fd5b604051601f8201601f191681016001600160401b0381118282101715620001285762000128620000e7565b604052919050565b60006001600160401b038211156200014c576200014c620000e7565b5060051b60200190565b600082601f8301126200016857600080fd5b81516020620001816200017b8362000130565b620000fd565b82815260059290921b84018101918181019086841115620001a157600080fd5b8286015b84811015620001d55780516001600160a01b0381168114620001c75760008081fd5b8352918301918301620001a5565b509695505050505050565b60008060408385031215620001f457600080fd5b82516001600160401b03808211156200020c57600080fd5b818501915085601f8301126200022157600080fd5b81516020620002346200017b8362000130565b82815260059290921b840181019181810190898411156200025457600080fd5b948201945b83861015620002745785518252948201949082019062000259565b918801519196509093505050808211156200028e57600080fd5b506200029d8582860162000156565b9150509250929050565b634e487b7160e01b600052603260045260246000fd5b600060018201620002de57634e487b7160e01b600052601160045260246000fd5b5060010190565b61151680620002f56000396000f3fe608060405234801561001057600080fd5b50600436106100cf5760003560e01c80638d5d77ae1161008c578063ac1eff6811610066578063ac1eff68146101de578063ac2f00741461021f578063b9c78c2b14610242578063f43b87781461026557600080fd5b80638d5d77ae1461017c5780639783568e146101a75780639b24b3b0146101ba57600080fd5b80631ae187a8146100d45780633143a178146100e957806337d6e3ff146100fc5780633c464bd31461010f5780633eecf5051461013857806375e618c91461014b575b600080fd5b6100e76100e2366004610eff565b610278565b005b6100e76100f7366004610f6d565b6102c0565b6100e761010a3660046110e4565b610359565b61012261011d3660046111ce565b6104a5565b60405161012f91906111e7565b60405180910390f35b6100e76101463660046111ce565b6105b8565b61016e6101593660046111ce565b60009081526001602052604090205460ff1690565b60405190815260200161012f565b61016e61018a366004610eff565b600360209081526000928352604080842090915290825290205481565b6100e76101b5366004611236565b61064f565b61016e6101c83660046111ce565b6000908152600160208190526040909120015490565b6102076101ec3660046111ce565b6002602052600090815260409020546001600160a01b031681565b6040516001600160a01b03909116815260200161012f565b61023261022d3660046111ce565b61072a565b60405161012f949392919061129f565b61016e6102503660046111ce565b60009081526001602052604090206002015490565b6100e76102733660046111ce565b6107ea565b60008281526004602052604090205482906001600160a01b031633146102b157604051637bfa4b9f60e01b815260040160405180910390fd5b6102bb83836108bf565b505050565b60008681526004602052604090205486906001600160a01b031633146102f957604051637bfa4b9f60e01b815260040160405180910390fd5b60008088815260046020526040902054600160a01b900460ff16600281111561032457610324611289565b14610342576040516301da8d1f60e51b815260040160405180910390fd5b6103508787878787876109c0565b50505050505050565b600061036487610acc565b9050610371818484610b03565b6103a26040805160a08101909152600080825260208201908152600060208201526060604082018190529081015290565b6001600160a01b0385811682526000602080840182815260408086018d9052606086018c9052608086018b9052868452600490925291208351815493166001600160a01b0319841681178255915184939192909183916001600160a81b031990911617600160a01b83600281111561041c5761041c611289565b02179055506040820151600182015560608201518051610446916002840191602090910190610e2c565b5060808201518051610462916003840191602090910190610eb0565b50506040516001600160a01b038716915083907f4a1fe915f1472308c702e9bb92fd3d7d9de39fc6398bff038bb57e4ccf63430e90600090a35050505050505050565b6000818152600460205260408120600301546060918167ffffffffffffffff8111156104d3576104d3610ff0565b60405190808252806020026020018201604052801561051857816020015b60408051808201909152600080825260208201528152602001906001900390816104f15790505b50905060005b828110156105b057600085815260046020526040812060030180548390811061054957610549611331565b60009182526020808320909101546040805180820182528281528a855260038452818520838652845293205491830191909152845190925084908490811061059357610593611331565b602002602001018190525050806105a990611347565b905061051e565b509392505050565b60008181526004602052604081208054909190600160a01b900460ff1660028111156105e6576105e6611289565b14610604576040516301da8d1f60e51b815260040160405180910390fd5b805460ff60a01b1916600160a01b17815560405142815282907ff2f86ca4cc0873f65a3d53bebcffc02debf8614e74f094b0fb5f6bf10c1efd16906020015b60405180910390a25050565b6001600084815260046020526040902054600160a01b900460ff16600281111561067b5761067b611289565b14610699576040516301da8d1f60e51b815260040160405180910390fd5b6000838152600160208181526040808420805493015460ff9093168085526002909252909220546001600160a01b03166106d7888389888886610c31565b6106f6876000908152602081905260409020805460ff19166001179055565b60008681526003602090815260408083208b8452909152812080549161071b83611347565b91905055505050505050505050565b6004602052600090815260409020805460018201546002830180546001600160a01b03841694600160a01b90940460ff169391906107679061136e565b80601f01602080910402602001604051908101604052809291908181526020018280546107939061136e565b80156107e05780601f106107b5576101008083540402835291602001916107e0565b820191906000526020600020905b8154815290600101906020018083116107c357829003601f168201915b5050505050905084565b60008181526004602052604090205481906001600160a01b0316331461082357604051637bfa4b9f60e01b815260040160405180910390fd5b6001600083815260046020526040902054600160a01b900460ff16600281111561084f5761084f611289565b1461086d576040516301da8d1f60e51b815260040160405180910390fd5b600082815260046020908152604091829020805460ff60a01b1916600160a11b179055905142815283917ff170ccceabf4d2ab2281a1f7df1d8db542e71a1a7fb94b022f12d9b15aa4c2fb9101610643565b60008281526001602052604090205460ff166000036108f15760405163029f057960e01b815260040160405180910390fd5b600082815260016020526040908190209051630b4381fd60e11b815260048101919091526024810182905273c3a32b932ab88918764fcc2684ab29e88b59bf7c9063168703fa9060440160006040518083038186803b15801561095357600080fd5b505af4158015610967573d6000803e3d6000fd5b505050600083815260016020818152604092839020909101548251858152918201819052925084917f03fd27265b7dd1f55558bedc22a58fa3b10afb1be776e614bd5a7ba7b949940691015b60405180910390a2505050565b60008681526001602052604090205460ff166000036109f25760405163029f057960e01b815260040160405180910390fd5b600086815260016020526040908190209051630629596f60e01b815273c3a32b932ab88918764fcc2684ab29e88b59bf7c91630629596f91610a419190899089908990899089906004016113a8565b60006040518083038186803b158015610a5957600080fd5b505af4158015610a6d573d6000803e3d6000fd5b505050600087815260016020819052604082200154909150604080518881526020810183905291925088917fe270325ded177064d7bda473e6519ef40a291058c41286f71a6e4872f1e9ab5c910160405180910390a250505050505050565b6000600882604051602001610ae391815260200190565b60408051601f198184030181529190528051602090910120901c92915050565b7f30644e72e131a029b85045b68181585d2833e84879b9709143e1f593f00000018310610b435760405163530e3c6560e11b815260040160405180910390fd5b60008381526001602052604090205460ff1615610b7357604051638121725b60e01b815260040160405180910390fd5b60008381526001602052604090819020905163b4bdd11760e01b8152600481019190915260ff831660248201526044810182905273c3a32b932ab88918764fcc2684ab29e88b59bf7c9063b4bdd1179060640160006040518083038186803b158015610bde57600080fd5b505af4158015610bf2573d6000803e3d6000fd5b50506040805160ff86168152602081018590528693507fc3082aa494e9088c2c9f0fb62a0b6bd46e6699acb94cfba35be29b95a93f68c89250016109b3565b60008481526020819052604090205460ff1615610cb35760405162461bcd60e51b815260206004820152603660248201527f53656d6170686f7265436f72653a20796f752063616e6e6f7420757365207468604482015275652073616d65206e756c6c696669657220747769636560501b606482015260840160405180910390fd5b6000610cbe87610acc565b9050816001600160a01b0316635fe8c13b604051806040016040528086600060088110610ced57610ced611331565b6020020135815260200186600160088110610d0a57610d0a611331565b6020020135905260408051608081018252878201359181019182529081906060820189600360200201358152508152602001604051806040016040528089600460088110610d5a57610d5a611331565b6020020135815260200189600560088110610d7757610d77611331565b60200201359052905260408051808201909152808860066020020135815260200188600760088110610dab57610dab611331565b602002013581525060405180608001604052808c81526020018b81526020018781526020018a8152506040518563ffffffff1660e01b8152600401610df3949392919061145c565b60006040518083038186803b158015610e0b57600080fd5b505afa158015610e1f573d6000803e3d6000fd5b5050505050505050505050565b828054610e389061136e565b90600052602060002090601f016020900481019282610e5a5760008555610ea0565b82601f10610e7357805160ff1916838001178555610ea0565b82800160010185558215610ea0579182015b82811115610ea0578251825591602001919060010190610e85565b50610eac929150610eea565b5090565b828054828255906000526020600020908101928215610ea05791602002820182811115610ea0578251825591602001919060010190610e85565b5b80821115610eac5760008155600101610eeb565b60008060408385031215610f1257600080fd5b50508035926020909101359150565b60008083601f840112610f3357600080fd5b50813567ffffffffffffffff811115610f4b57600080fd5b6020830191508360208260051b8501011115610f6657600080fd5b9250929050565b60008060008060008060808789031215610f8657600080fd5b8635955060208701359450604087013567ffffffffffffffff80821115610fac57600080fd5b610fb88a838b01610f21565b90965094506060890135915080821115610fd157600080fd5b50610fde89828a01610f21565b979a9699509497509295939492505050565b634e487b7160e01b600052604160045260246000fd5b604051601f8201601f1916810167ffffffffffffffff8111828210171561102f5761102f610ff0565b604052919050565b600082601f83011261104857600080fd5b8135602067ffffffffffffffff82111561106457611064610ff0565b8160051b611073828201611006565b928352848101820192828101908785111561108d57600080fd5b83870192505b848310156110ac57823582529183019190830190611093565b979650505050505050565b80356001600160a01b03811681146110ce57600080fd5b919050565b803560ff811681146110ce57600080fd5b60008060008060008060c087890312156110fd57600080fd5b8635955060208088013567ffffffffffffffff8082111561111d57600080fd5b818a0191508a601f83011261113157600080fd5b81358181111561114357611143610ff0565b611155601f8201601f19168501611006565b8181528c8583860101111561116957600080fd5b81858501868301376000918101909401529196506040890135918083111561119057600080fd5b505061119e89828a01611037565b9450506111ad606088016110b7565b92506111bb608088016110d3565b915060a087013590509295509295509295565b6000602082840312156111e057600080fd5b5035919050565b602080825282518282018190526000919060409081850190868401855b8281101561122957815180518552860151868501529284019290850190600101611204565b5091979650505050505050565b600080600080600061018080878903121561125057600080fd5b8635955060208701359450604087013593506060870135925087818801111561127857600080fd5b506080860190509295509295909350565b634e487b7160e01b600052602160045260246000fd5b6001600160a01b038516815260006020600386106112cd57634e487b7160e01b600052602160045260246000fd5b858184015284604084015260806060840152835180608085015260005b818110156113065785810183015185820160a0015282016112ea565b8181111561131857600060a083870101525b50601f01601f19169290920160a0019695505050505050565b634e487b7160e01b600052603260045260246000fd5b60006001820161136757634e487b7160e01b600052601160045260246000fd5b5060010190565b600181811c9082168061138257607f821691505b6020821081036113a257634e487b7160e01b600052602260045260246000fd5b50919050565b8681526000602087818401526080604084015285608084015260018060fb1b038611156113d457600080fd5b8560051b808860a0860137830183810360a090810160608601528101859052859060009060c0015b868210156114245760ff61140f846110d3565b168152918301916001919091019083016113fc565b9b9a5050505050505050505050565b8060005b6002811015611456578151845260209384019390910190600101611437565b50505050565b610180810161146b8287611433565b60408083018660005b600281101561149b57611488838351611433565b9183019160209190910190600101611474565b505050506114ac60c0830185611433565b61010082018360005b60048110156114d45781518352602092830192909101906001016114b5565b5050509594505050505056fea26469706673582212204cacb5a3c2e7d87b5bf3e7be5ec6d5a2c5fb7bed351a11e472b0f650b276050764736f6c634300080d0033",
    "linkReferences": {}
  },
  "methodIdentifiers": {
    "Addvoter(uint256,uint256)": "1ae187a8",
    "NewVoteInstance(bytes32,string,bytes32[],address,uint8,uint256)": "37d6e3ff",
    "RemoveVoter(uint256,uint256,uint256[],uint8[])": "3143a178",
    "StartPoll(uint256)": "3eecf505",
    "VotesperProposal(uint256,bytes32)": "8d5d77ae",
    "castVote(bytes32,uint256,uint256,uint256,uint256[8])": "9783568e",
    "endPoll(uint256)": "f43b8778",
    "getDepth(uint256)": "75e618c9",
    "getNumberOfLeaves(uint256)": "b9c78c2b",
    "getRoot(uint256)": "9b24b3b0",
    "getlatestVotes(uint256)": "3c464bd3",
    "polls(uint256)": "ac2f0074",
    "verifiers(uint256)": "ac1eff68"
  },
  "id": 6
}