{
  "abi": [
    {
      "inputs": [
        {
          "internalType": "uint256[]",
          "name": "_depths",
          "type": "uint256[]"
        },
        {
          "internalType": "address[]",
          "name": "_verifieraddresses",
          "type": "address[]"
        }
      ],
      "stateMutability": "payable",
      "type": "constructor"
    },
    {
      "inputs": [],
      "name": "NotAdmin",
      "type": "error"
    },
    {
      "inputs": [],
      "name": "NotSamelength",
      "type": "error"
    },
    {
      "inputs": [],
      "name": "Semaphore__GroupAlreadyExists",
      "type": "error"
    },
    {
      "inputs": [],
      "name": "Semaphore__GroupDoesNotExist",
      "type": "error"
    },
    {
      "inputs": [],
      "name": "Semaphore__GroupIdIsNotLessThanSnarkScalarField",
      "type": "error"
    },
    {
      "inputs": [],
      "name": "VotingAlreadyStarted",
      "type": "error"
    },
    {
      "anonymous": false,
      "inputs": [
        {
          "indexed": true,
          "internalType": "uint256",
          "name": "groupId",
          "type": "uint256"
        },
        {
          "indexed": false,
          "internalType": "bytes32",
          "name": "vote",
          "type": "bytes32"
        }
      ],
      "name": "CastedVote",
      "type": "event"
    },
    {
      "anonymous": false,
      "inputs": [
        {
          "indexed": true,
          "internalType": "uint256",
          "name": "groupId",
          "type": "uint256"
        },
        {
          "indexed": false,
          "internalType": "uint8",
          "name": "depth",
          "type": "uint8"
        },
        {
          "indexed": false,
          "internalType": "uint256",
          "name": "zeroValue",
          "type": "uint256"
        }
      ],
      "name": "GroupCreated",
      "type": "event"
    },
    {
      "anonymous": false,
      "inputs": [
        {
          "indexed": true,
          "internalType": "uint256",
          "name": "groupId",
          "type": "uint256"
        },
        {
          "indexed": false,
          "internalType": "uint256",
          "name": "identityCommitment",
          "type": "uint256"
        },
        {
          "indexed": false,
          "internalType": "uint256",
          "name": "root",
          "type": "uint256"
        }
      ],
      "name": "MemberAdded",
      "type": "event"
    },
    {
      "anonymous": false,
      "inputs": [
        {
          "indexed": true,
          "internalType": "uint256",
          "name": "groupId",
          "type": "uint256"
        },
        {
          "indexed": false,
          "internalType": "uint256",
          "name": "identityCommitment",
          "type": "uint256"
        },
        {
          "indexed": false,
          "internalType": "uint256",
          "name": "root",
          "type": "uint256"
        }
      ],
      "name": "MemberRemoved",
      "type": "event"
    },
    {
      "anonymous": false,
      "inputs": [
        {
          "indexed": true,
          "internalType": "uint256",
          "name": "id",
          "type": "uint256"
        },
        {
          "indexed": true,
          "internalType": "bytes32",
          "name": "eventname",
          "type": "bytes32"
        },
        {
          "indexed": false,
          "internalType": "address",
          "name": "coordinator",
          "type": "address"
        },
        {
          "indexed": false,
          "internalType": "string",
          "name": "description",
          "type": "string"
        }
      ],
      "name": "NewProposal",
      "type": "event"
    },
    {
      "anonymous": false,
      "inputs": [
        {
          "indexed": false,
          "internalType": "uint256",
          "name": "nullifierHash",
          "type": "uint256"
        }
      ],
      "name": "NullifierHashAdded",
      "type": "event"
    },
    {
      "anonymous": false,
      "inputs": [
        {
          "indexed": true,
          "internalType": "uint256",
          "name": "groupId",
          "type": "uint256"
        },
        {
          "indexed": false,
          "internalType": "uint256",
          "name": "time",
          "type": "uint256"
        }
      ],
      "name": "VoteEnds",
      "type": "event"
    },
    {
      "anonymous": false,
      "inputs": [
        {
          "indexed": true,
          "internalType": "uint256",
          "name": "groupId",
          "type": "uint256"
        },
        {
          "indexed": false,
          "internalType": "uint256",
          "name": "time",
          "type": "uint256"
        }
      ],
      "name": "VoteStarts",
      "type": "event"
    },
    {
      "inputs": [
        {
          "internalType": "uint256",
          "name": "_pollId",
          "type": "uint256"
        },
        {
          "internalType": "uint256",
          "name": "_identitycommitment",
          "type": "uint256"
        }
      ],
      "name": "Addvoter",
      "outputs": [],
      "stateMutability": "nonpayable",
      "type": "function"
    },
    {
      "inputs": [
        {
          "internalType": "bytes32",
          "name": "_eventName",
          "type": "bytes32"
        },
        {
          "internalType": "string",
          "name": "_description",
          "type": "string"
        },
        {
          "internalType": "bytes32[]",
          "name": "_proposals",
          "type": "bytes32[]"
        },
        {
          "internalType": "address",
          "name": "_coordinator",
          "type": "address"
        },
        {
          "internalType": "uint8",
          "name": "_depth",
          "type": "uint8"
        },
        {
          "internalType": "uint256",
          "name": "_zerovalue",
          "type": "uint256"
        }
      ],
      "name": "NewVoteInstance",
      "outputs": [],
      "stateMutability": "nonpayable",
      "type": "function"
    },
    {
      "inputs": [
        {
          "internalType": "uint256",
          "name": "_pollId",
          "type": "uint256"
        },
        {
          "internalType": "uint256",
          "name": "_identityCommitment",
          "type": "uint256"
        },
        {
          "internalType": "uint256[]",
          "name": "_proofSiblings",
          "type": "uint256[]"
        },
        {
          "internalType": "uint8[]",
          "name": "_proofPathIndices",
          "type": "uint8[]"
        }
      ],
      "name": "RemoveVoter",
      "outputs": [],
      "stateMutability": "nonpayable",
      "type": "function"
    },
    {
      "inputs": [
        {
          "internalType": "uint256",
          "name": "_pollId",
          "type": "uint256"
        }
      ],
      "name": "StartPoll",
      "outputs": [],
      "stateMutability": "nonpayable",
      "type": "function"
    },
    {
      "inputs": [
        {
          "internalType": "uint256",
          "name": "",
          "type": "uint256"
        },
        {
          "internalType": "bytes32",
          "name": "",
          "type": "bytes32"
        }
      ],
      "name": "VotesperProposal",
      "outputs": [
        {
          "internalType": "uint256",
          "name": "",
          "type": "uint256"
        }
      ],
      "stateMutability": "view",
      "type": "function"
    },
    {
      "inputs": [
        {
          "internalType": "bytes32[]",
          "name": "_vote",
          "type": "bytes32[]"
        },
        {
          "internalType": "uint256[]",
          "name": "position",
          "type": "uint256[]"
        },
        {
          "internalType": "uint256",
          "name": "_nullifierHash",
          "type": "uint256"
        },
        {
          "internalType": "uint256",
          "name": "_pollId",
          "type": "uint256"
        },
        {
          "internalType": "uint256[8]",
          "name": "_proof",
          "type": "uint256[8]"
        }
      ],
      "name": "castVote",
      "outputs": [],
      "stateMutability": "nonpayable",
      "type": "function"
    },
    {
      "inputs": [
        {
          "internalType": "uint256",
          "name": "_pollId",
          "type": "uint256"
        }
      ],
      "name": "endPoll",
      "outputs": [],
      "stateMutability": "nonpayable",
      "type": "function"
    },
    {
      "inputs": [
        {
          "internalType": "uint256",
          "name": "groupId",
          "type": "uint256"
        }
      ],
      "name": "getDepth",
      "outputs": [
        {
          "internalType": "uint256",
          "name": "",
          "type": "uint256"
        }
      ],
      "stateMutability": "view",
      "type": "function"
    },
    {
      "inputs": [
        {
          "internalType": "uint256",
          "name": "groupId",
          "type": "uint256"
        }
      ],
      "name": "getNumberOfLeaves",
      "outputs": [
        {
          "internalType": "uint256",
          "name": "",
          "type": "uint256"
        }
      ],
      "stateMutability": "view",
      "type": "function"
    },
    {
      "inputs": [
        {
          "internalType": "uint256",
          "name": "groupId",
          "type": "uint256"
        }
      ],
      "name": "getRoot",
      "outputs": [
        {
          "internalType": "uint256",
          "name": "",
          "type": "uint256"
        }
      ],
      "stateMutability": "view",
      "type": "function"
    },
    {
      "inputs": [
        {
          "internalType": "uint256",
          "name": "_pollId",
          "type": "uint256"
        }
      ],
      "name": "getlatestVotes",
      "outputs": [
        {
          "components": [
            {
              "internalType": "bytes32",
              "name": "proposals",
              "type": "bytes32"
            },
            {
              "internalType": "uint256",
              "name": "votes",
              "type": "uint256"
            }
          ],
          "internalType": "struct ZkVote.Results[]",
          "name": "",
          "type": "tuple[]"
        }
      ],
      "stateMutability": "view",
      "type": "function"
    },
    {
      "inputs": [
        {
          "internalType": "uint256",
          "name": "_id",
          "type": "uint256"
        }
      ],
      "name": "getproposals",
      "outputs": [
        {
          "internalType": "bytes32[]",
          "name": "",
          "type": "bytes32[]"
        }
      ],
      "stateMutability": "view",
      "type": "function"
    },
    {
      "inputs": [
        {
          "internalType": "uint256",
          "name": "",
          "type": "uint256"
        }
      ],
      "name": "nullifierHashes",
      "outputs": [
        {
          "internalType": "bool",
          "name": "",
          "type": "bool"
        }
      ],
      "stateMutability": "view",
      "type": "function"
    },
    {
      "inputs": [
        {
          "internalType": "uint256",
          "name": "",
          "type": "uint256"
        }
      ],
      "name": "polls",
      "outputs": [
        {
          "internalType": "address",
          "name": "coordinator",
          "type": "address"
        },
        {
          "internalType": "enum ZkVote.PollState",
          "name": "pollstate",
          "type": "uint8"
        },
        {
          "internalType": "bytes32",
          "name": "pollname",
          "type": "bytes32"
        },
        {
          "internalType": "string",
          "name": "description",
          "type": "string"
        }
      ],
      "stateMutability": "view",
      "type": "function"
    },
    {
      "inputs": [
        {
          "internalType": "uint256",
          "name": "",
          "type": "uint256"
        }
      ],
      "name": "verifiers",
      "outputs": [
        {
          "internalType": "contract IVerifier",
          "name": "",
          "type": "address"
        }
      ],
      "stateMutability": "view",
      "type": "function"
    }
  ],
  "bytecode": {
    "object": "0x608060405260405162001c2738038062001c278339810160408190526200002691620001e0565b805182511462000049576040516368594ec360e11b815260040160405180910390fd5b815160005b81811015620000dd578281815181106200006c576200006c620002a7565b6020026020010151600260008684815181106200008d576200008d620002a7565b6020026020010151815260200190815260200160002060006101000a8154816001600160a01b0302191690836001600160a01b031602179055508080620000d490620002bd565b9150506200004e565b50505050620002e5565b634e487b7160e01b600052604160045260246000fd5b604051601f8201601f191681016001600160401b0381118282101715620001285762000128620000e7565b604052919050565b60006001600160401b038211156200014c576200014c620000e7565b5060051b60200190565b600082601f8301126200016857600080fd5b81516020620001816200017b8362000130565b620000fd565b82815260059290921b84018101918181019086841115620001a157600080fd5b8286015b84811015620001d55780516001600160a01b0381168114620001c75760008081fd5b8352918301918301620001a5565b509695505050505050565b60008060408385031215620001f457600080fd5b82516001600160401b03808211156200020c57600080fd5b818501915085601f8301126200022157600080fd5b81516020620002346200017b8362000130565b82815260059290921b840181019181810190898411156200025457600080fd5b948201945b83861015620002745785518252948201949082019062000259565b918801519196509093505050808211156200028e57600080fd5b506200029d8582860162000156565b9150509250929050565b634e487b7160e01b600052603260045260246000fd5b600060018201620002de57634e487b7160e01b600052601160045260246000fd5b5060010190565b61193280620002f56000396000f3fe608060405234801561001057600080fd5b50600436106100f55760003560e01c806375e618c911610097578063ac2f007411610066578063ac2f007414610285578063b9c78c2b146102a8578063e9f73a0c146102cb578063f43b8778146102de57600080fd5b806375e618c9146101c45780638d5d77ae146101f55780639b24b3b014610220578063ac1eff681461024457600080fd5b80633143a178116100d35780633143a1781461016b57806337d6e3ff1461017e5780633c464bd3146101915780633eecf505146101b157600080fd5b806312789fe1146100fa5780631ae187a8146101235780631f79a1e914610138575b600080fd5b61010d610108366004611103565b6102f1565b60405161011a919061111c565b60405180910390f35b610136610131366004611160565b610356565b005b61015b610146366004611103565b60006020819052908152604090205460ff1681565b604051901515815260200161011a565b6101366101793660046111ce565b6103e7565b61013661018c366004611345565b610480565b6101a461019f366004611103565b6105cb565b60405161011a919061142f565b6101366101bf366004611103565b6106de565b6101e76101d2366004611103565b60009081526001602052604090205460ff1690565b60405190815260200161011a565b6101e7610203366004611160565b600360209081526000928352604080842090915290825290205481565b6101e761022e366004611103565b6000908152600160208190526040909120015490565b61026d610252366004611103565b6002602052600090815260409020546001600160a01b031681565b6040516001600160a01b03909116815260200161011a565b610298610293366004611103565b610775565b60405161011a94939291906114e1565b6101e76102b6366004611103565b60009081526001602052604090206002015490565b6101366102d9366004611537565b610835565b6101366102ec366004611103565b610a72565b60008181526004602090815260409182902060030180548351818402810184019094528084526060939283018282801561034a57602002820191906000526020600020905b815481526020019060010190808311610336575b50505050509050919050565b60008281526004602052604090205482906001600160a01b0316331461038f57604051637bfa4b9f60e01b815260040160405180910390fd5b60008084815260046020526040902054600160a01b900460ff1660028111156103ba576103ba61147e565b146103d8576040516301da8d1f60e51b815260040160405180910390fd5b6103e28383610b47565b505050565b60008681526004602052604090205486906001600160a01b0316331461042057604051637bfa4b9f60e01b815260040160405180910390fd5b60008088815260046020526040902054600160a01b900460ff16600281111561044b5761044b61147e565b14610469576040516301da8d1f60e51b815260040160405180910390fd5b610477878787878787610c48565b50505050505050565b600061048b87610d54565b9050610498818484610d8b565b6104c96040805160a08101909152600080825260208201908152600060208201526060604082018190529081015290565b6001600160a01b0385811682526000602080840182815260408086018d9052606086018c9052608086018b9052868452600490925291208351815493166001600160a01b0319841681178255915184939192909183916001600160a81b031990911617600160a01b8360028111156105435761054361147e565b02179055506040820151600182015560608201516002820190610566908261165c565b50608082015180516105829160038401916020909101906110a3565b5090505087827f40b5355208340c3f3f4d7d5a625416bce4b69d9f97cc17f530daf7d5d4ced8ac878a6040516105b992919061171c565b60405180910390a35050505050505050565b6000818152600460205260408120600301546060918167ffffffffffffffff8111156105f9576105f9611251565b60405190808252806020026020018201604052801561063e57816020015b60408051808201909152600080825260208201528152602001906001900390816106175790505b50905060005b828110156106d657600085815260046020526040812060030180548390811061066f5761066f611748565b60009182526020808320909101546040805180820182528281528a85526003845281852083865284529320549183019190915284519092508490849081106106b9576106b9611748565b602002602001018190525050806106cf90611774565b9050610644565b509392505050565b60008181526004602052604081208054909190600160a01b900460ff16600281111561070c5761070c61147e565b1461072a576040516301da8d1f60e51b815260040160405180910390fd5b805460ff60a01b1916600160a01b17815560405142815282907ff2f86ca4cc0873f65a3d53bebcffc02debf8614e74f094b0fb5f6bf10c1efd16906020015b60405180910390a25050565b6004602052600090815260409020805460018201546002830180546001600160a01b03841694600160a01b90940460ff169391906107b2906115d4565b80601f01602080910402602001604051908101604052809291908181526020018280546107de906115d4565b801561082b5780601f106108005761010080835404028352916020019161082b565b820191906000526020600020905b81548152906001019060200180831161080e57829003601f168201915b5050505050905084565b6001600083815260046020526040902054600160a01b900460ff1660028111156108615761086161147e565b1461087f576040516301da8d1f60e51b815260040160405180910390fd5b8584146108c45760405162461bcd60e51b815260206004820152600e60248201526d0aadccae2eac2d840d8cadccee8d60931b60448201526064015b60405180910390fd5b6000828152600160208181526040808420805493015460ff909316808552600290925283205490926001600160a01b039091169061091e908b908b908161090d5761090d611748565b905060200201358388888886610eb9565b61093d866000908152602081905260409020805460ff19166001179055565b6000805b88811015610a285789898281811061095b5761095b611748565b905060200201358a8a8381811061097457610974611748565b90506020020135610985919061178d565b6000888152600360205260408120908e8e858181106109a6576109a6611748565b90506020020135815260200190815260200160002060008282546109ca91906117ac565b909155508a905089828181106109e2576109e2611748565b905060200201358a8a838181106109fb576109fb611748565b90506020020135610a0c919061178d565b610a1690836117ac565b9150610a2181611774565b9050610941565b506064811115610a655760405162461bcd60e51b8152602060048201526008602482015267115e18d95959195960c21b60448201526064016108bb565b5050505050505050505050565b60008181526004602052604090205481906001600160a01b03163314610aab57604051637bfa4b9f60e01b815260040160405180910390fd5b6001600083815260046020526040902054600160a01b900460ff166002811115610ad757610ad761147e565b14610af5576040516301da8d1f60e51b815260040160405180910390fd5b600082815260046020908152604091829020805460ff60a01b1916600160a11b179055905142815283917ff170ccceabf4d2ab2281a1f7df1d8db542e71a1a7fb94b022f12d9b15aa4c2fb9101610769565b60008281526001602052604090205460ff16600003610b795760405163029f057960e01b815260040160405180910390fd5b600082815260016020526040908190209051630b4381fd60e11b815260048101919091526024810182905273c3a32b932ab88918764fcc2684ab29e88b59bf7c9063168703fa9060440160006040518083038186803b158015610bdb57600080fd5b505af4158015610bef573d6000803e3d6000fd5b505050600083815260016020818152604092839020909101548251858152918201819052925084917f03fd27265b7dd1f55558bedc22a58fa3b10afb1be776e614bd5a7ba7b949940691015b60405180910390a2505050565b60008681526001602052604090205460ff16600003610c7a5760405163029f057960e01b815260040160405180910390fd5b600086815260016020526040908190209051630629596f60e01b815273c3a32b932ab88918764fcc2684ab29e88b59bf7c91630629596f91610cc99190899089908990899089906004016117c4565b60006040518083038186803b158015610ce157600080fd5b505af4158015610cf5573d6000803e3d6000fd5b505050600087815260016020819052604082200154909150604080518881526020810183905291925088917fe270325ded177064d7bda473e6519ef40a291058c41286f71a6e4872f1e9ab5c910160405180910390a250505050505050565b6000600882604051602001610d6b91815260200190565b60408051601f198184030181529190528051602090910120901c92915050565b7f30644e72e131a029b85045b68181585d2833e84879b9709143e1f593f00000018310610dcb5760405163530e3c6560e11b815260040160405180910390fd5b60008381526001602052604090205460ff1615610dfb57604051638121725b60e01b815260040160405180910390fd5b60008381526001602052604090819020905163b4bdd11760e01b8152600481019190915260ff831660248201526044810182905273c3a32b932ab88918764fcc2684ab29e88b59bf7c9063b4bdd1179060640160006040518083038186803b158015610e6657600080fd5b505af4158015610e7a573d6000803e3d6000fd5b50506040805160ff86168152602081018590528693507fc3082aa494e9088c2c9f0fb62a0b6bd46e6699acb94cfba35be29b95a93f68c8925001610c3b565b60008481526020819052604090205460ff1615610f375760405162461bcd60e51b815260206004820152603660248201527f53656d6170686f7265436f72653a20796f752063616e6e6f7420757365207468604482015275652073616d65206e756c6c696669657220747769636560501b60648201526084016108bb565b6000610f4287610d54565b9050816001600160a01b0316635fe8c13b604051806040016040528086600060088110610f7157610f71611748565b6020020135815260200186600160088110610f8e57610f8e611748565b6020020135905260408051608081018252878201359181019182529081906060820189600360200201358152508152602001604051806040016040528089600460088110610fde57610fde611748565b6020020135815260200189600560088110610ffb57610ffb611748565b6020020135905290526040805180820190915280886006602002013581526020018860076008811061102f5761102f611748565b602002013581525060405180608001604052808c81526020018b81526020018781526020018a8152506040518563ffffffff1660e01b81526004016110779493929190611878565b60006040518083038186803b15801561108f57600080fd5b505afa158015610a65573d6000803e3d6000fd5b8280548282559060005260206000209081019282156110de579160200282015b828111156110de5782518255916020019190600101906110c3565b506110ea9291506110ee565b5090565b5b808211156110ea57600081556001016110ef565b60006020828403121561111557600080fd5b5035919050565b6020808252825182820181905260009190848201906040850190845b8181101561115457835183529284019291840191600101611138565b50909695505050505050565b6000806040838503121561117357600080fd5b50508035926020909101359150565b60008083601f84011261119457600080fd5b50813567ffffffffffffffff8111156111ac57600080fd5b6020830191508360208260051b85010111156111c757600080fd5b9250929050565b600080600080600080608087890312156111e757600080fd5b8635955060208701359450604087013567ffffffffffffffff8082111561120d57600080fd5b6112198a838b01611182565b9096509450606089013591508082111561123257600080fd5b5061123f89828a01611182565b979a9699509497509295939492505050565b634e487b7160e01b600052604160045260246000fd5b604051601f8201601f1916810167ffffffffffffffff8111828210171561129057611290611251565b604052919050565b600082601f8301126112a957600080fd5b8135602067ffffffffffffffff8211156112c5576112c5611251565b8160051b6112d4828201611267565b92835284810182019282810190878511156112ee57600080fd5b83870192505b8483101561130d578235825291830191908301906112f4565b979650505050505050565b80356001600160a01b038116811461132f57600080fd5b919050565b803560ff8116811461132f57600080fd5b60008060008060008060c0878903121561135e57600080fd5b8635955060208088013567ffffffffffffffff8082111561137e57600080fd5b818a0191508a601f83011261139257600080fd5b8135818111156113a4576113a4611251565b6113b6601f8201601f19168501611267565b8181528c858386010111156113ca57600080fd5b8185850186830137600091810190940152919650604089013591808311156113f157600080fd5b50506113ff89828a01611298565b94505061140e60608801611318565b925061141c60808801611334565b915060a087013590509295509295509295565b602080825282518282018190526000919060409081850190868401855b828110156114715781518051855286015186850152928401929085019060010161144c565b5091979650505050505050565b634e487b7160e01b600052602160045260246000fd5b6000815180845260005b818110156114ba5760208185018101518683018201520161149e565b818111156114cc576000602083870101525b50601f01601f19169290920160200192915050565b6001600160a01b038516815260006003851061150d57634e487b7160e01b600052602160045260246000fd5b8460208301528360408301526080606083015261152d6080830184611494565b9695505050505050565b600080600080600080600061018080898b03121561155457600080fd5b883567ffffffffffffffff8082111561156c57600080fd5b6115788c838d01611182565b909a50985060208b013591508082111561159157600080fd5b5061159e8b828c01611182565b90975095505060408901359350606089013592508089018a10156115c157600080fd5b5060808801905092959891949750929550565b600181811c908216806115e857607f821691505b60208210810361160857634e487b7160e01b600052602260045260246000fd5b50919050565b601f8211156103e257600081815260208120601f850160051c810160208610156116355750805b601f850160051c820191505b8181101561165457828155600101611641565b505050505050565b815167ffffffffffffffff81111561167657611676611251565b61168a8161168484546115d4565b8461160e565b602080601f8311600181146116bf57600084156116a75750858301515b600019600386901b1c1916600185901b178555611654565b600085815260208120601f198616915b828110156116ee578886015182559484019460019091019084016116cf565b508582101561170c5787850151600019600388901b60f8161c191681555b5050505050600190811b01905550565b6001600160a01b038316815260406020820181905260009061174090830184611494565b949350505050565b634e487b7160e01b600052603260045260246000fd5b634e487b7160e01b600052601160045260246000fd5b6000600182016117865761178661175e565b5060010190565b60008160001904831182151516156117a7576117a761175e565b500290565b600082198211156117bf576117bf61175e565b500190565b8681526000602087818401526080604084015285608084015260018060fb1b038611156117f057600080fd5b8560051b808860a0860137830183810360a090810160608601528101859052859060009060c0015b868210156118405760ff61182b84611334565b16815291830191600191909101908301611818565b9b9a5050505050505050505050565b8060005b6002811015611872578151845260209384019390910190600101611853565b50505050565b6101808101611887828761184f565b60408083018660005b60028110156118b7576118a483835161184f565b9183019160209190910190600101611890565b505050506118c860c083018561184f565b61010082018360005b60048110156118f05781518352602092830192909101906001016118d1565b5050509594505050505056fea2646970667358221220a1d8c321c79fd2423b6509d4822dcff5203647e085371b3ba9b1c0428c7b8ad264736f6c634300080f0033",
    "linkReferences": {}
  },
  "methodIdentifiers": {
    "Addvoter(uint256,uint256)": "1ae187a8",
    "NewVoteInstance(bytes32,string,bytes32[],address,uint8,uint256)": "37d6e3ff",
    "RemoveVoter(uint256,uint256,uint256[],uint8[])": "3143a178",
    "StartPoll(uint256)": "3eecf505",
    "VotesperProposal(uint256,bytes32)": "8d5d77ae",
    "castVote(bytes32[],uint256[],uint256,uint256,uint256[8])": "e9f73a0c",
    "endPoll(uint256)": "f43b8778",
    "getDepth(uint256)": "75e618c9",
    "getNumberOfLeaves(uint256)": "b9c78c2b",
    "getRoot(uint256)": "9b24b3b0",
    "getlatestVotes(uint256)": "3c464bd3",
    "getproposals(uint256)": "12789fe1",
    "nullifierHashes(uint256)": "1f79a1e9",
    "polls(uint256)": "ac2f0074",
    "verifiers(uint256)": "ac1eff68"
  },
  "id": 6
}