{
  "abi": [
    {
      "inputs": [
        {
          "internalType": "uint256[]",
          "name": "_depths",
          "type": "uint256[]"
        },
        {
          "internalType": "address[]",
          "name": "_verifieraddresses",
          "type": "address[]"
        }
      ],
      "stateMutability": "payable",
      "type": "constructor"
    },
    {
      "inputs": [],
      "name": "ALREADY_STARTED",
      "type": "error"
    },
    {
      "inputs": [],
      "name": "INVALID",
      "type": "error"
    },
    {
      "inputs": [],
      "name": "INVALID_TIMESTAMP",
      "type": "error"
    },
    {
      "inputs": [],
      "name": "NOT_ADMIN",
      "type": "error"
    },
    {
      "inputs": [],
      "name": "NOT_ENOUGH_VOTES",
      "type": "error"
    },
    {
      "inputs": [],
      "name": "NOT_SAME_LENGTH",
      "type": "error"
    },
    {
      "inputs": [],
      "name": "Semaphore__GroupAlreadyExists",
      "type": "error"
    },
    {
      "inputs": [],
      "name": "Semaphore__GroupDoesNotExist",
      "type": "error"
    },
    {
      "inputs": [],
      "name": "Semaphore__GroupIdIsNotLessThanSnarkScalarField",
      "type": "error"
    },
    {
      "inputs": [],
      "name": "VALUE_NOT_SENT",
      "type": "error"
    },
    {
      "inputs": [],
      "name": "VOTING_ENDED",
      "type": "error"
    },
    {
      "inputs": [],
      "name": "VOTING_NOT_ENDED",
      "type": "error"
    },
    {
      "anonymous": false,
      "inputs": [
        {
          "indexed": true,
          "internalType": "uint256",
          "name": "groupId",
          "type": "uint256"
        },
        {
          "indexed": false,
          "internalType": "bytes32",
          "name": "vote",
          "type": "bytes32"
        }
      ],
      "name": "CastedVote",
      "type": "event"
    },
    {
      "anonymous": false,
      "inputs": [
        {
          "indexed": true,
          "internalType": "uint256",
          "name": "groupId",
          "type": "uint256"
        },
        {
          "indexed": false,
          "internalType": "uint8",
          "name": "depth",
          "type": "uint8"
        },
        {
          "indexed": false,
          "internalType": "uint256",
          "name": "zeroValue",
          "type": "uint256"
        }
      ],
      "name": "GroupCreated",
      "type": "event"
    },
    {
      "anonymous": false,
      "inputs": [
        {
          "indexed": true,
          "internalType": "uint256",
          "name": "groupId",
          "type": "uint256"
        },
        {
          "indexed": false,
          "internalType": "uint256",
          "name": "identityCommitment",
          "type": "uint256"
        },
        {
          "indexed": false,
          "internalType": "uint256",
          "name": "root",
          "type": "uint256"
        }
      ],
      "name": "MemberAdded",
      "type": "event"
    },
    {
      "anonymous": false,
      "inputs": [
        {
          "indexed": true,
          "internalType": "uint256",
          "name": "groupId",
          "type": "uint256"
        },
        {
          "indexed": false,
          "internalType": "uint256",
          "name": "identityCommitment",
          "type": "uint256"
        },
        {
          "indexed": false,
          "internalType": "uint256",
          "name": "root",
          "type": "uint256"
        }
      ],
      "name": "MemberRemoved",
      "type": "event"
    },
    {
      "anonymous": false,
      "inputs": [
        {
          "indexed": true,
          "internalType": "uint256",
          "name": "id",
          "type": "uint256"
        },
        {
          "indexed": true,
          "internalType": "bytes32",
          "name": "eventname",
          "type": "bytes32"
        },
        {
          "indexed": false,
          "internalType": "address",
          "name": "coordinator",
          "type": "address"
        },
        {
          "indexed": false,
          "internalType": "string",
          "name": "description",
          "type": "string"
        }
      ],
      "name": "NewProposal",
      "type": "event"
    },
    {
      "anonymous": false,
      "inputs": [
        {
          "indexed": false,
          "internalType": "uint256",
          "name": "nullifierHash",
          "type": "uint256"
        }
      ],
      "name": "NullifierHashAdded",
      "type": "event"
    },
    {
      "anonymous": false,
      "inputs": [
        {
          "indexed": true,
          "internalType": "uint256",
          "name": "groupId",
          "type": "uint256"
        },
        {
          "indexed": false,
          "internalType": "uint64",
          "name": "starttime",
          "type": "uint64"
        },
        {
          "indexed": false,
          "internalType": "uint64",
          "name": "endtime",
          "type": "uint64"
        }
      ],
      "name": "VoteStarts",
      "type": "event"
    },
    {
      "inputs": [
        {
          "internalType": "uint256",
          "name": "_pollId",
          "type": "uint256"
        },
        {
          "internalType": "uint256",
          "name": "_identitycommitment",
          "type": "uint256"
        }
      ],
      "name": "Addvoter",
      "outputs": [],
      "stateMutability": "nonpayable",
      "type": "function"
    },
    {
      "inputs": [
        {
          "internalType": "bytes32",
          "name": "_eventName",
          "type": "bytes32"
        },
        {
          "internalType": "string",
          "name": "_description",
          "type": "string"
        },
        {
          "internalType": "address[]",
          "name": "_grantees",
          "type": "address[]"
        },
        {
          "internalType": "address",
          "name": "_coordinator",
          "type": "address"
        },
        {
          "internalType": "uint8",
          "name": "_depth",
          "type": "uint8"
        },
        {
          "internalType": "uint256",
          "name": "_zerovalue",
          "type": "uint256"
        }
      ],
      "name": "NewVoteInstance",
      "outputs": [],
      "stateMutability": "payable",
      "type": "function"
    },
    {
      "inputs": [
        {
          "internalType": "uint256",
          "name": "_pollId",
          "type": "uint256"
        },
        {
          "internalType": "uint256",
          "name": "_identityCommitment",
          "type": "uint256"
        },
        {
          "internalType": "uint256[]",
          "name": "_proofSiblings",
          "type": "uint256[]"
        },
        {
          "internalType": "uint8[]",
          "name": "_proofPathIndices",
          "type": "uint8[]"
        }
      ],
      "name": "RemoveVoter",
      "outputs": [],
      "stateMutability": "nonpayable",
      "type": "function"
    },
    {
      "inputs": [
        {
          "internalType": "uint256",
          "name": "_pollId",
          "type": "uint256"
        },
        {
          "internalType": "uint64",
          "name": "_endtime",
          "type": "uint64"
        }
      ],
      "name": "StartPoll",
      "outputs": [],
      "stateMutability": "nonpayable",
      "type": "function"
    },
    {
      "inputs": [
        {
          "internalType": "uint256",
          "name": "",
          "type": "uint256"
        },
        {
          "internalType": "address",
          "name": "",
          "type": "address"
        }
      ],
      "name": "VotesperProposal",
      "outputs": [
        {
          "internalType": "uint256",
          "name": "",
          "type": "uint256"
        }
      ],
      "stateMutability": "view",
      "type": "function"
    },
    {
      "inputs": [
        {
          "internalType": "address[]",
          "name": "_vote",
          "type": "address[]"
        },
        {
          "internalType": "uint256[]",
          "name": "position",
          "type": "uint256[]"
        },
        {
          "internalType": "uint256",
          "name": "_nullifierHash",
          "type": "uint256"
        },
        {
          "internalType": "uint256",
          "name": "_pollId",
          "type": "uint256"
        },
        {
          "internalType": "uint256[8]",
          "name": "_proof",
          "type": "uint256[8]"
        }
      ],
      "name": "castVote",
      "outputs": [],
      "stateMutability": "nonpayable",
      "type": "function"
    },
    {
      "inputs": [
        {
          "internalType": "uint256",
          "name": "_pollId",
          "type": "uint256"
        }
      ],
      "name": "disperse",
      "outputs": [],
      "stateMutability": "nonpayable",
      "type": "function"
    },
    {
      "inputs": [
        {
          "internalType": "uint256",
          "name": "groupId",
          "type": "uint256"
        }
      ],
      "name": "getDepth",
      "outputs": [
        {
          "internalType": "uint256",
          "name": "",
          "type": "uint256"
        }
      ],
      "stateMutability": "view",
      "type": "function"
    },
    {
      "inputs": [
        {
          "internalType": "uint256",
          "name": "groupId",
          "type": "uint256"
        }
      ],
      "name": "getNumberOfLeaves",
      "outputs": [
        {
          "internalType": "uint256",
          "name": "",
          "type": "uint256"
        }
      ],
      "stateMutability": "view",
      "type": "function"
    },
    {
      "inputs": [
        {
          "internalType": "uint256",
          "name": "groupId",
          "type": "uint256"
        }
      ],
      "name": "getRoot",
      "outputs": [
        {
          "internalType": "uint256",
          "name": "",
          "type": "uint256"
        }
      ],
      "stateMutability": "view",
      "type": "function"
    },
    {
      "inputs": [
        {
          "internalType": "uint256",
          "name": "_pollId",
          "type": "uint256"
        }
      ],
      "name": "getlatestVotes",
      "outputs": [
        {
          "components": [
            {
              "internalType": "address",
              "name": "IndividualGrantee",
              "type": "address"
            },
            {
              "internalType": "uint256",
              "name": "votes",
              "type": "uint256"
            }
          ],
          "internalType": "struct ZkVote.Results[]",
          "name": "",
          "type": "tuple[]"
        }
      ],
      "stateMutability": "view",
      "type": "function"
    },
    {
      "inputs": [
        {
          "internalType": "uint256",
          "name": "",
          "type": "uint256"
        }
      ],
      "name": "nullifierHashes",
      "outputs": [
        {
          "internalType": "bool",
          "name": "",
          "type": "bool"
        }
      ],
      "stateMutability": "view",
      "type": "function"
    },
    {
      "inputs": [
        {
          "internalType": "uint256",
          "name": "",
          "type": "uint256"
        }
      ],
      "name": "polls",
      "outputs": [
        {
          "internalType": "address",
          "name": "coordinator",
          "type": "address"
        },
        {
          "internalType": "enum ZkVote.PollState",
          "name": "pollstate",
          "type": "uint8"
        },
        {
          "internalType": "uint64",
          "name": "endtime",
          "type": "uint64"
        },
        {
          "internalType": "bytes32",
          "name": "pollname",
          "type": "bytes32"
        },
        {
          "internalType": "string",
          "name": "description",
          "type": "string"
        },
        {
          "internalType": "uint256",
          "name": "fund",
          "type": "uint256"
        }
      ],
      "stateMutability": "view",
      "type": "function"
    },
    {
      "inputs": [
        {
          "internalType": "uint256",
          "name": "",
          "type": "uint256"
        }
      ],
      "name": "verifiers",
      "outputs": [
        {
          "internalType": "contract IVerifier",
          "name": "",
          "type": "address"
        }
      ],
      "stateMutability": "view",
      "type": "function"
    }
  ],
  "bytecode": {
    "object": "0x608060405260405162001dea38038062001dea8339810160408190526200002691620001d6565b80518251146200004957604051637700949960e11b815260040160405180910390fd5b815160005b81811015620000d3578281815181106200006c576200006c6200029d565b6020026020010151600260008684815181106200008d576200008d6200029d565b6020026020010151815260200190815260200160002060006101000a8154816001600160a01b0302191690836001600160a01b031602179055508060010190506200004e565b50505050620002b3565b634e487b7160e01b600052604160045260246000fd5b604051601f8201601f191681016001600160401b03811182821017156200011e576200011e620000dd565b604052919050565b60006001600160401b03821115620001425762000142620000dd565b5060051b60200190565b600082601f8301126200015e57600080fd5b8151602062000177620001718362000126565b620000f3565b82815260059290921b840181019181810190868411156200019757600080fd5b8286015b84811015620001cb5780516001600160a01b0381168114620001bd5760008081fd5b83529183019183016200019b565b509695505050505050565b60008060408385031215620001ea57600080fd5b82516001600160401b03808211156200020257600080fd5b818501915085601f8301126200021757600080fd5b815160206200022a620001718362000126565b82815260059290921b840181019181810190898411156200024a57600080fd5b948201945b838610156200026a578551825294820194908201906200024f565b918801519196509093505050808211156200028457600080fd5b5062000293858286016200014c565b9150509250929050565b634e487b7160e01b600052603260045260246000fd5b611b2780620002c36000396000f3fe6080604052600436106100dd5760003560e01c806375e618c91161007f578063ac2f007411610059578063ac2f0074146102a3578063b9c78c2b146102d5578063bd1b5e7c14610305578063c92482871461033d57600080fd5b806375e618c9146101e95780639b24b3b014610224578063ac1eff681461025557600080fd5b80633c464bd3116100bb5780633c464bd314610169578063420aca5f146101965780635744050f146101b65780637263578c146101d657600080fd5b80631ae187a8146100e25780631f79a1e9146101045780633143a17814610149575b600080fd5b3480156100ee57600080fd5b506101026100fd3660046112fe565b61035d565b005b34801561011057600080fd5b5061013461011f366004611320565b60006020819052908152604090205460ff1681565b60405190151581526020015b60405180910390f35b34801561015557600080fd5b50610102610164366004611384565b6103eb565b34801561017557600080fd5b50610189610184366004611320565b610481565b6040516101409190611406565b3480156101a257600080fd5b506101026101b1366004611320565b61059f565b3480156101c257600080fd5b506101026101d136600461145e565b610785565b6101026101e436600461153d565b6109c6565b3480156101f557600080fd5b50610216610204366004611320565b60009081526001602052604090205490565b604051908152602001610140565b34801561023057600080fd5b5061021661023f366004611320565b6000908152600160208190526040909120015490565b34801561026157600080fd5b5061028b610270366004611320565b6002602052600090815260409020546001600160a01b031681565b6040516001600160a01b039091168152602001610140565b3480156102af57600080fd5b506102c36102be366004611320565b610b71565b604051610140969594939291906116b0565b3480156102e157600080fd5b506102166102f0366004611320565b60009081526001602052604090206002015490565b34801561031157600080fd5b5061021661032036600461171e565b600360209081526000928352604080842090915290825290205481565b34801561034957600080fd5b5061010261035836600461174a565b610c48565b60008281526004602052604090205482906001600160a01b0316331461039657604051636209c08b60e01b815260040160405180910390fd5b60008084815260046020526040902054600160a01b900460ff1680156103be576103be61164d565b146103dc57604051637c61cfe160e11b815260040160405180910390fd5b6103e68383610d29565b505050565b60008681526004602052604090205486906001600160a01b0316331461042457604051636209c08b60e01b815260040160405180910390fd5b60008088815260046020526040902054600160a01b900460ff16801561044c5761044c61164d565b1461046a57604051637c61cfe160e11b815260040160405180910390fd5b610478878787878787610e1e565b50505050505050565b600081815260046020526040812060030154606091816001600160401b038111156104ae576104ae6114fa565b6040519080825280602002602001820160405280156104f357816020015b60408051808201909152600080825260208201528152602001906001900390816104cc5790505b50905060005b8281101561059757600085815260046020526040812060030180548390811061052457610524611786565b60009182526020808320909101546040805180820182526001600160a01b039092168083528a85526003845281852081865284529320549181019190915284519192509084908490811061057a5761057a611786565b60200260200101819052505080610590906117b2565b90506104f9565b509392505050565b600081815260046020526040812060038101549054600160a81b90046001600160401b03164210156105e457604051633b64027560e01b815260040160405180910390fd5b60008381526004602081905260408220015490826001600160401b0381111561060f5761060f6114fa565b604051908082528060200260200182016040528015610638578160200160208202803683370190505b509050600061064686610481565b905060005b81868151811061065d5761065d611786565b60200260200101516020015183878151811061067b5761067b611786565b60200260200101818152505081868151811061069957610699611786565b602002602001015160200151816106b091906117cb565b905085600101955061064b565b6000808483815181106106d2576106d2611786565b6020026020010151600001516001600160a01b0316848785815181106106fa576106fa611786565b60200260200101518961070d91906117e3565b6107179190611802565b604051600081818185875af1925050503d8060008114610753576040519150601f19603f3d011682016040523d82523d6000602084013e610758565b606091505b50915091508161077b5760405163356fe56160e21b815260040160405180910390fd5b50506001016106bd565b60008281526004602052604090205442600160a81b9091046001600160401b031610156107c5576040516370bc763160e01b815260040160405180910390fd5b8584146107e557604051637700949960e11b815260040160405180910390fd5b600082815260016020818152604080842080549301548385526002909252832054919290916001600160a01b03169061088b906008908c908c908161082c5761082c611786565b90506020020160208101906108419190611824565b604051602001610869919060609190911b6bffffffffffffffffffffffff1916815260140190565b60405160208183030381529060405280519060200120901c8388888886610f27565b6108aa866000908152602081905260409020805460ff19166001179055565b600087815b8181106108cf57604051637fcce2a960e01b815260040160405180910390fd5b8a8a828181106108e1576108e1611786565b905060200201358b8b838181106108fa576108fa611786565b9050602002013561090b91906117e3565b6000898152600360205260408120908f8f8581811061092c5761092c611786565b90506020020160208101906109419190611824565b6001600160a01b03166001600160a01b03168152602001908152602001600020600082825461097091906117cb565b909155508b90508a8281811061098857610988611786565b905060200201358b8b838181106109a1576109a1611786565b905060200201356109b291906117e3565b6109bc90846117cb565b92506001016108af565b60006109d188611122565b90506109de818484611159565b6040805160e08101825260006020808301829052828401829052606060a0840181905260c08401929092526001600160a01b03881683529082018b9052608082018a9052825188820280820183019094528881529192899189918291850190849080828437600092018290525060a086019490945250503460c084015250828152600460209081526040909120825181546001600160a01b031981166001600160a01b039092169182178355928401518493909183916001600160a81b03191617600160a01b838015610ab357610ab361164d565b0217905550604082015181546001600160401b03909116600160a81b0267ffffffffffffffff60a81b199091161781556060820151600182015560808201516002820190610b0190826118ce565b5060a08201518051610b1d916003840191602090910190611284565b5060c0820151816004015590505088827f40b5355208340c3f3f4d7d5a625416bce4b69d9f97cc17f530daf7d5d4ced8ac878b604051610b5e92919061198d565b60405180910390a3505050505050505050565b6004602052600090815260409020805460018201546002830180546001600160a01b03841694600160a01b850460ff1694600160a81b90046001600160401b031693929091610bbf90611846565b80601f0160208091040260200160405190810160405280929190818152602001828054610beb90611846565b8015610c385780601f10610c0d57610100808354040283529160200191610c38565b820191906000526020600020905b815481529060010190602001808311610c1b57829003601f168201915b5050505050908060040154905086565b60008281526004602052604081208054909190600160a01b900460ff168015610c7357610c7361164d565b14610c9157604051637c61cfe160e11b815260040160405180910390fd5b42826001600160401b03161015610cbb5760405163118818d160e01b815260040160405180910390fd5b805467ffffffffffffffff60a81b1916600160a81b6001600160401b0384811691820292909217835560408051429093168352602083019190915284917fbf33d75a411657e8190a3e1cb2d7ca4705a4f7f84697d327f815fafb4c4fae9591015b60405180910390a2505050565b600082815260016020526040902054600003610d585760405163029f057960e01b815260040160405180910390fd5b600082815260016020526040908190209051630b4381fd60e11b81526004810191909152602481018290527308de038d364e9a8864eea8c9586901ca12284fe19063168703fa9060440160006040518083038186803b158015610dba57600080fd5b505af4158015610dce573d6000803e3d6000fd5b505050600083815260016020818152604092839020909101548251858152918201819052925084917f03fd27265b7dd1f55558bedc22a58fa3b10afb1be776e614bd5a7ba7b94994069101610d1c565b600086815260016020526040902054600003610e4d5760405163029f057960e01b815260040160405180910390fd5b600086815260016020526040908190209051630629596f60e01b81527308de038d364e9a8864eea8c9586901ca12284fe191630629596f91610e9c9190899089908990899089906004016119b9565b60006040518083038186803b158015610eb457600080fd5b505af4158015610ec8573d6000803e3d6000fd5b505050600087815260016020819052604082200154909150604080518881526020810183905291925088917fe270325ded177064d7bda473e6519ef40a291058c41286f71a6e4872f1e9ab5c910160405180910390a250505050505050565b60008481526020819052604090205460ff1615610fa95760405162461bcd60e51b815260206004820152603660248201527f53656d6170686f7265436f72653a20796f752063616e6e6f7420757365207468604482015275652073616d65206e756c6c696669657220747769636560501b606482015260840160405180910390fd5b6000610fb487611122565b9050816001600160a01b0316635fe8c13b604051806040016040528086600060088110610fe357610fe3611786565b602002013581526020018660016008811061100057611000611786565b602002013590526040805160808101825287820135918101918252908190606082018960036020020135815250815260200160405180604001604052808960046008811061105057611050611786565b602002013581526020018960056008811061106d5761106d611786565b602002013590529052604080518082019091528088600660200201358152602001886007600881106110a1576110a1611786565b602002013581525060405180608001604052808c81526020018b81526020018781526020018a8152506040518563ffffffff1660e01b81526004016110e99493929190611a6d565b60006040518083038186803b15801561110157600080fd5b505afa158015611115573d6000803e3d6000fd5b5050505050505050505050565b600060088260405160200161113991815260200190565b60408051601f198184030181529190528051602090910120901c92915050565b7f30644e72e131a029b85045b68181585d2833e84879b9709143e1f593f000000183106111995760405163530e3c6560e11b815260040160405180910390fd5b600083815260016020526040902054156111c657604051638121725b60e01b815260040160405180910390fd5b6000838152600160205260409081902090516304257eed60e21b8152600481019190915260ff83166024820152604481018290527308de038d364e9a8864eea8c9586901ca12284fe190631095fbb49060640160006040518083038186803b15801561123157600080fd5b505af4158015611245573d6000803e3d6000fd5b50506040805160ff86168152602081018590528693507fc3082aa494e9088c2c9f0fb62a0b6bd46e6699acb94cfba35be29b95a93f68c8925001610d1c565b8280548282559060005260206000209081019282156112d9579160200282015b828111156112d957825182546001600160a01b0319166001600160a01b039091161782556020909201916001909101906112a4565b506112e59291506112e9565b5090565b5b808211156112e557600081556001016112ea565b6000806040838503121561131157600080fd5b50508035926020909101359150565b60006020828403121561133257600080fd5b5035919050565b60008083601f84011261134b57600080fd5b5081356001600160401b0381111561136257600080fd5b6020830191508360208260051b850101111561137d57600080fd5b9250929050565b6000806000806000806080878903121561139d57600080fd5b863595506020870135945060408701356001600160401b03808211156113c257600080fd5b6113ce8a838b01611339565b909650945060608901359150808211156113e757600080fd5b506113f489828a01611339565b979a9699509497509295939492505050565b602080825282518282018190526000919060409081850190868401855b8281101561145157815180516001600160a01b03168552860151868501529284019290850190600101611423565b5091979650505050505050565b600080600080600080600061018080898b03121561147b57600080fd5b88356001600160401b038082111561149257600080fd5b61149e8c838d01611339565b909a50985060208b01359150808211156114b757600080fd5b506114c48b828c01611339565b90975095505060408901359350606089013592508089018a10156114e757600080fd5b5060808801905092959891949750929550565b634e487b7160e01b600052604160045260246000fd5b80356001600160a01b038116811461152757600080fd5b919050565b803560ff8116811461152757600080fd5b600080600080600080600060c0888a03121561155857600080fd5b8735965060208801356001600160401b038082111561157657600080fd5b818a0191508a601f83011261158a57600080fd5b81358181111561159c5761159c6114fa565b604051601f8201601f19908116603f011681019083821181831017156115c4576115c46114fa565b816040528281528d60208487010111156115dd57600080fd5b82602086016020830137600060208483010152809a5050505060408a013591508082111561160a57600080fd5b506116178a828b01611339565b909650945061162a905060608901611510565b92506116386080890161152c565b915060a0880135905092959891949750929550565b634e487b7160e01b600052602160045260246000fd5b6000815180845260005b818110156116895760208185018101518683018201520161166d565b8181111561169b576000602083870101525b50601f01601f19169290920160200192915050565b6001600160a01b03871681526000600187106116dc57634e487b7160e01b600052602160045260246000fd5b8660208301526001600160401b038616604083015284606083015260c0608083015261170b60c0830185611663565b90508260a0830152979650505050505050565b6000806040838503121561173157600080fd5b8235915061174160208401611510565b90509250929050565b6000806040838503121561175d57600080fd5b8235915060208301356001600160401b038116811461177b57600080fd5b809150509250929050565b634e487b7160e01b600052603260045260246000fd5b634e487b7160e01b600052601160045260246000fd5b6000600182016117c4576117c461179c565b5060010190565b600082198211156117de576117de61179c565b500190565b60008160001904831182151516156117fd576117fd61179c565b500290565b60008261181f57634e487b7160e01b600052601260045260246000fd5b500490565b60006020828403121561183657600080fd5b61183f82611510565b9392505050565b600181811c9082168061185a57607f821691505b60208210810361187a57634e487b7160e01b600052602260045260246000fd5b50919050565b601f8211156103e657600081815260208120601f850160051c810160208610156118a75750805b601f850160051c820191505b818110156118c6578281556001016118b3565b505050505050565b81516001600160401b038111156118e7576118e76114fa565b6118fb816118f58454611846565b84611880565b602080601f83116001811461193057600084156119185750858301515b600019600386901b1c1916600185901b1785556118c6565b600085815260208120601f198616915b8281101561195f57888601518255948401946001909101908401611940565b508582101561197d5787850151600019600388901b60f8161c191681555b5050505050600190811b01905550565b6001600160a01b03831681526040602082018190526000906119b190830184611663565b949350505050565b8681526000602087818401526080604084015285608084015260018060fb1b038611156119e557600080fd5b8560051b808860a0860137830183810360a090810160608601528101859052859060009060c0015b86821015611a355760ff611a208461152c565b16815291830191600191909101908301611a0d565b9b9a5050505050505050505050565b8060005b6002811015611a67578151845260209384019390910190600101611a48565b50505050565b6101808101611a7c8287611a44565b60408083018660005b6002811015611aac57611a99838351611a44565b9183019160209190910190600101611a85565b50505050611abd60c0830185611a44565b61010082018360005b6004811015611ae5578151835260209283019290910190600101611ac6565b5050509594505050505056fea2646970667358221220c706db3f068959ea4fb8b99675ed0976b01f18ad968a66dd816131988cd1f3ec64736f6c634300080f0033",
    "linkReferences": {}
  },
  "methodIdentifiers": {
    "Addvoter(uint256,uint256)": "1ae187a8",
    "NewVoteInstance(bytes32,string,address[],address,uint8,uint256)": "7263578c",
    "RemoveVoter(uint256,uint256,uint256[],uint8[])": "3143a178",
    "StartPoll(uint256,uint64)": "c9248287",
    "VotesperProposal(uint256,address)": "bd1b5e7c",
    "castVote(address[],uint256[],uint256,uint256,uint256[8])": "5744050f",
    "disperse(uint256)": "420aca5f",
    "getDepth(uint256)": "75e618c9",
    "getNumberOfLeaves(uint256)": "b9c78c2b",
    "getRoot(uint256)": "9b24b3b0",
    "getlatestVotes(uint256)": "3c464bd3",
    "nullifierHashes(uint256)": "1f79a1e9",
    "polls(uint256)": "ac2f0074",
    "verifiers(uint256)": "ac1eff68"
  },
  "id": 1
}